{
  "contractName": "Admin",
  "abi": [
    {
      "inputs": [],
      "stateMutability": "nonpayable",
      "type": "constructor"
    },
    {
      "inputs": [
        {
          "internalType": "address",
          "name": "",
          "type": "address"
        }
      ],
      "name": "exist",
      "outputs": [
        {
          "internalType": "bool",
          "name": "",
          "type": "bool"
        }
      ],
      "stateMutability": "view",
      "type": "function",
      "constant": true
    },
    {
      "inputs": [],
      "name": "owner",
      "outputs": [
        {
          "internalType": "address",
          "name": "",
          "type": "address"
        }
      ],
      "stateMutability": "view",
      "type": "function",
      "constant": true
    },
    {
      "inputs": [
        {
          "internalType": "string",
          "name": "_name",
          "type": "string"
        },
        {
          "internalType": "string",
          "name": "_kyc",
          "type": "string"
        },
        {
          "internalType": "string",
          "name": "_mno",
          "type": "string"
        },
        {
          "internalType": "address",
          "name": "_owner",
          "type": "address"
        },
        {
          "internalType": "string",
          "name": "_id",
          "type": "string"
        }
      ],
      "name": "addDoctor",
      "outputs": [
        {
          "internalType": "contract Doctor",
          "name": "",
          "type": "address"
        }
      ],
      "stateMutability": "nonpayable",
      "type": "function"
    },
    {
      "inputs": [
        {
          "internalType": "string",
          "name": "_name",
          "type": "string"
        },
        {
          "internalType": "string",
          "name": "_kyc",
          "type": "string"
        },
        {
          "internalType": "string",
          "name": "_bg",
          "type": "string"
        },
        {
          "internalType": "string",
          "name": "_mno",
          "type": "string"
        },
        {
          "internalType": "address",
          "name": "_owner",
          "type": "address"
        }
      ],
      "name": "addPatient",
      "outputs": [
        {
          "internalType": "contract Patient",
          "name": "",
          "type": "address"
        }
      ],
      "stateMutability": "nonpayable",
      "type": "function"
    },
    {
      "inputs": [],
      "name": "showAddressofDoctors",
      "outputs": [
        {
          "internalType": "address[]",
          "name": "",
          "type": "address[]"
        }
      ],
      "stateMutability": "view",
      "type": "function",
      "constant": true
    },
    {
      "inputs": [
        {
          "internalType": "address",
          "name": "_doc",
          "type": "address"
        }
      ],
      "name": "showDoctors",
      "outputs": [
        {
          "internalType": "contract Doctor",
          "name": "",
          "type": "address"
        }
      ],
      "stateMutability": "view",
      "type": "function",
      "constant": true
    }
  ],
  "bytecode": "0x608060405234801561001057600080fd5b5033600360006101000a81548173ffffffffffffffffffffffffffffffffffffffff021916908373ffffffffffffffffffffffffffffffffffffffff160217905550613b47806100616000396000f3fe60806040523480156200001157600080fd5b50600436106200006a5760003560e01c806302a9376d146200006f5780634dfefc4b14620000a55780635c4dd30c14620000db5780638da5cb5b14620000fd578063c45e7a96146200011f578063c9ac2cad1462000155575b600080fd5b6200008d6004803603810190620000879190620006f5565b6200018b565b6040516200009c919062000aa7565b60405180910390f35b620000c36004803603810190620000bd9190620006f5565b620001f4565b604051620000d2919062000a8a565b60405180910390f35b620000e562000214565b604051620000f4919062000a66565b60405180910390f35b6200010762000337565b60405162000116919062000a49565b60405180910390f35b6200013d600480360381019062000137919062000807565b6200035d565b6040516200014c919062000ac4565b60405180910390f35b6200017360048036038101906200016d919062000721565b62000446565b60405162000182919062000aa7565b60405180910390f35b6000600160008373ffffffffffffffffffffffffffffffffffffffff1673ffffffffffffffffffffffffffffffffffffffff16815260200190815260200160002060009054906101000a900473ffffffffffffffffffffffffffffffffffffffff169050919050565b60026020528060005260406000206000915054906101000a900460ff1681565b6060600360009054906101000a900473ffffffffffffffffffffffffffffffffffffffff1673ffffffffffffffffffffffffffffffffffffffff163373ffffffffffffffffffffffffffffffffffffffff1614620002a9576040517f08c379a0000000000000000000000000000000000000000000000000000000008152600401620002a09062000be3565b60405180910390fd5b60008054806020026020016040519081016040528092919081815260200182805480156200032d57602002820191906000526020600020905b8160009054906101000a900473ffffffffffffffffffffffffffffffffffffffff1673ffffffffffffffffffffffffffffffffffffffff1681526020019060010190808311620002e2575b5050505050905090565b600360009054906101000a900473ffffffffffffffffffffffffffffffffffffffff1681565b6000600360009054906101000a900473ffffffffffffffffffffffffffffffffffffffff1673ffffffffffffffffffffffffffffffffffffffff163373ffffffffffffffffffffffffffffffffffffffff1614620003f2576040517f08c379a0000000000000000000000000000000000000000000000000000000008152600401620003e99062000be3565b60405180910390fd5b6000868686868630604051620004089062000666565b620004199695949392919062000b5a565b604051809103906000f08015801562000436573d6000803e3d6000fd5b5090508091505095945050505050565b6000600360009054906101000a900473ffffffffffffffffffffffffffffffffffffffff1673ffffffffffffffffffffffffffffffffffffffff163373ffffffffffffffffffffffffffffffffffffffff1614620004db576040517f08c379a0000000000000000000000000000000000000000000000000000000008152600401620004d29062000be3565b60405180910390fd5b60008686868686604051620004f09062000674565b6200050095949392919062000ae1565b604051809103906000f0801580156200051d573d6000803e3d6000fd5b5090506000849080600181540180825580915050600190039060005260206000200160009091909190916101000a81548173ffffffffffffffffffffffffffffffffffffffff021916908373ffffffffffffffffffffffffffffffffffffffff16021790555080600160008673ffffffffffffffffffffffffffffffffffffffff1673ffffffffffffffffffffffffffffffffffffffff16815260200190815260200160002060006101000a81548173ffffffffffffffffffffffffffffffffffffffff021916908373ffffffffffffffffffffffffffffffffffffffff1602179055506001600260008373ffffffffffffffffffffffffffffffffffffffff1673ffffffffffffffffffffffffffffffffffffffff16815260200190815260200160002060006101000a81548160ff0219169083151502179055508091505095945050505050565b611ed78062000db683390190565b610e858062002c8d83390190565b600081359050620006938162000d9b565b92915050565b600082601f830112620006ab57600080fd5b8135620006c2620006bc8262000c33565b62000c05565b91508082526020830160208301858383011115620006df57600080fd5b620006ec83828462000d45565b50505092915050565b6000602082840312156200070857600080fd5b6000620007188482850162000682565b91505092915050565b600080600080600060a086880312156200073a57600080fd5b600086013567ffffffffffffffff8111156200075557600080fd5b620007638882890162000699565b955050602086013567ffffffffffffffff8111156200078157600080fd5b6200078f8882890162000699565b945050604086013567ffffffffffffffff811115620007ad57600080fd5b620007bb8882890162000699565b9350506060620007ce8882890162000682565b925050608086013567ffffffffffffffff811115620007ec57600080fd5b620007fa8882890162000699565b9150509295509295909350565b600080600080600060a086880312156200082057600080fd5b600086013567ffffffffffffffff8111156200083b57600080fd5b620008498882890162000699565b955050602086013567ffffffffffffffff8111156200086757600080fd5b620008758882890162000699565b945050604086013567ffffffffffffffff8111156200089357600080fd5b620008a18882890162000699565b935050606086013567ffffffffffffffff811115620008bf57600080fd5b620008cd8882890162000699565b9250506080620008e08882890162000682565b9150509295509295909350565b6000620008fb838362000907565b60208301905092915050565b620009128162000cb5565b82525050565b620009238162000cb5565b82525050565b6000620009368262000c70565b62000942818562000c93565b93506200094f8362000c60565b8060005b83811015620009865781516200096a8882620008ed565b9750620009778362000c86565b92505060018101905062000953565b5085935050505092915050565b6200099e8162000cc9565b82525050565b620009af8162000cf5565b82525050565b620009c08162000d1d565b82525050565b6000620009d38262000c7b565b620009df818562000ca4565b9350620009f181856020860162000d54565b620009fc8162000d8a565b840191505092915050565b600062000a1660168362000ca4565b91507f596f7520617265206e6f7420746865204f776e657220000000000000000000006000830152602082019050919050565b600060208201905062000a60600083018462000918565b92915050565b6000602082019050818103600083015262000a82818462000929565b905092915050565b600060208201905062000aa1600083018462000993565b92915050565b600060208201905062000abe6000830184620009a4565b92915050565b600060208201905062000adb6000830184620009b5565b92915050565b600060a082019050818103600083015262000afd8188620009c6565b9050818103602083015262000b138187620009c6565b9050818103604083015262000b298186620009c6565b905062000b3a606083018562000918565b818103608083015262000b4e8184620009c6565b90509695505050505050565b600060c082019050818103600083015262000b768189620009c6565b9050818103602083015262000b8c8188620009c6565b9050818103604083015262000ba28187620009c6565b9050818103606083015262000bb88186620009c6565b905062000bc9608083018562000918565b62000bd860a083018462000918565b979650505050505050565b6000602082019050818103600083015262000bfe8162000a07565b9050919050565b6000604051905081810181811067ffffffffffffffff8211171562000c2957600080fd5b8060405250919050565b600067ffffffffffffffff82111562000c4b57600080fd5b601f19601f8301169050602081019050919050565b6000819050602082019050919050565b600081519050919050565b600081519050919050565b6000602082019050919050565b600082825260208201905092915050565b600082825260208201905092915050565b600062000cc28262000cd5565b9050919050565b60008115159050919050565b600073ffffffffffffffffffffffffffffffffffffffff82169050919050565b600062000d028262000d09565b9050919050565b600062000d168262000cd5565b9050919050565b600062000d2a8262000d31565b9050919050565b600062000d3e8262000cd5565b9050919050565b82818337600083830152505050565b60005b8381101562000d7457808201518184015260208101905062000d57565b8381111562000d84576000848401525b50505050565b6000601f19601f8301169050919050565b62000da68162000cb5565b811462000db257600080fd5b5056fe60806040523480156200001157600080fd5b5060405162001ed738038062001ed78339818101604052810190620000379190620002bc565b80600560006101000a81548173ffffffffffffffffffffffffffffffffffffffff021916908373ffffffffffffffffffffffffffffffffffffffff160217905550856000908051906020019062000090929190620001a3565b508460019080519060200190620000a9929190620001a3565b508360029080519060200190620000c2929190620001a3565b508260039080519060200190620000db929190620001a3565b5081600460006101000a81548173ffffffffffffffffffffffffffffffffffffffff021916908373ffffffffffffffffffffffffffffffffffffffff160217905550600160066000600460009054906101000a900473ffffffffffffffffffffffffffffffffffffffff1673ffffffffffffffffffffffffffffffffffffffff1673ffffffffffffffffffffffffffffffffffffffff16815260200190815260200160002060006101000a81548160ff02191690831515021790555050505050505062000495565b828054600181600116156101000203166002900490600052602060002090601f016020900481019282601f10620001e657805160ff191683800117855562000217565b8280016001018555821562000217579182015b8281111562000216578251825591602001919060010190620001f9565b5b5090506200022691906200022a565b5090565b5b80821115620002455760008160009055506001016200022b565b5090565b6000815190506200025a816200047b565b92915050565b600082601f8301126200027257600080fd5b8151620002896200028382620003e4565b620003b6565b91508082526020830160208301858383011115620002a657600080fd5b620002b383828462000445565b50505092915050565b60008060008060008060c08789031215620002d657600080fd5b600087015167ffffffffffffffff811115620002f157600080fd5b620002ff89828a0162000260565b965050602087015167ffffffffffffffff8111156200031d57600080fd5b6200032b89828a0162000260565b955050604087015167ffffffffffffffff8111156200034957600080fd5b6200035789828a0162000260565b945050606087015167ffffffffffffffff8111156200037557600080fd5b6200038389828a0162000260565b93505060806200039689828a0162000249565b92505060a0620003a989828a0162000249565b9150509295509295509295565b6000604051905081810181811067ffffffffffffffff82111715620003da57600080fd5b8060405250919050565b600067ffffffffffffffff821115620003fc57600080fd5b601f19601f8301169050602081019050919050565b60006200041e8262000425565b9050919050565b600073ffffffffffffffffffffffffffffffffffffffff82169050919050565b60005b838110156200046557808201518184015260208101905062000448565b8381111562000475576000848401525b50505050565b620004868162000411565b81146200049257600080fd5b50565b611a3280620004a56000396000f3fe608060405234801561001057600080fd5b50600436106100cf5760003560e01c80638da5cb5b1161008c578063cd52844d11610066578063cd52844d146101fe578063d1d989141461022e578063e5975bdc1461024a578063f2f4adae14610266576100cf565b80638da5cb5b14610192578063a69439aa146101b0578063be1c766b146101e0576100cf565b806306fdde03146100d457806308e381cf146100f25780632d55feaf1461010e5780634e7f9b191461012a578063601f8cf51461015a5780637a3e006614610176575b600080fd5b6100dc610288565b6040516100e99190611712565b60405180910390f35b61010c600480360381019061010791906113b5565b610326565b005b61012860048036038101906101239190611363565b6103d0565b005b610144600480360381019061013f9190611462565b610513565b6040516101519190611823565b60405180910390f35b610174600480360381019061016f9190611363565b610778565b005b610190600480360381019061018b91906113f6565b610863565b005b61019a610b88565b6040516101a791906116c1565b60405180910390f35b6101ca60048036038101906101c59190611363565b610bae565b6040516101d791906116f7565b60405180910390f35b6101e8610bce565b6040516101f59190611845565b60405180910390f35b61021860048036038101906102139190611363565b610c67565b60405161022591906116f7565b60405180910390f35b61024860048036038101906102439190611363565b610c87565b005b610264600480360381019061025f9190611363565b610d72565b005b61026e610eb5565b60405161027f959493929190611734565b60405180910390f35b60008054600181600116156101000203166002900480601f01602080910402602001604051908101604052809291908181526020018280546001816001161561010002031660029004801561031e5780601f106102f35761010080835404028352916020019161031e565b820191906000526020600020905b81548152906001019060200180831161030157829003601f168201915b505050505081565b600460009054906101000a900473ffffffffffffffffffffffffffffffffffffffff1673ffffffffffffffffffffffffffffffffffffffff163373ffffffffffffffffffffffffffffffffffffffff16146103b6576040517f08c379a00000000000000000000000000000000000000000000000000000000081526004016103ad90611803565b60405180910390fd5b80600390805190602001906103cc9291906111f5565b5050565b600460009054906101000a900473ffffffffffffffffffffffffffffffffffffffff1673ffffffffffffffffffffffffffffffffffffffff163373ffffffffffffffffffffffffffffffffffffffff1614610460576040517f08c379a000000000000000000000000000000000000000000000000000000000815260040161045790611803565b60405180910390fd5b6000600760008373ffffffffffffffffffffffffffffffffffffffff1673ffffffffffffffffffffffffffffffffffffffff16815260200190815260200160002060006101000a81548160ff0219169083151502179055506000600660008373ffffffffffffffffffffffffffffffffffffffff1673ffffffffffffffffffffffffffffffffffffffff16815260200190815260200160002060006101000a81548160ff02191690831515021790555050565b61051b611275565b600660003373ffffffffffffffffffffffffffffffffffffffff1673ffffffffffffffffffffffffffffffffffffffff16815260200190815260200160002060009054906101000a900460ff166105a7576040517f08c379a000000000000000000000000000000000000000000000000000000000815260040161059e906117e3565b60405180910390fd5b600882815481106105b457fe5b9060005260206000209060040201604051806080016040529081600082015481526020016001820160009054906101000a900473ffffffffffffffffffffffffffffffffffffffff1673ffffffffffffffffffffffffffffffffffffffff1673ffffffffffffffffffffffffffffffffffffffff168152602001600282018054600181600116156101000203166002900480601f0160208091040260200160405190810160405280929190818152602001828054600181600116156101000203166002900480156106c65780601f1061069b576101008083540402835291602001916106c6565b820191906000526020600020905b8154815290600101906020018083116106a957829003601f168201915b50505050508152602001600382018054600181600116156101000203166002900480601f0160208091040260200160405190810160405280929190818152602001828054600181600116156101000203166002900480156107685780601f1061073d57610100808354040283529160200191610768565b820191906000526020600020905b81548152906001019060200180831161074b57829003601f168201915b5050505050815250509050919050565b600460009054906101000a900473ffffffffffffffffffffffffffffffffffffffff1673ffffffffffffffffffffffffffffffffffffffff163373ffffffffffffffffffffffffffffffffffffffff1614610808576040517f08c379a00000000000000000000000000000000000000000000000000000000081526004016107ff90611803565b60405180910390fd5b6001600660008373ffffffffffffffffffffffffffffffffffffffff1673ffffffffffffffffffffffffffffffffffffffff16815260200190815260200160002060006101000a81548160ff02191690831515021790555050565b600760003373ffffffffffffffffffffffffffffffffffffffff1673ffffffffffffffffffffffffffffffffffffffff16815260200190815260200160002060009054906101000a900460ff166108ef576040517f08c379a00000000000000000000000000000000000000000000000000000000081526004016108e6906117a3565b60405180910390fd5b600560009054906101000a900473ffffffffffffffffffffffffffffffffffffffff1673ffffffffffffffffffffffffffffffffffffffff16634dfefc4b336040518263ffffffff1660e01b815260040161094a91906116dc565b60206040518083038186803b15801561096257600080fd5b505afa158015610976573d6000803e3d6000fd5b505050506040513d601f19601f8201168201806040525081019061099a919061138c565b6109d9576040517f08c379a00000000000000000000000000000000000000000000000000000000081526004016109d0906117c3565b60405180910390fd5b6109e1611275565b60405180608001604052804281526020013373ffffffffffffffffffffffffffffffffffffffff1681526020018481526020018381525090506000600760003373ffffffffffffffffffffffffffffffffffffffff1673ffffffffffffffffffffffffffffffffffffffff16815260200190815260200160002060006101000a81548160ff0219169083151502179055506000600660003373ffffffffffffffffffffffffffffffffffffffff1673ffffffffffffffffffffffffffffffffffffffff16815260200190815260200160002060006101000a81548160ff02191690831515021790555060088190806001815401808255809150506001900390600052602060002090600402016000909190919091506000820151816000015560208201518160010160006101000a81548173ffffffffffffffffffffffffffffffffffffffff021916908373ffffffffffffffffffffffffffffffffffffffff1602179055506040820151816002019080519060200190610b639291906111f5565b506060820151816003019080519060200190610b809291906111f5565b505050505050565b600460009054906101000a900473ffffffffffffffffffffffffffffffffffffffff1681565b60066020528060005260406000206000915054906101000a900460ff1681565b6000600660003373ffffffffffffffffffffffffffffffffffffffff1673ffffffffffffffffffffffffffffffffffffffff16815260200190815260200160002060009054906101000a900460ff16610c5c576040517f08c379a0000000000000000000000000000000000000000000000000000000008152600401610c53906117e3565b60405180910390fd5b600880549050905090565b60076020528060005260406000206000915054906101000a900460ff1681565b600460009054906101000a900473ffffffffffffffffffffffffffffffffffffffff1673ffffffffffffffffffffffffffffffffffffffff163373ffffffffffffffffffffffffffffffffffffffff1614610d17576040517f08c379a0000000000000000000000000000000000000000000000000000000008152600401610d0e90611803565b60405180910390fd5b6000600660008373ffffffffffffffffffffffffffffffffffffffff1673ffffffffffffffffffffffffffffffffffffffff16815260200190815260200160002060006101000a81548160ff02191690831515021790555050565b600460009054906101000a900473ffffffffffffffffffffffffffffffffffffffff1673ffffffffffffffffffffffffffffffffffffffff163373ffffffffffffffffffffffffffffffffffffffff1614610e02576040517f08c379a0000000000000000000000000000000000000000000000000000000008152600401610df990611803565b60405180910390fd5b6001600760008373ffffffffffffffffffffffffffffffffffffffff1673ffffffffffffffffffffffffffffffffffffffff16815260200190815260200160002060006101000a81548160ff0219169083151502179055506001600660008373ffffffffffffffffffffffffffffffffffffffff1673ffffffffffffffffffffffffffffffffffffffff16815260200190815260200160002060006101000a81548160ff02191690831515021790555050565b6060806060806000600660003373ffffffffffffffffffffffffffffffffffffffff1673ffffffffffffffffffffffffffffffffffffffff16815260200190815260200160002060009054906101000a900460ff16610f49576040517f08c379a0000000000000000000000000000000000000000000000000000000008152600401610f40906117e3565b60405180910390fd5b6000600160026003600460009054906101000a900473ffffffffffffffffffffffffffffffffffffffff16848054600181600116156101000203166002900480601f0160208091040260200160405190810160405280929190818152602001828054600181600116156101000203166002900480156110095780601f10610fde57610100808354040283529160200191611009565b820191906000526020600020905b815481529060010190602001808311610fec57829003601f168201915b50505050509450838054600181600116156101000203166002900480601f0160208091040260200160405190810160405280929190818152602001828054600181600116156101000203166002900480156110a55780601f1061107a576101008083540402835291602001916110a5565b820191906000526020600020905b81548152906001019060200180831161108857829003601f168201915b50505050509350828054600181600116156101000203166002900480601f0160208091040260200160405190810160405280929190818152602001828054600181600116156101000203166002900480156111415780601f1061111657610100808354040283529160200191611141565b820191906000526020600020905b81548152906001019060200180831161112457829003601f168201915b50505050509250818054600181600116156101000203166002900480601f0160208091040260200160405190810160405280929190818152602001828054600181600116156101000203166002900480156111dd5780601f106111b2576101008083540402835291602001916111dd565b820191906000526020600020905b8154815290600101906020018083116111c057829003601f168201915b50505050509150945094509450945094509091929394565b828054600181600116156101000203166002900490600052602060002090601f016020900481019282601f1061123657805160ff1916838001178555611264565b82800160010185558215611264579182015b82811115611263578251825591602001919060010190611248565b5b50905061127191906112b3565b5090565b604051806080016040528060008152602001600073ffffffffffffffffffffffffffffffffffffffff16815260200160608152602001606081525090565b5b808211156112cc5760008160009055506001016112b4565b5090565b6000813590506112df816119b7565b92915050565b6000815190506112f4816119ce565b92915050565b600082601f83011261130b57600080fd5b813561131e6113198261188d565b611860565b9150808252602083016020830185838301111561133a57600080fd5b611345838284611964565b50505092915050565b60008135905061135d816119e5565b92915050565b60006020828403121561137557600080fd5b6000611383848285016112d0565b91505092915050565b60006020828403121561139e57600080fd5b60006113ac848285016112e5565b91505092915050565b6000602082840312156113c757600080fd5b600082013567ffffffffffffffff8111156113e157600080fd5b6113ed848285016112fa565b91505092915050565b6000806040838503121561140957600080fd5b600083013567ffffffffffffffff81111561142357600080fd5b61142f858286016112fa565b925050602083013567ffffffffffffffff81111561144c57600080fd5b611458858286016112fa565b9150509250929050565b60006020828403121561147457600080fd5b60006114828482850161134e565b91505092915050565b6114948161192e565b82525050565b6114a3816118e6565b82525050565b6114b2816118e6565b82525050565b6114c1816118f8565b82525050565b60006114d2826118b9565b6114dc81856118c4565b93506114ec818560208601611973565b6114f5816119a6565b840191505092915050565b600061150b826118b9565b61151581856118d5565b9350611525818560208601611973565b61152e816119a6565b840191505092915050565b6000611546601c836118d5565b91507f596f7520646f6e7420686176652065646974696e6720726967687473000000006000830152602082019050919050565b6000611586601f836118d5565b91507f596f7520617265206e6f742061207265676973746572656420446f63746f72006000830152602082019050919050565b60006115c6601d836118d5565b91507f596f7520646f6e277420686176652076696577696e67207269676874730000006000830152602082019050919050565b60006116066016836118d5565b91507f596f7520617265206e6f7420746865204f776e657220000000000000000000006000830152602082019050919050565b600060808301600083015161165160008601826116a3565b506020830151611664602086018261149a565b506040830151848203604086015261167c82826114c7565b9150506060830151848203606086015261169682826114c7565b9150508091505092915050565b6116ac81611924565b82525050565b6116bb81611924565b82525050565b60006020820190506116d660008301846114a9565b92915050565b60006020820190506116f1600083018461148b565b92915050565b600060208201905061170c60008301846114b8565b92915050565b6000602082019050818103600083015261172c8184611500565b905092915050565b600060a082019050818103600083015261174e8188611500565b905081810360208301526117628187611500565b905081810360408301526117768186611500565b9050818103606083015261178a8185611500565b905061179960808301846114a9565b9695505050505050565b600060208201905081810360008301526117bc81611539565b9050919050565b600060208201905081810360008301526117dc81611579565b9050919050565b600060208201905081810360008301526117fc816115b9565b9050919050565b6000602082019050818103600083015261181c816115f9565b9050919050565b6000602082019050818103600083015261183d8184611639565b905092915050565b600060208201905061185a60008301846116b2565b92915050565b6000604051905081810181811067ffffffffffffffff8211171561188357600080fd5b8060405250919050565b600067ffffffffffffffff8211156118a457600080fd5b601f19601f8301169050602081019050919050565b600081519050919050565b600082825260208201905092915050565b600082825260208201905092915050565b60006118f182611904565b9050919050565b60008115159050919050565b600073ffffffffffffffffffffffffffffffffffffffff82169050919050565b6000819050919050565b600061193982611940565b9050919050565b600061194b82611952565b9050919050565b600061195d82611904565b9050919050565b82818337600083830152505050565b60005b83811015611991578082015181840152602081019050611976565b838111156119a0576000848401525b50505050565b6000601f19601f8301169050919050565b6119c0816118e6565b81146119cb57600080fd5b50565b6119d7816118f8565b81146119e257600080fd5b50565b6119ee81611924565b81146119f957600080fd5b5056fea26469706673582212204f3d653435df9bda21b8fe314173ddd43954d0a36999fe9734e8d8c60553c25f64736f6c6343000700003360806040523480156200001157600080fd5b5060405162000e8538038062000e85833981810160405281019062000037919062000200565b84600090805190602001906200004f929190620000e7565b50836001908051906020019062000068929190620000e7565b50826002908051906020019062000081929190620000e7565b5081600460006101000a81548173ffffffffffffffffffffffffffffffffffffffff021916908373ffffffffffffffffffffffffffffffffffffffff1602179055508060039080519060200190620000db929190620000e7565b505050505050620003c5565b828054600181600116156101000203166002900490600052602060002090601f016020900481019282601f106200012a57805160ff19168380011785556200015b565b828001600101855582156200015b579182015b828111156200015a5782518255916020019190600101906200013d565b5b5090506200016a91906200016e565b5090565b5b80821115620001895760008160009055506001016200016f565b5090565b6000815190506200019e81620003ab565b92915050565b600082601f830112620001b657600080fd5b8151620001cd620001c78262000314565b620002e6565b91508082526020830160208301858383011115620001ea57600080fd5b620001f783828462000375565b50505092915050565b600080600080600060a086880312156200021957600080fd5b600086015167ffffffffffffffff8111156200023457600080fd5b6200024288828901620001a4565b955050602086015167ffffffffffffffff8111156200026057600080fd5b6200026e88828901620001a4565b945050604086015167ffffffffffffffff8111156200028c57600080fd5b6200029a88828901620001a4565b9350506060620002ad888289016200018d565b925050608086015167ffffffffffffffff811115620002cb57600080fd5b620002d988828901620001a4565b9150509295509295909350565b6000604051905081810181811067ffffffffffffffff821117156200030a57600080fd5b8060405250919050565b600067ffffffffffffffff8211156200032c57600080fd5b601f19601f8301169050602081019050919050565b60006200034e8262000355565b9050919050565b600073ffffffffffffffffffffffffffffffffffffffff82169050919050565b60005b838110156200039557808201518184015260208101905062000378565b83811115620003a5576000848401525b50505050565b620003b68162000341565b8114620003c257600080fd5b50565b610ab080620003d56000396000f3fe608060405234801561001057600080fd5b50600436106100575760003560e01c80630231192f1461005c57806306fdde031461007a578063994e659c146100985780639ea1f811146100c8578063af640d0f146100e4575b600080fd5b610064610102565b604051610071919061091c565b60405180910390f35b61008261010f565b60405161008f91906108a1565b60405180910390f35b6100b260048036038101906100ad919061076f565b6101ad565b6040516100bf91906108fa565b60405180910390f35b6100e260048036038101906100dd91906106f0565b610386565b005b6100ec6104f9565b6040516100f991906108a1565b60405180910390f35b6000600580549050905090565b60008054600181600116156101000203166002900480601f0160208091040260200160405190810160405280929190818152602001828054600181600116156101000203166002900480156101a55780601f1061017a576101008083540402835291602001916101a5565b820191906000526020600020905b81548152906001019060200180831161018857829003601f168201915b505050505081565b6101b5610597565b600582815481106101c257fe5b9060005260206000209060040201604051806080016040529081600082015481526020016001820160009054906101000a900473ffffffffffffffffffffffffffffffffffffffff1673ffffffffffffffffffffffffffffffffffffffff1673ffffffffffffffffffffffffffffffffffffffff168152602001600282018054600181600116156101000203166002900480601f0160208091040260200160405190810160405280929190818152602001828054600181600116156101000203166002900480156102d45780601f106102a9576101008083540402835291602001916102d4565b820191906000526020600020905b8154815290600101906020018083116102b757829003601f168201915b50505050508152602001600382018054600181600116156101000203166002900480601f0160208091040260200160405190810160405280929190818152602001828054600181600116156101000203166002900480156103765780601f1061034b57610100808354040283529160200191610376565b820191906000526020600020905b81548152906001019060200180831161035957829003601f168201915b5050505050815250509050919050565b60008190508073ffffffffffffffffffffffffffffffffffffffff16637a3e006685856040518363ffffffff1660e01b81526004016103c69291906108c3565b600060405180830381600087803b1580156103e057600080fd5b505af11580156103f4573d6000803e3d6000fd5b50505050610400610597565b60405180608001604052804281526020013373ffffffffffffffffffffffffffffffffffffffff16815260200186815260200185815250905060058190806001815401808255809150506001900390600052602060002090600402016000909190919091506000820151816000015560208201518160010160006101000a81548173ffffffffffffffffffffffffffffffffffffffff021916908373ffffffffffffffffffffffffffffffffffffffff16021790555060408201518160020190805190602001906104d29291906105d5565b5060608201518160030190805190602001906104ef9291906105d5565b5050505050505050565b60038054600181600116156101000203166002900480601f01602080910402602001604051908101604052809291908181526020018280546001816001161561010002031660029004801561058f5780601f106105645761010080835404028352916020019161058f565b820191906000526020600020905b81548152906001019060200180831161057257829003601f168201915b505050505081565b604051806080016040528060008152602001600073ffffffffffffffffffffffffffffffffffffffff16815260200160608152602001606081525090565b828054600181600116156101000203166002900490600052602060002090601f016020900481019282601f1061061657805160ff1916838001178555610644565b82800160010185558215610644579182015b82811115610643578251825591602001919060010190610628565b5b5090506106519190610655565b5090565b5b8082111561066e576000816000905550600101610656565b5090565b60008135905061068181610a4c565b92915050565b600082601f83011261069857600080fd5b81356106ab6106a682610964565b610937565b915080825260208301602083018583830111156106c757600080fd5b6106d28382846109f9565b50505092915050565b6000813590506106ea81610a63565b92915050565b60008060006060848603121561070557600080fd5b600084013567ffffffffffffffff81111561071f57600080fd5b61072b86828701610687565b935050602084013567ffffffffffffffff81111561074857600080fd5b61075486828701610687565b925050604061076586828701610672565b9150509250925092565b60006020828403121561078157600080fd5b600061078f848285016106db565b91505092915050565b6107a1816109bd565b82525050565b60006107b282610990565b6107bc818561099b565b93506107cc818560208601610a08565b6107d581610a3b565b840191505092915050565b60006107eb82610990565b6107f581856109ac565b9350610805818560208601610a08565b61080e81610a3b565b840191505092915050565b60006080830160008301516108316000860182610883565b5060208301516108446020860182610798565b506040830151848203604086015261085c82826107a7565b9150506060830151848203606086015261087682826107a7565b9150508091505092915050565b61088c816109ef565b82525050565b61089b816109ef565b82525050565b600060208201905081810360008301526108bb81846107e0565b905092915050565b600060408201905081810360008301526108dd81856107e0565b905081810360208301526108f181846107e0565b90509392505050565b600060208201905081810360008301526109148184610819565b905092915050565b60006020820190506109316000830184610892565b92915050565b6000604051905081810181811067ffffffffffffffff8211171561095a57600080fd5b8060405250919050565b600067ffffffffffffffff82111561097b57600080fd5b601f19601f8301169050602081019050919050565b600081519050919050565b600082825260208201905092915050565b600082825260208201905092915050565b60006109c8826109cf565b9050919050565b600073ffffffffffffffffffffffffffffffffffffffff82169050919050565b6000819050919050565b82818337600083830152505050565b60005b83811015610a26578082015181840152602081019050610a0b565b83811115610a35576000848401525b50505050565b6000601f19601f8301169050919050565b610a55816109bd565b8114610a6057600080fd5b50565b610a6c816109ef565b8114610a7757600080fd5b5056fea2646970667358221220d484b3cd2ce18452ec31de1d0506714dd9cf9f26f584f0f3264e2737e23823c364736f6c63430007000033a264697066735822122029fbb484e5bbb0877d8467a6d803bbd91c17965aaff425cf539d1a8157a82dd464736f6c63430007000033",
  "immutableReferences": {},
  "source": "// SPDX-License-Identifier: GPL-3.0\n\npragma solidity ^0.7.0;\npragma experimental ABIEncoderV2;\n\ncontract Patient {\n    // Patient basic details\n    string public name;\n    string kyc;\n    string bg;\n    string mno;\n    address public owner;\n    Admin admin;\n\n    // mapping for viewers\n    mapping(address => bool) public viewers;\n\n    // mapping for editors\n    mapping(address => bool) public editors;\n\n    // report details\n    struct record {\n        uint256 date;\n        address doctor;\n        string detail;\n        string hash;\n    }\n\n    // array to store record\n    record[] details;\n\n    constructor(\n        string memory _name,\n        string memory _kyc,\n        string memory _bg,\n        string memory _mno,\n        address _owner,\n        address _admin\n    ) {\n        // initializaing value\n        admin = Admin(_admin);\n        name = _name;\n        kyc = _kyc;\n        bg = _bg;\n        mno = _mno;\n        owner = _owner;\n        viewers[owner] = true;\n    }\n\n    // only owner modifier\n    modifier onlyOwner() {\n        // modifier for only owner\n        require(msg.sender == owner, \"You are not the Owner \");\n        _;\n    }\n\n    // only viewers modifiers\n    modifier onlyViewer() {\n        // modifier for only owner\n        require(viewers[msg.sender], \"You don't have viewing rights\");\n        _;\n    }\n\n    // only editors modifiers\n    modifier onlyEditor() {\n        // modifier for only owner\n        require(editors[msg.sender], \"You dont have editing rights\");\n        _;\n    }\n\n    // setter for mobile number , as all the other details will never change ,so ony thing owner can change is mno\n\n    function setMno(string memory _mno) public onlyOwner {\n        // checking if the stake holder is eligible of not\n        mno = _mno;\n    }\n\n    // getter for basic details\n\n    function getPatientDetails()\n        public\n        view\n        onlyViewer\n        returns (\n            string memory,\n            string memory,\n            string memory,\n            string memory,\n            address\n        )\n    {\n        return (name, kyc, bg, mno, owner);\n    }\n\n    //set permissions for viewers\n    function addViewer(address _addr) public onlyOwner {\n        viewers[_addr] = true;\n    }\n\n    //set permissions for editors\n    function addEditor(address _addr) public onlyOwner {\n        editors[_addr] = true;\n        viewers[_addr] = true;\n    }\n\n    //revoke viewing rights\n    function removeViewer(address _addr) public onlyOwner {\n        viewers[_addr] = false;\n    }\n\n    //remove permissions for editors\n    function removeEditor(address _addr) public onlyOwner {\n        editors[_addr] = false;\n        viewers[_addr] = false;\n    }\n\n    // function for addinng details and report\n\n    function addReport(string memory _detail, string memory _hash)\n        public\n        onlyEditor\n    {\n        require(admin.exist(msg.sender), \"You are not a registered Doctor\");\n\n        record memory newRecord =\n            record({\n                date: block.timestamp,\n                doctor: msg.sender,\n                detail: _detail,\n                hash: _hash\n            });\n        editors[msg.sender] = false;\n        viewers[msg.sender] = false;\n        details.push(newRecord);\n    }\n\n    // function array length\n\n    function getLength() public view onlyViewer returns (uint256) {\n        return (details.length);\n    }\n\n    // function for retriving report\n\n    function getReport(uint256 _index)\n        public\n        view\n        onlyViewer\n        returns (record memory)\n    {\n        return (details[_index]);\n    }\n}\n\n// TODO: Connection of doctor to patient is left for adding record\ncontract Doctor {\n    string public name;\n    string kyc;\n    string mno;\n    string public id;\n    address owner;\n\n    constructor(\n        string memory _name,\n        string memory _kyc,\n        string memory _mno,\n        address _owner,\n        string memory _id\n    ) {\n        //  Admin admin = Admin(msg.sender);\n        //  require(msg.sender == admin.contractAddr(),\"Only Admin contract can deploy constructor\");\n\n        // initializaing value\n        name = _name;\n        kyc = _kyc;\n        mno = _mno;\n        owner = _owner;\n        id = _id;\n    }\n\n    struct patientRecord {\n        uint256 date;\n        address patient;\n        string detail;\n        string hash;\n    }\n\n    patientRecord[] patients;\n\n    function recordLen() public view returns (uint256) {\n        return patients.length;\n    }\n\n    function pRecord(uint256 _index)\n        public\n        view\n        returns (patientRecord memory)\n    {\n        return patients[_index];\n    }\n\n    function addPatientRecord(\n        string memory _details,\n        string memory _hash,\n        address _patient\n    ) public {\n        Patient patientContract = Patient(_patient);\n        patientContract.addReport(_details, _hash);\n\n        patientRecord memory pR =\n            patientRecord({\n                date: block.timestamp,\n                patient: msg.sender,\n                detail: _details,\n                hash: _hash\n            });\n        patients.push(pR);\n    }\n}\n\ncontract Admin {\n    address[] doctorsAddress;\n    mapping(address => Doctor) doctors;\n    mapping(address => bool) public exist;\n    address public owner;\n\n    // address public contractAddr;\n\n    // function setContractAddr(address _addr) public {\n    //     contractAddr = _addr;\n    // }\n\n    constructor() {\n        owner = msg.sender;\n    }\n\n    modifier onlyOwner() {\n        // modifier for only owner\n        require(msg.sender == owner, \"You are not the Owner \");\n        _;\n    }\n\n    function addDoctor(\n        string memory _name,\n        string memory _kyc,\n        string memory _mno,\n        address _owner,\n        string memory _id\n    ) public onlyOwner returns (Doctor) {\n        Doctor newDoctor = new Doctor(_name, _kyc, _mno, _owner, _id);\n        doctorsAddress.push(_owner);\n        doctors[_owner] = newDoctor;\n        exist[address(newDoctor)] = true;\n        return newDoctor;\n    }\n\n    function addPatient(\n        string memory _name,\n        string memory _kyc,\n        string memory _bg,\n        string memory _mno,\n        address _owner\n    ) public onlyOwner returns (Patient) {\n        Patient newPatient =\n            new Patient(_name, _kyc, _bg, _mno, _owner, address(this));\n        return newPatient;\n    }\n\n    function showAddressofDoctors()\n        external\n        view\n        onlyOwner\n        returns (address[] memory)\n    {\n        return doctorsAddress;\n    }\n\n    function showDoctors(address _doc) external view returns (Doctor) {\n        return doctors[_doc];\n    }\n}\n",
  "sourcePath": "/home/sourav/Documents/Programming/Blockchain-in-healthcare/contracts/Medical.sol",
  "compiler": {
    "name": "solc",
    "version": "0.7.0+commit.9e61f92b.Emscripten.clang"
  },
  "schemaVersion": "3.3.4",
  "updatedAt": "2021-04-25T02:23:20.767Z",
  "networkType": "ethereum",
  "devdoc": {
    "kind": "dev",
    "methods": {},
    "version": 1
  },
  "userdoc": {
    "kind": "user",
    "methods": {},
    "version": 1
  }
}