{
  "contractName": "Admin",
  "abi": [
    {
      "inputs": [],
      "stateMutability": "nonpayable",
      "type": "constructor"
    },
    {
      "inputs": [
        {
          "internalType": "address",
          "name": "",
          "type": "address"
        }
      ],
      "name": "doctors",
      "outputs": [
        {
          "internalType": "address",
          "name": "",
          "type": "address"
        }
      ],
      "stateMutability": "view",
      "type": "function"
    },
    {
      "inputs": [
        {
          "internalType": "uint256",
          "name": "",
          "type": "uint256"
        }
      ],
      "name": "doctorsAddress",
      "outputs": [
        {
          "internalType": "address",
          "name": "",
          "type": "address"
        }
      ],
      "stateMutability": "view",
      "type": "function"
    },
    {
      "inputs": [
        {
          "internalType": "address",
          "name": "",
          "type": "address"
        }
      ],
      "name": "existD",
      "outputs": [
        {
          "internalType": "bool",
          "name": "",
          "type": "bool"
        }
      ],
      "stateMutability": "view",
      "type": "function"
    },
    {
      "inputs": [
        {
          "internalType": "address",
          "name": "",
          "type": "address"
        }
      ],
      "name": "existDA",
      "outputs": [
        {
          "internalType": "bool",
          "name": "",
          "type": "bool"
        }
      ],
      "stateMutability": "view",
      "type": "function"
    },
    {
      "inputs": [
        {
          "internalType": "address",
          "name": "",
          "type": "address"
        }
      ],
      "name": "existP",
      "outputs": [
        {
          "internalType": "bool",
          "name": "",
          "type": "bool"
        }
      ],
      "stateMutability": "view",
      "type": "function"
    },
    {
      "inputs": [],
      "name": "owner",
      "outputs": [
        {
          "internalType": "address",
          "name": "",
          "type": "address"
        }
      ],
      "stateMutability": "view",
      "type": "function"
    },
    {
      "inputs": [
        {
          "internalType": "address",
          "name": "",
          "type": "address"
        }
      ],
      "name": "patients",
      "outputs": [
        {
          "internalType": "address",
          "name": "",
          "type": "address"
        }
      ],
      "stateMutability": "view",
      "type": "function"
    },
    {
      "inputs": [
        {
          "internalType": "string",
          "name": "_name",
          "type": "string"
        },
        {
          "internalType": "string",
          "name": "_kyc",
          "type": "string"
        },
        {
          "internalType": "string",
          "name": "_mno",
          "type": "string"
        },
        {
          "internalType": "address",
          "name": "_owner",
          "type": "address"
        },
        {
          "internalType": "string",
          "name": "_id",
          "type": "string"
        }
      ],
      "name": "addDoctor",
      "outputs": [],
      "stateMutability": "nonpayable",
      "type": "function"
    },
    {
      "inputs": [
        {
          "internalType": "string",
          "name": "_name",
          "type": "string"
        },
        {
          "internalType": "string",
          "name": "_age",
          "type": "string"
        },
        {
          "internalType": "string",
          "name": "_kyc",
          "type": "string"
        },
        {
          "internalType": "string",
          "name": "_bg",
          "type": "string"
        },
        {
          "internalType": "string",
          "name": "_mno",
          "type": "string"
        },
        {
          "internalType": "address",
          "name": "_owner",
          "type": "address"
        }
      ],
      "name": "addPatient",
      "outputs": [],
      "stateMutability": "nonpayable",
      "type": "function"
    }
  ],
  "bytecode": "0x608060405234801561001057600080fd5b5033600660006101000a81548173ffffffffffffffffffffffffffffffffffffffff021916908373ffffffffffffffffffffffffffffffffffffffff160217905550614061806100616000396000f3fe60806040523480156200001157600080fd5b5060043610620000a05760003560e01c80638da5cb5b116200006f5780638da5cb5b146200017d57806396451c4d146200019f578063a9583c2214620001d5578063c9ac2cad146200020b578063e0682a8d146200022b57620000a0565b80630869cfbc14620000a55780630bb8e74d14620000db5780630d43c16f1462000111578063422f72681462000147575b600080fd5b620000c36004803603810190620000bd919062000966565b6200024b565b604051620000d2919062000c9e565b60405180910390f35b620000f96004803603810190620000f3919062000966565b6200027e565b60405162000108919062000cbb565b60405180910390f35b6200012f600480360381019062000129919062000966565b6200029e565b6040516200013e919062000cbb565b60405180910390f35b6200016560048036038101906200015f919062000966565b620002be565b60405162000174919062000cbb565b60405180910390f35b62000187620002de565b60405162000196919062000c9e565b60405180910390f35b620001bd6004803603810190620001b7919062000b8b565b62000304565b604051620001cc919062000c9e565b60405180910390f35b620001f36004803603810190620001ed919062000966565b62000341565b60405162000202919062000c9e565b60405180910390f35b62000229600480360381019062000223919062000992565b62000374565b005b62000249600480360381019062000243919062000a78565b62000675565b005b60026020528060005260406000206000915054906101000a900473ffffffffffffffffffffffffffffffffffffffff1681565b60046020528060005260406000206000915054906101000a900460ff1681565b60036020528060005260406000206000915054906101000a900460ff1681565b60056020528060005260406000206000915054906101000a900460ff1681565b600660009054906101000a900473ffffffffffffffffffffffffffffffffffffffff1681565b600081815481106200031257fe5b906000526020600020016000915054906101000a900473ffffffffffffffffffffffffffffffffffffffff1681565b60016020528060005260406000206000915054906101000a900473ffffffffffffffffffffffffffffffffffffffff1681565b600660009054906101000a900473ffffffffffffffffffffffffffffffffffffffff1673ffffffffffffffffffffffffffffffffffffffff163373ffffffffffffffffffffffffffffffffffffffff161462000407576040517f08c379a0000000000000000000000000000000000000000000000000000000008152600401620003fe9062000e13565b60405180910390fd5b600360008373ffffffffffffffffffffffffffffffffffffffff1673ffffffffffffffffffffffffffffffffffffffff16815260200190815260200160002060009054906101000a900460ff161562000497576040517f08c379a00000000000000000000000000000000000000000000000000000000081526004016200048e9062000df1565b60405180910390fd5b60008585858585604051620004ac90620008c0565b620004bc95949392919062000cd8565b604051809103906000f080158015620004d9573d6000803e3d6000fd5b5090506000839080600181540180825580915050600190039060005260206000200160009091909190916101000a81548173ffffffffffffffffffffffffffffffffffffffff021916908373ffffffffffffffffffffffffffffffffffffffff16021790555080600160008573ffffffffffffffffffffffffffffffffffffffff1673ffffffffffffffffffffffffffffffffffffffff16815260200190815260200160002060006101000a81548173ffffffffffffffffffffffffffffffffffffffff021916908373ffffffffffffffffffffffffffffffffffffffff1602179055506001600360008573ffffffffffffffffffffffffffffffffffffffff1673ffffffffffffffffffffffffffffffffffffffff16815260200190815260200160002060006101000a81548160ff0219169083151502179055506001600460008373ffffffffffffffffffffffffffffffffffffffff1673ffffffffffffffffffffffffffffffffffffffff16815260200190815260200160002060006101000a81548160ff021916908315150217905550505050505050565b600660009054906101000a900473ffffffffffffffffffffffffffffffffffffffff1673ffffffffffffffffffffffffffffffffffffffff163373ffffffffffffffffffffffffffffffffffffffff161462000708576040517f08c379a0000000000000000000000000000000000000000000000000000000008152600401620006ff9062000e13565b60405180910390fd5b600560008273ffffffffffffffffffffffffffffffffffffffff1673ffffffffffffffffffffffffffffffffffffffff16815260200190815260200160002060009054906101000a900460ff161562000798576040517f08c379a00000000000000000000000000000000000000000000000000000000081526004016200078f9062000df1565b60405180910390fd5b600086868686868630604051620007af90620008ce565b620007c1979695949392919062000d51565b604051809103906000f080158015620007de573d6000803e3d6000fd5b50905080600260008473ffffffffffffffffffffffffffffffffffffffff1673ffffffffffffffffffffffffffffffffffffffff16815260200190815260200160002060006101000a81548173ffffffffffffffffffffffffffffffffffffffff021916908373ffffffffffffffffffffffffffffffffffffffff1602179055506001600560008473ffffffffffffffffffffffffffffffffffffffff1673ffffffffffffffffffffffffffffffffffffffff16815260200190815260200160002060006101000a81548160ff02191690831515021790555050505050505050565b610fd58062000f8183390190565b6120d68062001f5683390190565b600081359050620008ed8162000f4c565b92915050565b600082601f8301126200090557600080fd5b81356200091c620009168262000e63565b62000e35565b915080825260208301602083018583830111156200093957600080fd5b6200094683828462000ef6565b50505092915050565b600081359050620009608162000f66565b92915050565b6000602082840312156200097957600080fd5b60006200098984828501620008dc565b91505092915050565b600080600080600060a08688031215620009ab57600080fd5b600086013567ffffffffffffffff811115620009c657600080fd5b620009d488828901620008f3565b955050602086013567ffffffffffffffff811115620009f257600080fd5b62000a0088828901620008f3565b945050604086013567ffffffffffffffff81111562000a1e57600080fd5b62000a2c88828901620008f3565b935050606062000a3f88828901620008dc565b925050608086013567ffffffffffffffff81111562000a5d57600080fd5b62000a6b88828901620008f3565b9150509295509295909350565b60008060008060008060c0878903121562000a9257600080fd5b600087013567ffffffffffffffff81111562000aad57600080fd5b62000abb89828a01620008f3565b965050602087013567ffffffffffffffff81111562000ad957600080fd5b62000ae789828a01620008f3565b955050604087013567ffffffffffffffff81111562000b0557600080fd5b62000b1389828a01620008f3565b945050606087013567ffffffffffffffff81111562000b3157600080fd5b62000b3f89828a01620008f3565b935050608087013567ffffffffffffffff81111562000b5d57600080fd5b62000b6b89828a01620008f3565b92505060a062000b7e89828a01620008dc565b9150509295509295509295565b60006020828403121562000b9e57600080fd5b600062000bae848285016200094f565b91505092915050565b62000bc28162000eac565b82525050565b62000bd38162000ec0565b82525050565b600062000be68262000e90565b62000bf2818562000e9b565b935062000c0481856020860162000f05565b62000c0f8162000f3b565b840191505092915050565b600062000c2960158362000e9b565b91507f4163636f756e7420416c726561647920457869787400000000000000000000006000830152602082019050919050565b600062000c6b60168362000e9b565b91507f596f7520617265206e6f7420746865204f776e657220000000000000000000006000830152602082019050919050565b600060208201905062000cb5600083018462000bb7565b92915050565b600060208201905062000cd2600083018462000bc8565b92915050565b600060a082019050818103600083015262000cf4818862000bd9565b9050818103602083015262000d0a818762000bd9565b9050818103604083015262000d20818662000bd9565b905062000d31606083018562000bb7565b818103608083015262000d45818462000bd9565b90509695505050505050565b600060e082019050818103600083015262000d6d818a62000bd9565b9050818103602083015262000d83818962000bd9565b9050818103604083015262000d99818862000bd9565b9050818103606083015262000daf818762000bd9565b9050818103608083015262000dc5818662000bd9565b905062000dd660a083018562000bb7565b62000de560c083018462000bb7565b98975050505050505050565b6000602082019050818103600083015262000e0c8162000c1a565b9050919050565b6000602082019050818103600083015262000e2e8162000c5c565b9050919050565b6000604051905081810181811067ffffffffffffffff8211171562000e5957600080fd5b8060405250919050565b600067ffffffffffffffff82111562000e7b57600080fd5b601f19601f8301169050602081019050919050565b600081519050919050565b600082825260208201905092915050565b600062000eb98262000ecc565b9050919050565b60008115159050919050565b600073ffffffffffffffffffffffffffffffffffffffff82169050919050565b6000819050919050565b82818337600083830152505050565b60005b8381101562000f2557808201518184015260208101905062000f08565b8381111562000f35576000848401525b50505050565b6000601f19601f8301169050919050565b62000f578162000eac565b811462000f6357600080fd5b50565b62000f718162000eec565b811462000f7d57600080fd5b5056fe60806040523480156200001157600080fd5b5060405162000fd538038062000fd5833981810160405281019062000037919062000200565b84600090805190602001906200004f929190620000e7565b50836001908051906020019062000068929190620000e7565b50826002908051906020019062000081929190620000e7565b5081600460006101000a81548173ffffffffffffffffffffffffffffffffffffffff021916908373ffffffffffffffffffffffffffffffffffffffff1602179055508060039080519060200190620000db929190620000e7565b505050505050620003c5565b828054600181600116156101000203166002900490600052602060002090601f016020900481019282601f106200012a57805160ff19168380011785556200015b565b828001600101855582156200015b579182015b828111156200015a5782518255916020019190600101906200013d565b5b5090506200016a91906200016e565b5090565b5b80821115620001895760008160009055506001016200016f565b5090565b6000815190506200019e81620003ab565b92915050565b600082601f830112620001b657600080fd5b8151620001cd620001c78262000314565b620002e6565b91508082526020830160208301858383011115620001ea57600080fd5b620001f783828462000375565b50505092915050565b600080600080600060a086880312156200021957600080fd5b600086015167ffffffffffffffff8111156200023457600080fd5b6200024288828901620001a4565b955050602086015167ffffffffffffffff8111156200026057600080fd5b6200026e88828901620001a4565b945050604086015167ffffffffffffffff8111156200028c57600080fd5b6200029a88828901620001a4565b9350506060620002ad888289016200018d565b925050608086015167ffffffffffffffff811115620002cb57600080fd5b620002d988828901620001a4565b9150509295509295909350565b6000604051905081810181811067ffffffffffffffff821117156200030a57600080fd5b8060405250919050565b600067ffffffffffffffff8211156200032c57600080fd5b601f19601f8301169050602081019050919050565b60006200034e8262000355565b9050919050565b600073ffffffffffffffffffffffffffffffffffffffff82169050919050565b60005b838110156200039557808201518184015260208101905062000378565b83811115620003a5576000848401525b50505050565b620003b68162000341565b8114620003c257600080fd5b50565b610c0080620003d56000396000f3fe608060405234801561001057600080fd5b506004361061007d5760003560e01c8063994e659c1161005b578063994e659c146100dc5780639ea1f8111461010c578063af640d0f14610128578063e45ab9c4146101465761007d565b80630231192f1461008257806306fdde03146100a05780638da5cb5b146100be575b600080fd5b61008a610164565b6040516100979190610a6c565b60405180910390f35b6100a8610171565b6040516100b591906109f1565b60405180910390f35b6100c661020f565b6040516100d391906109d6565b60405180910390f35b6100f660048036038101906100f19190610895565b610235565b6040516101039190610a4a565b60405180910390f35b61012660048036038101906101219190610816565b61040e565b005b610130610581565b60405161013d91906109f1565b60405180910390f35b61014e61061f565b60405161015b91906109f1565b60405180910390f35b6000600580549050905090565b60008054600181600116156101000203166002900480601f0160208091040260200160405190810160405280929190818152602001828054600181600116156101000203166002900480156102075780601f106101dc57610100808354040283529160200191610207565b820191906000526020600020905b8154815290600101906020018083116101ea57829003601f168201915b505050505081565b600460009054906101000a900473ffffffffffffffffffffffffffffffffffffffff1681565b61023d6106bd565b6005828154811061024a57fe5b9060005260206000209060040201604051806080016040529081600082015481526020016001820160009054906101000a900473ffffffffffffffffffffffffffffffffffffffff1673ffffffffffffffffffffffffffffffffffffffff1673ffffffffffffffffffffffffffffffffffffffff168152602001600282018054600181600116156101000203166002900480601f01602080910402602001604051908101604052809291908181526020018280546001816001161561010002031660029004801561035c5780601f106103315761010080835404028352916020019161035c565b820191906000526020600020905b81548152906001019060200180831161033f57829003601f168201915b50505050508152602001600382018054600181600116156101000203166002900480601f0160208091040260200160405190810160405280929190818152602001828054600181600116156101000203166002900480156103fe5780601f106103d3576101008083540402835291602001916103fe565b820191906000526020600020905b8154815290600101906020018083116103e157829003601f168201915b5050505050815250509050919050565b60008190508073ffffffffffffffffffffffffffffffffffffffff16637a3e006685856040518363ffffffff1660e01b815260040161044e929190610a13565b600060405180830381600087803b15801561046857600080fd5b505af115801561047c573d6000803e3d6000fd5b505050506104886106bd565b60405180608001604052804281526020018473ffffffffffffffffffffffffffffffffffffffff16815260200186815260200185815250905060058190806001815401808255809150506001900390600052602060002090600402016000909190919091506000820151816000015560208201518160010160006101000a81548173ffffffffffffffffffffffffffffffffffffffff021916908373ffffffffffffffffffffffffffffffffffffffff160217905550604082015181600201908051906020019061055a9291906106fb565b5060608201518160030190805190602001906105779291906106fb565b5050505050505050565b60038054600181600116156101000203166002900480601f0160208091040260200160405190810160405280929190818152602001828054600181600116156101000203166002900480156106175780601f106105ec57610100808354040283529160200191610617565b820191906000526020600020905b8154815290600101906020018083116105fa57829003601f168201915b505050505081565b60028054600181600116156101000203166002900480601f0160208091040260200160405190810160405280929190818152602001828054600181600116156101000203166002900480156106b55780601f1061068a576101008083540402835291602001916106b5565b820191906000526020600020905b81548152906001019060200180831161069857829003601f168201915b505050505081565b604051806080016040528060008152602001600073ffffffffffffffffffffffffffffffffffffffff16815260200160608152602001606081525090565b828054600181600116156101000203166002900490600052602060002090601f016020900481019282601f1061073c57805160ff191683800117855561076a565b8280016001018555821561076a579182015b8281111561076957825182559160200191906001019061074e565b5b509050610777919061077b565b5090565b5b8082111561079457600081600090555060010161077c565b5090565b6000813590506107a781610b9c565b92915050565b600082601f8301126107be57600080fd5b81356107d16107cc82610ab4565b610a87565b915080825260208301602083018583830111156107ed57600080fd5b6107f8838284610b49565b50505092915050565b60008135905061081081610bb3565b92915050565b60008060006060848603121561082b57600080fd5b600084013567ffffffffffffffff81111561084557600080fd5b610851868287016107ad565b935050602084013567ffffffffffffffff81111561086e57600080fd5b61087a868287016107ad565b925050604061088b86828701610798565b9150509250925092565b6000602082840312156108a757600080fd5b60006108b584828501610801565b91505092915050565b6108c781610b0d565b82525050565b6108d681610b0d565b82525050565b60006108e782610ae0565b6108f18185610aeb565b9350610901818560208601610b58565b61090a81610b8b565b840191505092915050565b600061092082610ae0565b61092a8185610afc565b935061093a818560208601610b58565b61094381610b8b565b840191505092915050565b600060808301600083015161096660008601826109b8565b50602083015161097960208601826108be565b506040830151848203604086015261099182826108dc565b915050606083015184820360608601526109ab82826108dc565b9150508091505092915050565b6109c181610b3f565b82525050565b6109d081610b3f565b82525050565b60006020820190506109eb60008301846108cd565b92915050565b60006020820190508181036000830152610a0b8184610915565b905092915050565b60006040820190508181036000830152610a2d8185610915565b90508181036020830152610a418184610915565b90509392505050565b60006020820190508181036000830152610a64818461094e565b905092915050565b6000602082019050610a8160008301846109c7565b92915050565b6000604051905081810181811067ffffffffffffffff82111715610aaa57600080fd5b8060405250919050565b600067ffffffffffffffff821115610acb57600080fd5b601f19601f8301169050602081019050919050565b600081519050919050565b600082825260208201905092915050565b600082825260208201905092915050565b6000610b1882610b1f565b9050919050565b600073ffffffffffffffffffffffffffffffffffffffff82169050919050565b6000819050919050565b82818337600083830152505050565b60005b83811015610b76578082015181840152602081019050610b5b565b83811115610b85576000848401525b50505050565b6000601f19601f8301169050919050565b610ba581610b0d565b8114610bb057600080fd5b50565b610bbc81610b3f565b8114610bc757600080fd5b5056fea264697066735822122008e08e7ff9b693ca6772b401934f4be29f62783a4973670fe37f58cb1086f12464736f6c6343000700003360806040523480156200001157600080fd5b50604051620020d6380380620020d68339818101604052810190620000379190620002d6565b80600660006101000a81548173ffffffffffffffffffffffffffffffffffffffff021916908373ffffffffffffffffffffffffffffffffffffffff160217905550866000908051906020019062000090929190620001bd565b508460029080519060200190620000a9929190620001bd565b508360039080519060200190620000c2929190620001bd565b508260049080519060200190620000db929190620001bd565b5081600560006101000a81548173ffffffffffffffffffffffffffffffffffffffff021916908373ffffffffffffffffffffffffffffffffffffffff160217905550856001908051906020019062000135929190620001bd565b50600160076000600560009054906101000a900473ffffffffffffffffffffffffffffffffffffffff1673ffffffffffffffffffffffffffffffffffffffff1673ffffffffffffffffffffffffffffffffffffffff16815260200190815260200160002060006101000a81548160ff02191690831515021790555050505050505050620004df565b828054600181600116156101000203166002900490600052602060002090601f016020900481019282601f106200020057805160ff191683800117855562000231565b8280016001018555821562000231579182015b828111156200023057825182559160200191906001019062000213565b5b50905062000240919062000244565b5090565b5b808211156200025f57600081600090555060010162000245565b5090565b6000815190506200027481620004c5565b92915050565b600082601f8301126200028c57600080fd5b8151620002a36200029d826200042e565b62000400565b91508082526020830160208301858383011115620002c057600080fd5b620002cd8382846200048f565b50505092915050565b600080600080600080600060e0888a031215620002f257600080fd5b600088015167ffffffffffffffff8111156200030d57600080fd5b6200031b8a828b016200027a565b975050602088015167ffffffffffffffff8111156200033957600080fd5b620003478a828b016200027a565b965050604088015167ffffffffffffffff8111156200036557600080fd5b620003738a828b016200027a565b955050606088015167ffffffffffffffff8111156200039157600080fd5b6200039f8a828b016200027a565b945050608088015167ffffffffffffffff811115620003bd57600080fd5b620003cb8a828b016200027a565b93505060a0620003de8a828b0162000263565b92505060c0620003f18a828b0162000263565b91505092959891949750929550565b6000604051905081810181811067ffffffffffffffff821117156200042457600080fd5b8060405250919050565b600067ffffffffffffffff8211156200044657600080fd5b601f19601f8301169050602081019050919050565b600062000468826200046f565b9050919050565b600073ffffffffffffffffffffffffffffffffffffffff82169050919050565b60005b83811015620004af57808201518184015260208101905062000492565b83811115620004bf576000848401525b50505050565b620004d0816200045b565b8114620004dc57600080fd5b50565b611be780620004ef6000396000f3fe608060405234801561001057600080fd5b50600436106101005760003560e01c8063a69439aa11610097578063d1d9891411610066578063d1d989141461029b578063e45ab9c4146102b7578063e5975bdc146102d5578063f2f4adae146102f157610100565b8063a69439aa146101ff578063b08bc8a51461022f578063be1c766b1461024d578063cd52844d1461026b57610100565b80634e7f9b19116100d35780634e7f9b1914610179578063601f8cf5146101a95780637a3e0066146101c55780638da5cb5b146101e157610100565b806306fdde031461010557806308e381cf14610123578063262a9dff1461013f5780632d55feaf1461015d575b600080fd5b61010d610313565b60405161011a91906118c7565b60405180910390f35b61013d6004803603810190610138919061156a565b6103b1565b005b61014761045b565b60405161015491906118c7565b60405180910390f35b61017760048036038101906101729190611518565b6104f9565b005b610193600480360381019061018e9190611617565b6105e4565b6040516101a091906119d8565b60405180910390f35b6101c360048036038101906101be9190611518565b610849565b005b6101df60048036038101906101da91906115ab565b610934565b005b6101e9610c59565b6040516101f69190611876565b60405180910390f35b61021960048036038101906102149190611518565b610c7f565b60405161022691906118ac565b60405180910390f35b610237610c9f565b60405161024491906118c7565b60405180910390f35b610255610d3d565b60405161026291906119fa565b60405180910390f35b61028560048036038101906102809190611518565b610dd6565b60405161029291906118ac565b60405180910390f35b6102b560048036038101906102b09190611518565b610df6565b005b6102bf610ee1565b6040516102cc91906118c7565b60405180910390f35b6102ef60048036038101906102ea9190611518565b610f7f565b005b6102f961106a565b60405161030a9594939291906118e9565b60405180910390f35b60008054600181600116156101000203166002900480601f0160208091040260200160405190810160405280929190818152602001828054600181600116156101000203166002900480156103a95780601f1061037e576101008083540402835291602001916103a9565b820191906000526020600020905b81548152906001019060200180831161038c57829003601f168201915b505050505081565b600560009054906101000a900473ffffffffffffffffffffffffffffffffffffffff1673ffffffffffffffffffffffffffffffffffffffff163373ffffffffffffffffffffffffffffffffffffffff1614610441576040517f08c379a0000000000000000000000000000000000000000000000000000000008152600401610438906119b8565b60405180910390fd5b80600490805190602001906104579291906113aa565b5050565b60018054600181600116156101000203166002900480601f0160208091040260200160405190810160405280929190818152602001828054600181600116156101000203166002900480156104f15780601f106104c6576101008083540402835291602001916104f1565b820191906000526020600020905b8154815290600101906020018083116104d457829003601f168201915b505050505081565b600560009054906101000a900473ffffffffffffffffffffffffffffffffffffffff1673ffffffffffffffffffffffffffffffffffffffff163373ffffffffffffffffffffffffffffffffffffffff1614610589576040517f08c379a0000000000000000000000000000000000000000000000000000000008152600401610580906119b8565b60405180910390fd5b6000600860008373ffffffffffffffffffffffffffffffffffffffff1673ffffffffffffffffffffffffffffffffffffffff16815260200190815260200160002060006101000a81548160ff02191690831515021790555050565b6105ec61142a565b600760003373ffffffffffffffffffffffffffffffffffffffff1673ffffffffffffffffffffffffffffffffffffffff16815260200190815260200160002060009054906101000a900460ff16610678576040517f08c379a000000000000000000000000000000000000000000000000000000000815260040161066f90611998565b60405180910390fd5b6009828154811061068557fe5b9060005260206000209060040201604051806080016040529081600082015481526020016001820160009054906101000a900473ffffffffffffffffffffffffffffffffffffffff1673ffffffffffffffffffffffffffffffffffffffff1673ffffffffffffffffffffffffffffffffffffffff168152602001600282018054600181600116156101000203166002900480601f0160208091040260200160405190810160405280929190818152602001828054600181600116156101000203166002900480156107975780601f1061076c57610100808354040283529160200191610797565b820191906000526020600020905b81548152906001019060200180831161077a57829003601f168201915b50505050508152602001600382018054600181600116156101000203166002900480601f0160208091040260200160405190810160405280929190818152602001828054600181600116156101000203166002900480156108395780601f1061080e57610100808354040283529160200191610839565b820191906000526020600020905b81548152906001019060200180831161081c57829003601f168201915b5050505050815250509050919050565b600560009054906101000a900473ffffffffffffffffffffffffffffffffffffffff1673ffffffffffffffffffffffffffffffffffffffff163373ffffffffffffffffffffffffffffffffffffffff16146108d9576040517f08c379a00000000000000000000000000000000000000000000000000000000081526004016108d0906119b8565b60405180910390fd5b6001600760008373ffffffffffffffffffffffffffffffffffffffff1673ffffffffffffffffffffffffffffffffffffffff16815260200190815260200160002060006101000a81548160ff02191690831515021790555050565b600860003373ffffffffffffffffffffffffffffffffffffffff1673ffffffffffffffffffffffffffffffffffffffff16815260200190815260200160002060009054906101000a900460ff166109c0576040517f08c379a00000000000000000000000000000000000000000000000000000000081526004016109b790611958565b60405180910390fd5b600660009054906101000a900473ffffffffffffffffffffffffffffffffffffffff1673ffffffffffffffffffffffffffffffffffffffff16630bb8e74d336040518263ffffffff1660e01b8152600401610a1b9190611891565b60206040518083038186803b158015610a3357600080fd5b505afa158015610a47573d6000803e3d6000fd5b505050506040513d601f19601f82011682018060405250810190610a6b9190611541565b610aaa576040517f08c379a0000000000000000000000000000000000000000000000000000000008152600401610aa190611978565b60405180910390fd5b610ab261142a565b60405180608001604052804281526020013373ffffffffffffffffffffffffffffffffffffffff1681526020018481526020018381525090506000600860003373ffffffffffffffffffffffffffffffffffffffff1673ffffffffffffffffffffffffffffffffffffffff16815260200190815260200160002060006101000a81548160ff0219169083151502179055506000600760003373ffffffffffffffffffffffffffffffffffffffff1673ffffffffffffffffffffffffffffffffffffffff16815260200190815260200160002060006101000a81548160ff02191690831515021790555060098190806001815401808255809150506001900390600052602060002090600402016000909190919091506000820151816000015560208201518160010160006101000a81548173ffffffffffffffffffffffffffffffffffffffff021916908373ffffffffffffffffffffffffffffffffffffffff1602179055506040820151816002019080519060200190610c349291906113aa565b506060820151816003019080519060200190610c519291906113aa565b505050505050565b600560009054906101000a900473ffffffffffffffffffffffffffffffffffffffff1681565b60076020528060005260406000206000915054906101000a900460ff1681565b60038054600181600116156101000203166002900480601f016020809104026020016040519081016040528092919081815260200182805460018160011615610100020316600290048015610d355780601f10610d0a57610100808354040283529160200191610d35565b820191906000526020600020905b815481529060010190602001808311610d1857829003601f168201915b505050505081565b6000600760003373ffffffffffffffffffffffffffffffffffffffff1673ffffffffffffffffffffffffffffffffffffffff16815260200190815260200160002060009054906101000a900460ff16610dcb576040517f08c379a0000000000000000000000000000000000000000000000000000000008152600401610dc290611998565b60405180910390fd5b600980549050905090565b60086020528060005260406000206000915054906101000a900460ff1681565b600560009054906101000a900473ffffffffffffffffffffffffffffffffffffffff1673ffffffffffffffffffffffffffffffffffffffff163373ffffffffffffffffffffffffffffffffffffffff1614610e86576040517f08c379a0000000000000000000000000000000000000000000000000000000008152600401610e7d906119b8565b60405180910390fd5b6000600760008373ffffffffffffffffffffffffffffffffffffffff1673ffffffffffffffffffffffffffffffffffffffff16815260200190815260200160002060006101000a81548160ff02191690831515021790555050565b60048054600181600116156101000203166002900480601f016020809104026020016040519081016040528092919081815260200182805460018160011615610100020316600290048015610f775780601f10610f4c57610100808354040283529160200191610f77565b820191906000526020600020905b815481529060010190602001808311610f5a57829003601f168201915b505050505081565b600560009054906101000a900473ffffffffffffffffffffffffffffffffffffffff1673ffffffffffffffffffffffffffffffffffffffff163373ffffffffffffffffffffffffffffffffffffffff161461100f576040517f08c379a0000000000000000000000000000000000000000000000000000000008152600401611006906119b8565b60405180910390fd5b6001600860008373ffffffffffffffffffffffffffffffffffffffff1673ffffffffffffffffffffffffffffffffffffffff16815260200190815260200160002060006101000a81548160ff02191690831515021790555050565b6060806060806000600760003373ffffffffffffffffffffffffffffffffffffffff1673ffffffffffffffffffffffffffffffffffffffff16815260200190815260200160002060009054906101000a900460ff166110fe576040517f08c379a00000000000000000000000000000000000000000000000000000000081526004016110f590611998565b60405180910390fd5b6000600260036004600560009054906101000a900473ffffffffffffffffffffffffffffffffffffffff16848054600181600116156101000203166002900480601f0160208091040260200160405190810160405280929190818152602001828054600181600116156101000203166002900480156111be5780601f10611193576101008083540402835291602001916111be565b820191906000526020600020905b8154815290600101906020018083116111a157829003601f168201915b50505050509450838054600181600116156101000203166002900480601f01602080910402602001604051908101604052809291908181526020018280546001816001161561010002031660029004801561125a5780601f1061122f5761010080835404028352916020019161125a565b820191906000526020600020905b81548152906001019060200180831161123d57829003601f168201915b50505050509350828054600181600116156101000203166002900480601f0160208091040260200160405190810160405280929190818152602001828054600181600116156101000203166002900480156112f65780601f106112cb576101008083540402835291602001916112f6565b820191906000526020600020905b8154815290600101906020018083116112d957829003601f168201915b50505050509250818054600181600116156101000203166002900480601f0160208091040260200160405190810160405280929190818152602001828054600181600116156101000203166002900480156113925780601f1061136757610100808354040283529160200191611392565b820191906000526020600020905b81548152906001019060200180831161137557829003601f168201915b50505050509150945094509450945094509091929394565b828054600181600116156101000203166002900490600052602060002090601f016020900481019282601f106113eb57805160ff1916838001178555611419565b82800160010185558215611419579182015b828111156114185782518255916020019190600101906113fd565b5b5090506114269190611468565b5090565b604051806080016040528060008152602001600073ffffffffffffffffffffffffffffffffffffffff16815260200160608152602001606081525090565b5b80821115611481576000816000905550600101611469565b5090565b60008135905061149481611b6c565b92915050565b6000815190506114a981611b83565b92915050565b600082601f8301126114c057600080fd5b81356114d36114ce82611a42565b611a15565b915080825260208301602083018583830111156114ef57600080fd5b6114fa838284611b19565b50505092915050565b60008135905061151281611b9a565b92915050565b60006020828403121561152a57600080fd5b600061153884828501611485565b91505092915050565b60006020828403121561155357600080fd5b60006115618482850161149a565b91505092915050565b60006020828403121561157c57600080fd5b600082013567ffffffffffffffff81111561159657600080fd5b6115a2848285016114af565b91505092915050565b600080604083850312156115be57600080fd5b600083013567ffffffffffffffff8111156115d857600080fd5b6115e4858286016114af565b925050602083013567ffffffffffffffff81111561160157600080fd5b61160d858286016114af565b9150509250929050565b60006020828403121561162957600080fd5b600061163784828501611503565b91505092915050565b61164981611ae3565b82525050565b61165881611a9b565b82525050565b61166781611a9b565b82525050565b61167681611aad565b82525050565b600061168782611a6e565b6116918185611a79565b93506116a1818560208601611b28565b6116aa81611b5b565b840191505092915050565b60006116c082611a6e565b6116ca8185611a8a565b93506116da818560208601611b28565b6116e381611b5b565b840191505092915050565b60006116fb601c83611a8a565b91507f596f7520646f6e7420686176652065646974696e6720726967687473000000006000830152602082019050919050565b600061173b601f83611a8a565b91507f596f7520617265206e6f742061207265676973746572656420446f63746f72006000830152602082019050919050565b600061177b601d83611a8a565b91507f596f7520646f6e277420686176652076696577696e67207269676874730000006000830152602082019050919050565b60006117bb601683611a8a565b91507f596f7520617265206e6f7420746865204f776e657220000000000000000000006000830152602082019050919050565b60006080830160008301516118066000860182611858565b506020830151611819602086018261164f565b5060408301518482036040860152611831828261167c565b9150506060830151848203606086015261184b828261167c565b9150508091505092915050565b61186181611ad9565b82525050565b61187081611ad9565b82525050565b600060208201905061188b600083018461165e565b92915050565b60006020820190506118a66000830184611640565b92915050565b60006020820190506118c1600083018461166d565b92915050565b600060208201905081810360008301526118e181846116b5565b905092915050565b600060a082019050818103600083015261190381886116b5565b9050818103602083015261191781876116b5565b9050818103604083015261192b81866116b5565b9050818103606083015261193f81856116b5565b905061194e608083018461165e565b9695505050505050565b60006020820190508181036000830152611971816116ee565b9050919050565b600060208201905081810360008301526119918161172e565b9050919050565b600060208201905081810360008301526119b18161176e565b9050919050565b600060208201905081810360008301526119d1816117ae565b9050919050565b600060208201905081810360008301526119f281846117ee565b905092915050565b6000602082019050611a0f6000830184611867565b92915050565b6000604051905081810181811067ffffffffffffffff82111715611a3857600080fd5b8060405250919050565b600067ffffffffffffffff821115611a5957600080fd5b601f19601f8301169050602081019050919050565b600081519050919050565b600082825260208201905092915050565b600082825260208201905092915050565b6000611aa682611ab9565b9050919050565b60008115159050919050565b600073ffffffffffffffffffffffffffffffffffffffff82169050919050565b6000819050919050565b6000611aee82611af5565b9050919050565b6000611b0082611b07565b9050919050565b6000611b1282611ab9565b9050919050565b82818337600083830152505050565b60005b83811015611b46578082015181840152602081019050611b2b565b83811115611b55576000848401525b50505050565b6000601f19601f8301169050919050565b611b7581611a9b565b8114611b8057600080fd5b50565b611b8c81611aad565b8114611b9757600080fd5b50565b611ba381611ad9565b8114611bae57600080fd5b5056fea26469706673582212209743f1e5f8486d3b8229671f5a95cde8e77ec633bba59280382ddbef8bdb346664736f6c63430007000033a2646970667358221220f312254d90aafadc990ae66eb28b750c3f52bbb548b518e35c1c2adb5523b43164736f6c63430007000033",
  "immutableReferences": {},
  "source": "// // SPDX-License-Identifier: GPL-3.0\n\n// pragma solidity ^0.7.0;\n// pragma experimental ABIEncoderV2;\n\n// contract Patient {\n//     // Patient basic details\n//     string public name;\n//     string kyc;\n//     string bg;\n//     string mno;\n//     address public owner;\n//     Admin admin;\n\n//     // mapping for viewers\n//     mapping(address => bool) public viewers;\n\n//     // mapping for editors\n//     mapping(address => bool) public editors;\n\n//     // report details\n//     struct record {\n//         uint256 date;\n//         address doctor;\n//         string detail;\n//         string hash;\n//     }\n\n//     // array to store record\n//     record[] details;\n\n//     constructor(\n//         string memory _name,\n//         string memory _kyc,\n//         string memory _bg,\n//         string memory _mno,\n//         address _owner,\n//         address _admin\n//     ) {\n//         // initializaing value\n//         admin = Admin(_admin);\n//         name = _name;\n//         kyc = _kyc;\n//         bg = _bg;\n//         mno = _mno;\n//         owner = _owner;\n//         viewers[owner] = true;\n//     }\n\n//     // only owner modifier\n//     modifier onlyOwner() {\n//         // modifier for only owner\n//         require(msg.sender == owner, \"You are not the Owner \");\n//         _;\n//     }\n\n//     // only viewers modifiers\n//     modifier onlyViewer() {\n//         // modifier for only owner\n//         require(viewers[msg.sender], \"You don't have viewing rights\");\n//         _;\n//     }\n\n//     // only editors modifiers\n//     modifier onlyEditor() {\n//         // modifier for only owner\n//         require(editors[msg.sender], \"You dont have editing rights\");\n//         _;\n//     }\n\n//     // setter for mobile number , as all the other details will never change ,so ony thing owner can change is mno\n\n//     function setMno(string memory _mno) public onlyOwner {\n//         // checking if the stake holder is eligible of not\n//         mno = _mno;\n//     }\n\n//     // getter for basic details\n\n//     function getPatientDetails()\n//         public\n//         view\n//         onlyViewer\n//         returns (\n//             string memory,\n//             string memory,\n//             string memory,\n//             string memory,\n//             address\n//         )\n//     {\n//         return (name, kyc, bg, mno, owner);\n//     }\n\n//     //set permissions for viewers\n//     function addViewer(address _addr) public onlyOwner {\n//         viewers[_addr] = true;\n//     }\n\n//     //set permissions for editors\n//     function addEditor(address _addr) public onlyOwner {\n//         editors[_addr] = true;\n//         viewers[_addr] = true;\n//     }\n\n//     //revoke viewing rights\n//     function removeViewer(address _addr) public onlyOwner {\n//         viewers[_addr] = false;\n//     }\n\n//     //remove permissions for editors\n//     function removeEditor(address _addr) public onlyOwner {\n//         editors[_addr] = false;\n//         viewers[_addr] = false;\n//     }\n\n//     // function for addinng details and report\n\n//     function addReport(string memory _detail, string memory _hash)\n//         public\n//         onlyEditor\n//     {\n//         require(admin.exist(msg.sender), \"You are not a registered Doctor\");\n\n//         record memory newRecord =\n//             record({\n//                 date: block.timestamp,\n//                 doctor: msg.sender,\n//                 detail: _detail,\n//                 hash: _hash\n//             });\n//         editors[msg.sender] = false;\n//         viewers[msg.sender] = false;\n//         details.push(newRecord);\n//     }\n\n//     // function array length\n\n//     function getLength() public view onlyViewer returns (uint256) {\n//         return (details.length);\n//     }\n\n//     // function for retriving report\n\n//     function getReport(uint256 _index)\n//         public\n//         view\n//         onlyViewer\n//         returns (record memory)\n//     {\n//         return (details[_index]);\n//     }\n// }\n\n// // TODO: Connection of doctor to patient is left for adding record\n// contract Doctor {\n//     string public name;\n//     string kyc;\n//     string public mno;\n//     string public id;\n//     address owner;\n\n//     constructor(\n//         string memory _name,\n//         string memory _kyc,\n//         string memory _mno,\n//         address _owner,\n//         string memory _id\n//     ) {\n//         //  Admin admin = Admin(msg.sender);\n//         //  require(msg.sender == admin.contractAddr(),\"Only Admin contract can deploy constructor\");\n\n//         // initializaing value\n//         name = _name;\n//         kyc = _kyc;\n//         mno = _mno;\n//         owner = _owner;\n//         id = _id;\n//     }\n\n//     struct patientRecord {\n//         uint256 date;\n//         address patient;\n//         string detail;\n//         string hash;\n//     }\n\n//     patientRecord[] patients;\n\n//     function recordLen() public view returns (uint256) {\n//         return patients.length;\n//     }\n\n//     function pRecord(uint256 _index)\n//         public\n//         view\n//         returns (patientRecord memory)\n//     {\n//         return patients[_index];\n//     }\n\n//     function addPatientRecord(\n//         string memory _details,\n//         string memory _hash,\n//         address _patient\n//     ) public {\n//         Patient patientContract = Patient(_patient);\n//         patientContract.addReport(_details, _hash);\n\n//         patientRecord memory pR =\n//             patientRecord({\n//                 date: block.timestamp,\n//                 patient: msg.sender,\n//                 detail: _details,\n//                 hash: _hash\n//             });\n//         patients.push(pR);\n//     }\n// }\n\n// contract Admin {\n//     address[] doctorsAddress;\n//     mapping(address => Doctor) doctors;\n//     mapping(address => bool) public exist;\n//     address public owner;\n\n//     // address public contractAddr;\n\n//     // function setContractAddr(address _addr) public {\n//     //     contractAddr = _addr;\n//     // }\n\n//     constructor() {\n//         owner = msg.sender;\n//     }\n\n//     modifier onlyOwner() {\n//         // modifier for only owner\n//         require(msg.sender == owner, \"You are not the Owner \");\n//         _;\n//     }\n\n//     function addDoctor(\n//         string memory _name,\n//         string memory _kyc,\n//         string memory _mno,\n//         address _owner,\n//         string memory _id\n//     ) public onlyOwner returns (address) {\n//         Doctor newDoctor = new Doctor(_name, _kyc, _mno, _owner, _id);\n//         doctorsAddress.push(_owner);\n//         doctors[_owner] = newDoctor;\n//         exist[address(newDoctor)] = true;\n//         return address(newDoctor);\n//     }\n\n//     function addPatient(\n//         string memory _name,\n//         string memory _kyc,\n//         string memory _bg,\n//         string memory _mno,\n//         address _owner\n//     ) public onlyOwner returns (address) {\n//         Patient newPatient =\n//             new Patient(_name, _kyc, _bg, _mno, _owner, address(this));\n//         return address(newPatient);\n//     }\n\n//     function showAddressofDoctors()\n//         external\n//         view\n//         onlyOwner\n//         returns (address[] memory)\n//     {\n//         return doctorsAddress;\n//     }\n\n//     function showDoctors(address _doc) external view returns (Doctor) {\n//         return doctors[_doc];\n//     }\n// }\n\n//SPDX-License-Identifier: GPL-3.0\npragma solidity ^0.7.0;\npragma experimental ABIEncoderV2;\n\ncontract Patient {\n    // Patient basic details\n    string public name;\n    string public age;\n    string kyc;\n    string public bg;\n    string public mno;\n    address public owner;\n    Admin admin;\n\n    // mapping for viewers\n    mapping(address => bool) public viewers;\n\n    // mapping for editors\n    mapping(address => bool) public editors;\n\n    // report details\n    struct record {\n        uint256 date;\n        address doctor;\n        string detail;\n        string hash;\n    }\n\n    // array to store record\n    record[] details;\n\n    constructor(\n        string memory _name,\n        string memory _age,\n        string memory _kyc,\n        string memory _bg,\n        string memory _mno,\n        address _owner,\n        address _admin\n    ) {\n        // initializaing value\n        admin = Admin(_admin);\n        name = _name;\n        kyc = _kyc;\n        bg = _bg;\n        mno = _mno;\n        owner = _owner;\n        age = _age;\n        viewers[owner] = true;\n    }\n\n    // only owner modifier\n    modifier onlyOwner() {\n        // modifier for only owner\n        require(msg.sender == owner, \"You are not the Owner \");\n        _;\n    }\n\n    // only viewers modifiers\n    modifier onlyViewer() {\n        // modifier for only owner\n        require(viewers[msg.sender], \"You don't have viewing rights\");\n        _;\n    }\n\n    // only editors modifiers\n    modifier onlyEditor() {\n        // modifier for only owner\n        require(editors[msg.sender], \"You dont have editing rights\");\n        _;\n    }\n\n    // setter for mobile number , as all the other details will never change ,so ony thing owner can change is mno\n\n    function setMno(string memory _mno) public onlyOwner {\n        // checking if the stake holder is eligible of not\n        mno = _mno;\n    }\n\n    // getter for basic details\n\n    function getPatientDetails()\n        public\n        view\n        onlyViewer\n        returns (\n            string memory,\n            string memory,\n            string memory,\n            string memory,\n            address\n        )\n    {\n        return (name, kyc, bg, mno, owner);\n    }\n\n    //set permissions for viewers\n    function addViewer(address _addr) public onlyOwner {\n        viewers[_addr] = true;\n    }\n\n    //set permissions for editors\n    function addEditor(address _addr) public onlyOwner {\n        editors[_addr] = true;\n    }\n\n    //revoke viewing rights\n    function removeViewer(address _addr) public onlyOwner {\n        viewers[_addr] = false;\n    }\n\n    //remove permissions for editors\n    function removeEditor(address _addr) public onlyOwner {\n        editors[_addr] = false;\n    }\n\n    // function for addinng details and report\n\n    function addReport(string memory _detail, string memory _hash)\n        public\n        onlyEditor\n    {\n        require(admin.existDA(msg.sender), \"You are not a registered Doctor\");\n\n        record memory newRecord = record({\n            date: block.timestamp,\n            doctor: msg.sender,\n            detail: _detail,\n            hash: _hash\n        });\n        editors[msg.sender] = false;\n        viewers[msg.sender] = false;\n        details.push(newRecord);\n    }\n\n    // function array length\n\n    function getLength() public view onlyViewer returns (uint256) {\n        return (details.length);\n    }\n\n    // function for retriving report\n\n    function getReport(uint256 _index)\n        public\n        view\n        onlyViewer\n        returns (record memory)\n    {\n        return (details[_index]);\n    }\n}\n\n// TODO: Connection of doctor to patient is left for adding record\ncontract Doctor {\n    string public name;\n    string kyc;\n    string public mno;\n    string public id;\n    address public owner;\n\n    constructor(\n        string memory _name,\n        string memory _kyc,\n        string memory _mno,\n        address _owner,\n        string memory _id\n    ) {\n        //  Admin admin = Admin(msg.sender);\n        //  require(msg.sender == admin.contractAddr(),\"Only Admin contract can deploy constructor\");\n\n        // initializaing value\n        name = _name;\n        kyc = _kyc;\n        mno = _mno;\n        owner = _owner;\n        id = _id;\n    }\n\n    struct patientRecord {\n        uint256 date;\n        address patient;\n        string detail;\n        string hash;\n    }\n\n    patientRecord[] patients;\n\n    function recordLen() public view returns (uint256) {\n        return patients.length;\n    }\n\n    function pRecord(uint256 _index)\n        public\n        view\n        returns (\n            patientRecord memory //ToDo : only doctor should access\n        )\n    {\n        return patients[_index];\n    }\n\n    function addPatientRecord(\n        string memory _details,\n        string memory _hash,\n        address _patient\n    ) public {\n        Patient patientContract = Patient(_patient);\n        patientContract.addReport(_details, _hash);\n\n        patientRecord memory precord = patientRecord({\n            date: block.timestamp,\n            patient: _patient,\n            detail: _details,\n            hash: _hash\n        });\n        patients.push(precord);\n    }\n}\n\ncontract Admin {\n    address[] public doctorsAddress;\n    mapping(address => address) public doctors;\n    mapping(address => address) public patients;\n    mapping(address => bool) public existD;\n    mapping(address => bool) public existDA;\n    mapping(address => bool) public existP;\n    address public owner;\n\n    // address public contractAddr;\n\n    // function setContractAddr(address _addr) public {\n    //     contractAddr = _addr;\n    // }\n\n    constructor() {\n        owner = msg.sender;\n    }\n\n    modifier onlyOwner() {\n        // modifier for only owner\n        require(msg.sender == owner, \"You are not the Owner \");\n        _;\n    }\n\n    function addDoctor(\n        string memory _name,\n        string memory _kyc,\n        string memory _mno,\n        address _owner,\n        string memory _id\n    ) public onlyOwner {\n        require(!existD[_owner], \"Account Already Exixt\");\n        Doctor newDoctor = new Doctor(_name, _kyc, _mno, _owner, _id);\n        doctorsAddress.push(_owner);\n        doctors[_owner] = address(newDoctor);\n        existD[_owner] = true;\n        existDA[address(newDoctor)] = true;\n    }\n\n    function addPatient(\n        string memory _name,\n        string memory _age,\n        string memory _kyc,\n        string memory _bg,\n        string memory _mno,\n        address _owner\n    ) public onlyOwner {\n        require(!existP[_owner], \"Account Already Exixt\");\n        Patient newPatient = new Patient(\n            _name,\n            _age,\n            _kyc,\n            _bg,\n            _mno,\n            _owner,\n            address(this)\n        );\n        patients[_owner] = address(newPatient);\n        existP[_owner] = true;\n    }\n}\n",
  "sourcePath": "/home/sourav/Documents/Programming/Blockchain-in-healthcare/contracts/Medical.sol",
  "compiler": {
    "name": "solc",
    "version": "0.7.0+commit.9e61f92b.Emscripten.clang"
  },
  "schemaVersion": "3.3.4",
  "updatedAt": "2021-06-27T14:39:09.590Z",
  "devdoc": {
    "kind": "dev",
    "methods": {},
    "version": 1
  },
  "userdoc": {
    "kind": "user",
    "methods": {},
    "version": 1
  }
}