{
  "contractName": "Admin",
  "abi": [
    {
      "inputs": [],
      "stateMutability": "nonpayable",
      "type": "constructor"
    },
    {
      "inputs": [
        {
          "internalType": "address",
          "name": "",
          "type": "address"
        }
      ],
      "name": "doctors",
      "outputs": [
        {
          "internalType": "address",
          "name": "",
          "type": "address"
        }
      ],
      "stateMutability": "view",
      "type": "function"
    },
    {
      "inputs": [
        {
          "internalType": "uint256",
          "name": "",
          "type": "uint256"
        }
      ],
      "name": "doctorsAddress",
      "outputs": [
        {
          "internalType": "address",
          "name": "",
          "type": "address"
        }
      ],
      "stateMutability": "view",
      "type": "function"
    },
    {
      "inputs": [
        {
          "internalType": "address",
          "name": "",
          "type": "address"
        }
      ],
      "name": "existD",
      "outputs": [
        {
          "internalType": "bool",
          "name": "",
          "type": "bool"
        }
      ],
      "stateMutability": "view",
      "type": "function"
    },
    {
      "inputs": [
        {
          "internalType": "address",
          "name": "",
          "type": "address"
        }
      ],
      "name": "existDA",
      "outputs": [
        {
          "internalType": "bool",
          "name": "",
          "type": "bool"
        }
      ],
      "stateMutability": "view",
      "type": "function"
    },
    {
      "inputs": [
        {
          "internalType": "address",
          "name": "",
          "type": "address"
        }
      ],
      "name": "existP",
      "outputs": [
        {
          "internalType": "bool",
          "name": "",
          "type": "bool"
        }
      ],
      "stateMutability": "view",
      "type": "function"
    },
    {
      "inputs": [],
      "name": "owner",
      "outputs": [
        {
          "internalType": "address",
          "name": "",
          "type": "address"
        }
      ],
      "stateMutability": "view",
      "type": "function"
    },
    {
      "inputs": [
        {
          "internalType": "address",
          "name": "",
          "type": "address"
        }
      ],
      "name": "patients",
      "outputs": [
        {
          "internalType": "address",
          "name": "",
          "type": "address"
        }
      ],
      "stateMutability": "view",
      "type": "function"
    },
    {
      "inputs": [
        {
          "internalType": "string",
          "name": "_name",
          "type": "string"
        },
        {
          "internalType": "string",
          "name": "_kyc",
          "type": "string"
        },
        {
          "internalType": "string",
          "name": "_mno",
          "type": "string"
        },
        {
          "internalType": "address",
          "name": "_owner",
          "type": "address"
        },
        {
          "internalType": "string",
          "name": "_id",
          "type": "string"
        }
      ],
      "name": "addDoctor",
      "outputs": [],
      "stateMutability": "nonpayable",
      "type": "function"
    },
    {
      "inputs": [
        {
          "internalType": "string",
          "name": "_name",
          "type": "string"
        },
        {
          "internalType": "string",
          "name": "_kyc",
          "type": "string"
        },
        {
          "internalType": "string",
          "name": "_bg",
          "type": "string"
        },
        {
          "internalType": "string",
          "name": "_mno",
          "type": "string"
        },
        {
          "internalType": "address",
          "name": "_owner",
          "type": "address"
        }
      ],
      "name": "addPatient",
      "outputs": [],
      "stateMutability": "nonpayable",
      "type": "function"
    }
  ],
  "bytecode": "0x608060405234801561001057600080fd5b5033600660006101000a81548173ffffffffffffffffffffffffffffffffffffffff021916908373ffffffffffffffffffffffffffffffffffffffff160217905550613f09806100616000396000f3fe60806040523480156200001157600080fd5b5060043610620000a05760003560e01c80638da5cb5b116200006f5780638da5cb5b146200017d57806396451c4d146200019f578063a9583c2214620001d5578063c45e7a96146200020b578063c9ac2cad146200022b57620000a0565b80630869cfbc14620000a55780630bb8e74d14620000db5780630d43c16f1462000111578063422f72681462000147575b600080fd5b620000c36004803603810190620000bd919062000963565b6200024b565b604051620000d2919062000c6e565b60405180910390f35b620000f96004803603810190620000f3919062000963565b6200027e565b60405162000108919062000c8b565b60405180910390f35b6200012f600480360381019062000129919062000963565b6200029e565b6040516200013e919062000c8b565b60405180910390f35b6200016560048036038101906200015f919062000963565b620002be565b60405162000174919062000c8b565b60405180910390f35b62000187620002de565b60405162000196919062000c6e565b60405180910390f35b620001bd6004803603810190620001b7919062000b5b565b62000304565b604051620001cc919062000c6e565b60405180910390f35b620001f36004803603810190620001ed919062000963565b62000341565b60405162000202919062000c6e565b60405180910390f35b62000229600480360381019062000223919062000a75565b62000374565b005b6200024960048036038101906200024391906200098f565b620005bc565b005b60026020528060005260406000206000915054906101000a900473ffffffffffffffffffffffffffffffffffffffff1681565b60046020528060005260406000206000915054906101000a900460ff1681565b60036020528060005260406000206000915054906101000a900460ff1681565b60056020528060005260406000206000915054906101000a900460ff1681565b600660009054906101000a900473ffffffffffffffffffffffffffffffffffffffff1681565b600081815481106200031257fe5b906000526020600020016000915054906101000a900473ffffffffffffffffffffffffffffffffffffffff1681565b60016020528060005260406000206000915054906101000a900473ffffffffffffffffffffffffffffffffffffffff1681565b600660009054906101000a900473ffffffffffffffffffffffffffffffffffffffff1673ffffffffffffffffffffffffffffffffffffffff163373ffffffffffffffffffffffffffffffffffffffff161462000407576040517f08c379a0000000000000000000000000000000000000000000000000000000008152600401620003fe9062000dcc565b60405180910390fd5b600560008273ffffffffffffffffffffffffffffffffffffffff1673ffffffffffffffffffffffffffffffffffffffff16815260200190815260200160002060009054906101000a900460ff161562000497576040517f08c379a00000000000000000000000000000000000000000000000000000000081526004016200048e9062000daa565b60405180910390fd5b6000858585858530604051620004ad90620008bd565b620004be9695949392919062000d21565b604051809103906000f080158015620004db573d6000803e3d6000fd5b50905080600260008473ffffffffffffffffffffffffffffffffffffffff1673ffffffffffffffffffffffffffffffffffffffff16815260200190815260200160002060006101000a81548173ffffffffffffffffffffffffffffffffffffffff021916908373ffffffffffffffffffffffffffffffffffffffff1602179055506001600560008473ffffffffffffffffffffffffffffffffffffffff1673ffffffffffffffffffffffffffffffffffffffff16815260200190815260200160002060006101000a81548160ff021916908315150217905550505050505050565b600660009054906101000a900473ffffffffffffffffffffffffffffffffffffffff1673ffffffffffffffffffffffffffffffffffffffff163373ffffffffffffffffffffffffffffffffffffffff16146200064f576040517f08c379a0000000000000000000000000000000000000000000000000000000008152600401620006469062000dcc565b60405180910390fd5b600360008373ffffffffffffffffffffffffffffffffffffffff1673ffffffffffffffffffffffffffffffffffffffff16815260200190815260200160002060009054906101000a900460ff1615620006df576040517f08c379a0000000000000000000000000000000000000000000000000000000008152600401620006d69062000daa565b60405180910390fd5b60008585858585604051620006f490620008cb565b6200070495949392919062000ca8565b604051809103906000f08015801562000721573d6000803e3d6000fd5b5090506000839080600181540180825580915050600190039060005260206000200160009091909190916101000a81548173ffffffffffffffffffffffffffffffffffffffff021916908373ffffffffffffffffffffffffffffffffffffffff16021790555080600160008573ffffffffffffffffffffffffffffffffffffffff1673ffffffffffffffffffffffffffffffffffffffff16815260200190815260200160002060006101000a81548173ffffffffffffffffffffffffffffffffffffffff021916908373ffffffffffffffffffffffffffffffffffffffff1602179055506001600360008573ffffffffffffffffffffffffffffffffffffffff1673ffffffffffffffffffffffffffffffffffffffff16815260200190815260200160002060006101000a81548160ff0219169083151502179055506001600460008373ffffffffffffffffffffffffffffffffffffffff1673ffffffffffffffffffffffffffffffffffffffff16815260200190815260200160002060006101000a81548160ff021916908315150217905550505050505050565b611fc58062000f3a83390190565b610fd58062002eff83390190565b600081359050620008ea8162000f05565b92915050565b600082601f8301126200090257600080fd5b813562000919620009138262000e1c565b62000dee565b915080825260208301602083018583830111156200093657600080fd5b6200094383828462000eaf565b50505092915050565b6000813590506200095d8162000f1f565b92915050565b6000602082840312156200097657600080fd5b60006200098684828501620008d9565b91505092915050565b600080600080600060a08688031215620009a857600080fd5b600086013567ffffffffffffffff811115620009c357600080fd5b620009d188828901620008f0565b955050602086013567ffffffffffffffff811115620009ef57600080fd5b620009fd88828901620008f0565b945050604086013567ffffffffffffffff81111562000a1b57600080fd5b62000a2988828901620008f0565b935050606062000a3c88828901620008d9565b925050608086013567ffffffffffffffff81111562000a5a57600080fd5b62000a6888828901620008f0565b9150509295509295909350565b600080600080600060a0868803121562000a8e57600080fd5b600086013567ffffffffffffffff81111562000aa957600080fd5b62000ab788828901620008f0565b955050602086013567ffffffffffffffff81111562000ad557600080fd5b62000ae388828901620008f0565b945050604086013567ffffffffffffffff81111562000b0157600080fd5b62000b0f88828901620008f0565b935050606086013567ffffffffffffffff81111562000b2d57600080fd5b62000b3b88828901620008f0565b925050608062000b4e88828901620008d9565b9150509295509295909350565b60006020828403121562000b6e57600080fd5b600062000b7e848285016200094c565b91505092915050565b62000b928162000e65565b82525050565b62000ba38162000e79565b82525050565b600062000bb68262000e49565b62000bc2818562000e54565b935062000bd481856020860162000ebe565b62000bdf8162000ef4565b840191505092915050565b600062000bf960158362000e54565b91507f4163636f756e7420416c726561647920457869787400000000000000000000006000830152602082019050919050565b600062000c3b60168362000e54565b91507f596f7520617265206e6f7420746865204f776e657220000000000000000000006000830152602082019050919050565b600060208201905062000c85600083018462000b87565b92915050565b600060208201905062000ca2600083018462000b98565b92915050565b600060a082019050818103600083015262000cc4818862000ba9565b9050818103602083015262000cda818762000ba9565b9050818103604083015262000cf0818662000ba9565b905062000d01606083018562000b87565b818103608083015262000d15818462000ba9565b90509695505050505050565b600060c082019050818103600083015262000d3d818962000ba9565b9050818103602083015262000d53818862000ba9565b9050818103604083015262000d69818762000ba9565b9050818103606083015262000d7f818662000ba9565b905062000d90608083018562000b87565b62000d9f60a083018462000b87565b979650505050505050565b6000602082019050818103600083015262000dc58162000bea565b9050919050565b6000602082019050818103600083015262000de78162000c2c565b9050919050565b6000604051905081810181811067ffffffffffffffff8211171562000e1257600080fd5b8060405250919050565b600067ffffffffffffffff82111562000e3457600080fd5b601f19601f8301169050602081019050919050565b600081519050919050565b600082825260208201905092915050565b600062000e728262000e85565b9050919050565b60008115159050919050565b600073ffffffffffffffffffffffffffffffffffffffff82169050919050565b6000819050919050565b82818337600083830152505050565b60005b8381101562000ede57808201518184015260208101905062000ec1565b8381111562000eee576000848401525b50505050565b6000601f19601f8301169050919050565b62000f108162000e65565b811462000f1c57600080fd5b50565b62000f2a8162000ea5565b811462000f3657600080fd5b5056fe60806040523480156200001157600080fd5b5060405162001fc538038062001fc58339818101604052810190620000379190620002bc565b80600560006101000a81548173ffffffffffffffffffffffffffffffffffffffff021916908373ffffffffffffffffffffffffffffffffffffffff160217905550856000908051906020019062000090929190620001a3565b508460019080519060200190620000a9929190620001a3565b508360029080519060200190620000c2929190620001a3565b508260039080519060200190620000db929190620001a3565b5081600460006101000a81548173ffffffffffffffffffffffffffffffffffffffff021916908373ffffffffffffffffffffffffffffffffffffffff160217905550600160066000600460009054906101000a900473ffffffffffffffffffffffffffffffffffffffff1673ffffffffffffffffffffffffffffffffffffffff1673ffffffffffffffffffffffffffffffffffffffff16815260200190815260200160002060006101000a81548160ff02191690831515021790555050505050505062000495565b828054600181600116156101000203166002900490600052602060002090601f016020900481019282601f10620001e657805160ff191683800117855562000217565b8280016001018555821562000217579182015b8281111562000216578251825591602001919060010190620001f9565b5b5090506200022691906200022a565b5090565b5b80821115620002455760008160009055506001016200022b565b5090565b6000815190506200025a816200047b565b92915050565b600082601f8301126200027257600080fd5b8151620002896200028382620003e4565b620003b6565b91508082526020830160208301858383011115620002a657600080fd5b620002b383828462000445565b50505092915050565b60008060008060008060c08789031215620002d657600080fd5b600087015167ffffffffffffffff811115620002f157600080fd5b620002ff89828a0162000260565b965050602087015167ffffffffffffffff8111156200031d57600080fd5b6200032b89828a0162000260565b955050604087015167ffffffffffffffff8111156200034957600080fd5b6200035789828a0162000260565b945050606087015167ffffffffffffffff8111156200037557600080fd5b6200038389828a0162000260565b93505060806200039689828a0162000249565b92505060a0620003a989828a0162000249565b9150509295509295509295565b6000604051905081810181811067ffffffffffffffff82111715620003da57600080fd5b8060405250919050565b600067ffffffffffffffff821115620003fc57600080fd5b601f19601f8301169050602081019050919050565b60006200041e8262000425565b9050919050565b600073ffffffffffffffffffffffffffffffffffffffff82169050919050565b60005b838110156200046557808201518184015260208101905062000448565b8381111562000475576000848401525b50505050565b620004868162000411565b81146200049257600080fd5b50565b611b2080620004a56000396000f3fe608060405234801561001057600080fd5b50600436106100f55760003560e01c8063a69439aa11610097578063d1d9891411610066578063d1d9891414610272578063e45ab9c41461028e578063e5975bdc146102ac578063f2f4adae146102c8576100f5565b8063a69439aa146101d6578063b08bc8a514610206578063be1c766b14610224578063cd52844d14610242576100f5565b80634e7f9b19116100d35780634e7f9b1914610150578063601f8cf5146101805780637a3e00661461019c5780638da5cb5b146101b8576100f5565b806306fdde03146100fa57806308e381cf146101185780632d55feaf14610134575b600080fd5b6101026102ea565b60405161010f9190611800565b60405180910390f35b610132600480360381019061012d91906114a3565b610388565b005b61014e60048036038101906101499190611451565b610432565b005b61016a60048036038101906101659190611550565b61051d565b6040516101779190611911565b60405180910390f35b61019a60048036038101906101959190611451565b610782565b005b6101b660048036038101906101b191906114e4565b61086d565b005b6101c0610b92565b6040516101cd91906117af565b60405180910390f35b6101f060048036038101906101eb9190611451565b610bb8565b6040516101fd91906117e5565b60405180910390f35b61020e610bd8565b60405161021b9190611800565b60405180910390f35b61022c610c76565b6040516102399190611933565b60405180910390f35b61025c60048036038101906102579190611451565b610d0f565b60405161026991906117e5565b60405180910390f35b61028c60048036038101906102879190611451565b610d2f565b005b610296610e1a565b6040516102a39190611800565b60405180910390f35b6102c660048036038101906102c19190611451565b610eb8565b005b6102d0610fa3565b6040516102e1959493929190611822565b60405180910390f35b60008054600181600116156101000203166002900480601f0160208091040260200160405190810160405280929190818152602001828054600181600116156101000203166002900480156103805780601f1061035557610100808354040283529160200191610380565b820191906000526020600020905b81548152906001019060200180831161036357829003601f168201915b505050505081565b600460009054906101000a900473ffffffffffffffffffffffffffffffffffffffff1673ffffffffffffffffffffffffffffffffffffffff163373ffffffffffffffffffffffffffffffffffffffff1614610418576040517f08c379a000000000000000000000000000000000000000000000000000000000815260040161040f906118f1565b60405180910390fd5b806003908051906020019061042e9291906112e3565b5050565b600460009054906101000a900473ffffffffffffffffffffffffffffffffffffffff1673ffffffffffffffffffffffffffffffffffffffff163373ffffffffffffffffffffffffffffffffffffffff16146104c2576040517f08c379a00000000000000000000000000000000000000000000000000000000081526004016104b9906118f1565b60405180910390fd5b6000600760008373ffffffffffffffffffffffffffffffffffffffff1673ffffffffffffffffffffffffffffffffffffffff16815260200190815260200160002060006101000a81548160ff02191690831515021790555050565b610525611363565b600660003373ffffffffffffffffffffffffffffffffffffffff1673ffffffffffffffffffffffffffffffffffffffff16815260200190815260200160002060009054906101000a900460ff166105b1576040517f08c379a00000000000000000000000000000000000000000000000000000000081526004016105a8906118d1565b60405180910390fd5b600882815481106105be57fe5b9060005260206000209060040201604051806080016040529081600082015481526020016001820160009054906101000a900473ffffffffffffffffffffffffffffffffffffffff1673ffffffffffffffffffffffffffffffffffffffff1673ffffffffffffffffffffffffffffffffffffffff168152602001600282018054600181600116156101000203166002900480601f0160208091040260200160405190810160405280929190818152602001828054600181600116156101000203166002900480156106d05780601f106106a5576101008083540402835291602001916106d0565b820191906000526020600020905b8154815290600101906020018083116106b357829003601f168201915b50505050508152602001600382018054600181600116156101000203166002900480601f0160208091040260200160405190810160405280929190818152602001828054600181600116156101000203166002900480156107725780601f1061074757610100808354040283529160200191610772565b820191906000526020600020905b81548152906001019060200180831161075557829003601f168201915b5050505050815250509050919050565b600460009054906101000a900473ffffffffffffffffffffffffffffffffffffffff1673ffffffffffffffffffffffffffffffffffffffff163373ffffffffffffffffffffffffffffffffffffffff1614610812576040517f08c379a0000000000000000000000000000000000000000000000000000000008152600401610809906118f1565b60405180910390fd5b6001600660008373ffffffffffffffffffffffffffffffffffffffff1673ffffffffffffffffffffffffffffffffffffffff16815260200190815260200160002060006101000a81548160ff02191690831515021790555050565b600760003373ffffffffffffffffffffffffffffffffffffffff1673ffffffffffffffffffffffffffffffffffffffff16815260200190815260200160002060009054906101000a900460ff166108f9576040517f08c379a00000000000000000000000000000000000000000000000000000000081526004016108f090611891565b60405180910390fd5b600560009054906101000a900473ffffffffffffffffffffffffffffffffffffffff1673ffffffffffffffffffffffffffffffffffffffff16630bb8e74d336040518263ffffffff1660e01b815260040161095491906117ca565b60206040518083038186803b15801561096c57600080fd5b505afa158015610980573d6000803e3d6000fd5b505050506040513d601f19601f820116820180604052508101906109a4919061147a565b6109e3576040517f08c379a00000000000000000000000000000000000000000000000000000000081526004016109da906118b1565b60405180910390fd5b6109eb611363565b60405180608001604052804281526020013373ffffffffffffffffffffffffffffffffffffffff1681526020018481526020018381525090506000600760003373ffffffffffffffffffffffffffffffffffffffff1673ffffffffffffffffffffffffffffffffffffffff16815260200190815260200160002060006101000a81548160ff0219169083151502179055506000600660003373ffffffffffffffffffffffffffffffffffffffff1673ffffffffffffffffffffffffffffffffffffffff16815260200190815260200160002060006101000a81548160ff02191690831515021790555060088190806001815401808255809150506001900390600052602060002090600402016000909190919091506000820151816000015560208201518160010160006101000a81548173ffffffffffffffffffffffffffffffffffffffff021916908373ffffffffffffffffffffffffffffffffffffffff1602179055506040820151816002019080519060200190610b6d9291906112e3565b506060820151816003019080519060200190610b8a9291906112e3565b505050505050565b600460009054906101000a900473ffffffffffffffffffffffffffffffffffffffff1681565b60066020528060005260406000206000915054906101000a900460ff1681565b60028054600181600116156101000203166002900480601f016020809104026020016040519081016040528092919081815260200182805460018160011615610100020316600290048015610c6e5780601f10610c4357610100808354040283529160200191610c6e565b820191906000526020600020905b815481529060010190602001808311610c5157829003601f168201915b505050505081565b6000600660003373ffffffffffffffffffffffffffffffffffffffff1673ffffffffffffffffffffffffffffffffffffffff16815260200190815260200160002060009054906101000a900460ff16610d04576040517f08c379a0000000000000000000000000000000000000000000000000000000008152600401610cfb906118d1565b60405180910390fd5b600880549050905090565b60076020528060005260406000206000915054906101000a900460ff1681565b600460009054906101000a900473ffffffffffffffffffffffffffffffffffffffff1673ffffffffffffffffffffffffffffffffffffffff163373ffffffffffffffffffffffffffffffffffffffff1614610dbf576040517f08c379a0000000000000000000000000000000000000000000000000000000008152600401610db6906118f1565b60405180910390fd5b6000600660008373ffffffffffffffffffffffffffffffffffffffff1673ffffffffffffffffffffffffffffffffffffffff16815260200190815260200160002060006101000a81548160ff02191690831515021790555050565b60038054600181600116156101000203166002900480601f016020809104026020016040519081016040528092919081815260200182805460018160011615610100020316600290048015610eb05780601f10610e8557610100808354040283529160200191610eb0565b820191906000526020600020905b815481529060010190602001808311610e9357829003601f168201915b505050505081565b600460009054906101000a900473ffffffffffffffffffffffffffffffffffffffff1673ffffffffffffffffffffffffffffffffffffffff163373ffffffffffffffffffffffffffffffffffffffff1614610f48576040517f08c379a0000000000000000000000000000000000000000000000000000000008152600401610f3f906118f1565b60405180910390fd5b6001600760008373ffffffffffffffffffffffffffffffffffffffff1673ffffffffffffffffffffffffffffffffffffffff16815260200190815260200160002060006101000a81548160ff02191690831515021790555050565b6060806060806000600660003373ffffffffffffffffffffffffffffffffffffffff1673ffffffffffffffffffffffffffffffffffffffff16815260200190815260200160002060009054906101000a900460ff16611037576040517f08c379a000000000000000000000000000000000000000000000000000000000815260040161102e906118d1565b60405180910390fd5b6000600160026003600460009054906101000a900473ffffffffffffffffffffffffffffffffffffffff16848054600181600116156101000203166002900480601f0160208091040260200160405190810160405280929190818152602001828054600181600116156101000203166002900480156110f75780601f106110cc576101008083540402835291602001916110f7565b820191906000526020600020905b8154815290600101906020018083116110da57829003601f168201915b50505050509450838054600181600116156101000203166002900480601f0160208091040260200160405190810160405280929190818152602001828054600181600116156101000203166002900480156111935780601f1061116857610100808354040283529160200191611193565b820191906000526020600020905b81548152906001019060200180831161117657829003601f168201915b50505050509350828054600181600116156101000203166002900480601f01602080910402602001604051908101604052809291908181526020018280546001816001161561010002031660029004801561122f5780601f106112045761010080835404028352916020019161122f565b820191906000526020600020905b81548152906001019060200180831161121257829003601f168201915b50505050509250818054600181600116156101000203166002900480601f0160208091040260200160405190810160405280929190818152602001828054600181600116156101000203166002900480156112cb5780601f106112a0576101008083540402835291602001916112cb565b820191906000526020600020905b8154815290600101906020018083116112ae57829003601f168201915b50505050509150945094509450945094509091929394565b828054600181600116156101000203166002900490600052602060002090601f016020900481019282601f1061132457805160ff1916838001178555611352565b82800160010185558215611352579182015b82811115611351578251825591602001919060010190611336565b5b50905061135f91906113a1565b5090565b604051806080016040528060008152602001600073ffffffffffffffffffffffffffffffffffffffff16815260200160608152602001606081525090565b5b808211156113ba5760008160009055506001016113a2565b5090565b6000813590506113cd81611aa5565b92915050565b6000815190506113e281611abc565b92915050565b600082601f8301126113f957600080fd5b813561140c6114078261197b565b61194e565b9150808252602083016020830185838301111561142857600080fd5b611433838284611a52565b50505092915050565b60008135905061144b81611ad3565b92915050565b60006020828403121561146357600080fd5b6000611471848285016113be565b91505092915050565b60006020828403121561148c57600080fd5b600061149a848285016113d3565b91505092915050565b6000602082840312156114b557600080fd5b600082013567ffffffffffffffff8111156114cf57600080fd5b6114db848285016113e8565b91505092915050565b600080604083850312156114f757600080fd5b600083013567ffffffffffffffff81111561151157600080fd5b61151d858286016113e8565b925050602083013567ffffffffffffffff81111561153a57600080fd5b611546858286016113e8565b9150509250929050565b60006020828403121561156257600080fd5b60006115708482850161143c565b91505092915050565b61158281611a1c565b82525050565b611591816119d4565b82525050565b6115a0816119d4565b82525050565b6115af816119e6565b82525050565b60006115c0826119a7565b6115ca81856119b2565b93506115da818560208601611a61565b6115e381611a94565b840191505092915050565b60006115f9826119a7565b61160381856119c3565b9350611613818560208601611a61565b61161c81611a94565b840191505092915050565b6000611634601c836119c3565b91507f596f7520646f6e7420686176652065646974696e6720726967687473000000006000830152602082019050919050565b6000611674601f836119c3565b91507f596f7520617265206e6f742061207265676973746572656420446f63746f72006000830152602082019050919050565b60006116b4601d836119c3565b91507f596f7520646f6e277420686176652076696577696e67207269676874730000006000830152602082019050919050565b60006116f46016836119c3565b91507f596f7520617265206e6f7420746865204f776e657220000000000000000000006000830152602082019050919050565b600060808301600083015161173f6000860182611791565b5060208301516117526020860182611588565b506040830151848203604086015261176a82826115b5565b9150506060830151848203606086015261178482826115b5565b9150508091505092915050565b61179a81611a12565b82525050565b6117a981611a12565b82525050565b60006020820190506117c46000830184611597565b92915050565b60006020820190506117df6000830184611579565b92915050565b60006020820190506117fa60008301846115a6565b92915050565b6000602082019050818103600083015261181a81846115ee565b905092915050565b600060a082019050818103600083015261183c81886115ee565b9050818103602083015261185081876115ee565b9050818103604083015261186481866115ee565b9050818103606083015261187881856115ee565b90506118876080830184611597565b9695505050505050565b600060208201905081810360008301526118aa81611627565b9050919050565b600060208201905081810360008301526118ca81611667565b9050919050565b600060208201905081810360008301526118ea816116a7565b9050919050565b6000602082019050818103600083015261190a816116e7565b9050919050565b6000602082019050818103600083015261192b8184611727565b905092915050565b600060208201905061194860008301846117a0565b92915050565b6000604051905081810181811067ffffffffffffffff8211171561197157600080fd5b8060405250919050565b600067ffffffffffffffff82111561199257600080fd5b601f19601f8301169050602081019050919050565b600081519050919050565b600082825260208201905092915050565b600082825260208201905092915050565b60006119df826119f2565b9050919050565b60008115159050919050565b600073ffffffffffffffffffffffffffffffffffffffff82169050919050565b6000819050919050565b6000611a2782611a2e565b9050919050565b6000611a3982611a40565b9050919050565b6000611a4b826119f2565b9050919050565b82818337600083830152505050565b60005b83811015611a7f578082015181840152602081019050611a64565b83811115611a8e576000848401525b50505050565b6000601f19601f8301169050919050565b611aae816119d4565b8114611ab957600080fd5b50565b611ac5816119e6565b8114611ad057600080fd5b50565b611adc81611a12565b8114611ae757600080fd5b5056fea26469706673582212207cf6124f3b6d33a3fd490d5194d2ff4087a05b4946517bbc144445f67b576c9e64736f6c6343000700003360806040523480156200001157600080fd5b5060405162000fd538038062000fd5833981810160405281019062000037919062000200565b84600090805190602001906200004f929190620000e7565b50836001908051906020019062000068929190620000e7565b50826002908051906020019062000081929190620000e7565b5081600460006101000a81548173ffffffffffffffffffffffffffffffffffffffff021916908373ffffffffffffffffffffffffffffffffffffffff1602179055508060039080519060200190620000db929190620000e7565b505050505050620003c5565b828054600181600116156101000203166002900490600052602060002090601f016020900481019282601f106200012a57805160ff19168380011785556200015b565b828001600101855582156200015b579182015b828111156200015a5782518255916020019190600101906200013d565b5b5090506200016a91906200016e565b5090565b5b80821115620001895760008160009055506001016200016f565b5090565b6000815190506200019e81620003ab565b92915050565b600082601f830112620001b657600080fd5b8151620001cd620001c78262000314565b620002e6565b91508082526020830160208301858383011115620001ea57600080fd5b620001f783828462000375565b50505092915050565b600080600080600060a086880312156200021957600080fd5b600086015167ffffffffffffffff8111156200023457600080fd5b6200024288828901620001a4565b955050602086015167ffffffffffffffff8111156200026057600080fd5b6200026e88828901620001a4565b945050604086015167ffffffffffffffff8111156200028c57600080fd5b6200029a88828901620001a4565b9350506060620002ad888289016200018d565b925050608086015167ffffffffffffffff811115620002cb57600080fd5b620002d988828901620001a4565b9150509295509295909350565b6000604051905081810181811067ffffffffffffffff821117156200030a57600080fd5b8060405250919050565b600067ffffffffffffffff8211156200032c57600080fd5b601f19601f8301169050602081019050919050565b60006200034e8262000355565b9050919050565b600073ffffffffffffffffffffffffffffffffffffffff82169050919050565b60005b838110156200039557808201518184015260208101905062000378565b83811115620003a5576000848401525b50505050565b620003b68162000341565b8114620003c257600080fd5b50565b610c0080620003d56000396000f3fe608060405234801561001057600080fd5b506004361061007d5760003560e01c8063994e659c1161005b578063994e659c146100dc5780639ea1f8111461010c578063af640d0f14610128578063e45ab9c4146101465761007d565b80630231192f1461008257806306fdde03146100a05780638da5cb5b146100be575b600080fd5b61008a610164565b6040516100979190610a6c565b60405180910390f35b6100a8610171565b6040516100b591906109f1565b60405180910390f35b6100c661020f565b6040516100d391906109d6565b60405180910390f35b6100f660048036038101906100f19190610895565b610235565b6040516101039190610a4a565b60405180910390f35b61012660048036038101906101219190610816565b61040e565b005b610130610581565b60405161013d91906109f1565b60405180910390f35b61014e61061f565b60405161015b91906109f1565b60405180910390f35b6000600580549050905090565b60008054600181600116156101000203166002900480601f0160208091040260200160405190810160405280929190818152602001828054600181600116156101000203166002900480156102075780601f106101dc57610100808354040283529160200191610207565b820191906000526020600020905b8154815290600101906020018083116101ea57829003601f168201915b505050505081565b600460009054906101000a900473ffffffffffffffffffffffffffffffffffffffff1681565b61023d6106bd565b6005828154811061024a57fe5b9060005260206000209060040201604051806080016040529081600082015481526020016001820160009054906101000a900473ffffffffffffffffffffffffffffffffffffffff1673ffffffffffffffffffffffffffffffffffffffff1673ffffffffffffffffffffffffffffffffffffffff168152602001600282018054600181600116156101000203166002900480601f01602080910402602001604051908101604052809291908181526020018280546001816001161561010002031660029004801561035c5780601f106103315761010080835404028352916020019161035c565b820191906000526020600020905b81548152906001019060200180831161033f57829003601f168201915b50505050508152602001600382018054600181600116156101000203166002900480601f0160208091040260200160405190810160405280929190818152602001828054600181600116156101000203166002900480156103fe5780601f106103d3576101008083540402835291602001916103fe565b820191906000526020600020905b8154815290600101906020018083116103e157829003601f168201915b5050505050815250509050919050565b60008190508073ffffffffffffffffffffffffffffffffffffffff16637a3e006685856040518363ffffffff1660e01b815260040161044e929190610a13565b600060405180830381600087803b15801561046857600080fd5b505af115801561047c573d6000803e3d6000fd5b505050506104886106bd565b60405180608001604052804281526020018473ffffffffffffffffffffffffffffffffffffffff16815260200186815260200185815250905060058190806001815401808255809150506001900390600052602060002090600402016000909190919091506000820151816000015560208201518160010160006101000a81548173ffffffffffffffffffffffffffffffffffffffff021916908373ffffffffffffffffffffffffffffffffffffffff160217905550604082015181600201908051906020019061055a9291906106fb565b5060608201518160030190805190602001906105779291906106fb565b5050505050505050565b60038054600181600116156101000203166002900480601f0160208091040260200160405190810160405280929190818152602001828054600181600116156101000203166002900480156106175780601f106105ec57610100808354040283529160200191610617565b820191906000526020600020905b8154815290600101906020018083116105fa57829003601f168201915b505050505081565b60028054600181600116156101000203166002900480601f0160208091040260200160405190810160405280929190818152602001828054600181600116156101000203166002900480156106b55780601f1061068a576101008083540402835291602001916106b5565b820191906000526020600020905b81548152906001019060200180831161069857829003601f168201915b505050505081565b604051806080016040528060008152602001600073ffffffffffffffffffffffffffffffffffffffff16815260200160608152602001606081525090565b828054600181600116156101000203166002900490600052602060002090601f016020900481019282601f1061073c57805160ff191683800117855561076a565b8280016001018555821561076a579182015b8281111561076957825182559160200191906001019061074e565b5b509050610777919061077b565b5090565b5b8082111561079457600081600090555060010161077c565b5090565b6000813590506107a781610b9c565b92915050565b600082601f8301126107be57600080fd5b81356107d16107cc82610ab4565b610a87565b915080825260208301602083018583830111156107ed57600080fd5b6107f8838284610b49565b50505092915050565b60008135905061081081610bb3565b92915050565b60008060006060848603121561082b57600080fd5b600084013567ffffffffffffffff81111561084557600080fd5b610851868287016107ad565b935050602084013567ffffffffffffffff81111561086e57600080fd5b61087a868287016107ad565b925050604061088b86828701610798565b9150509250925092565b6000602082840312156108a757600080fd5b60006108b584828501610801565b91505092915050565b6108c781610b0d565b82525050565b6108d681610b0d565b82525050565b60006108e782610ae0565b6108f18185610aeb565b9350610901818560208601610b58565b61090a81610b8b565b840191505092915050565b600061092082610ae0565b61092a8185610afc565b935061093a818560208601610b58565b61094381610b8b565b840191505092915050565b600060808301600083015161096660008601826109b8565b50602083015161097960208601826108be565b506040830151848203604086015261099182826108dc565b915050606083015184820360608601526109ab82826108dc565b9150508091505092915050565b6109c181610b3f565b82525050565b6109d081610b3f565b82525050565b60006020820190506109eb60008301846108cd565b92915050565b60006020820190508181036000830152610a0b8184610915565b905092915050565b60006040820190508181036000830152610a2d8185610915565b90508181036020830152610a418184610915565b90509392505050565b60006020820190508181036000830152610a64818461094e565b905092915050565b6000602082019050610a8160008301846109c7565b92915050565b6000604051905081810181811067ffffffffffffffff82111715610aaa57600080fd5b8060405250919050565b600067ffffffffffffffff821115610acb57600080fd5b601f19601f8301169050602081019050919050565b600081519050919050565b600082825260208201905092915050565b600082825260208201905092915050565b6000610b1882610b1f565b9050919050565b600073ffffffffffffffffffffffffffffffffffffffff82169050919050565b6000819050919050565b82818337600083830152505050565b60005b83811015610b76578082015181840152602081019050610b5b565b83811115610b85576000848401525b50505050565b6000601f19601f8301169050919050565b610ba581610b0d565b8114610bb057600080fd5b50565b610bbc81610b3f565b8114610bc757600080fd5b5056fea2646970667358221220f79b7be5b843375e9c097135c001ac37ecf79e6d25b3b362168edf6a02cb783564736f6c63430007000033a2646970667358221220a7d14ae4d0526f1eeeffd6089d98e3e84a9b445ee03067920b4b58c32db8c8ad64736f6c63430007000033",
  "immutableReferences": {},
  "source": "// // SPDX-License-Identifier: GPL-3.0\n\n// pragma solidity ^0.7.0;\n// pragma experimental ABIEncoderV2;\n\n// contract Patient {\n//     // Patient basic details\n//     string public name;\n//     string kyc;\n//     string bg;\n//     string mno;\n//     address public owner;\n//     Admin admin;\n\n//     // mapping for viewers\n//     mapping(address => bool) public viewers;\n\n//     // mapping for editors\n//     mapping(address => bool) public editors;\n\n//     // report details\n//     struct record {\n//         uint256 date;\n//         address doctor;\n//         string detail;\n//         string hash;\n//     }\n\n//     // array to store record\n//     record[] details;\n\n//     constructor(\n//         string memory _name,\n//         string memory _kyc,\n//         string memory _bg,\n//         string memory _mno,\n//         address _owner,\n//         address _admin\n//     ) {\n//         // initializaing value\n//         admin = Admin(_admin);\n//         name = _name;\n//         kyc = _kyc;\n//         bg = _bg;\n//         mno = _mno;\n//         owner = _owner;\n//         viewers[owner] = true;\n//     }\n\n//     // only owner modifier\n//     modifier onlyOwner() {\n//         // modifier for only owner\n//         require(msg.sender == owner, \"You are not the Owner \");\n//         _;\n//     }\n\n//     // only viewers modifiers\n//     modifier onlyViewer() {\n//         // modifier for only owner\n//         require(viewers[msg.sender], \"You don't have viewing rights\");\n//         _;\n//     }\n\n//     // only editors modifiers\n//     modifier onlyEditor() {\n//         // modifier for only owner\n//         require(editors[msg.sender], \"You dont have editing rights\");\n//         _;\n//     }\n\n//     // setter for mobile number , as all the other details will never change ,so ony thing owner can change is mno\n\n//     function setMno(string memory _mno) public onlyOwner {\n//         // checking if the stake holder is eligible of not\n//         mno = _mno;\n//     }\n\n//     // getter for basic details\n\n//     function getPatientDetails()\n//         public\n//         view\n//         onlyViewer\n//         returns (\n//             string memory,\n//             string memory,\n//             string memory,\n//             string memory,\n//             address\n//         )\n//     {\n//         return (name, kyc, bg, mno, owner);\n//     }\n\n//     //set permissions for viewers\n//     function addViewer(address _addr) public onlyOwner {\n//         viewers[_addr] = true;\n//     }\n\n//     //set permissions for editors\n//     function addEditor(address _addr) public onlyOwner {\n//         editors[_addr] = true;\n//         viewers[_addr] = true;\n//     }\n\n//     //revoke viewing rights\n//     function removeViewer(address _addr) public onlyOwner {\n//         viewers[_addr] = false;\n//     }\n\n//     //remove permissions for editors\n//     function removeEditor(address _addr) public onlyOwner {\n//         editors[_addr] = false;\n//         viewers[_addr] = false;\n//     }\n\n//     // function for addinng details and report\n\n//     function addReport(string memory _detail, string memory _hash)\n//         public\n//         onlyEditor\n//     {\n//         require(admin.exist(msg.sender), \"You are not a registered Doctor\");\n\n//         record memory newRecord =\n//             record({\n//                 date: block.timestamp,\n//                 doctor: msg.sender,\n//                 detail: _detail,\n//                 hash: _hash\n//             });\n//         editors[msg.sender] = false;\n//         viewers[msg.sender] = false;\n//         details.push(newRecord);\n//     }\n\n//     // function array length\n\n//     function getLength() public view onlyViewer returns (uint256) {\n//         return (details.length);\n//     }\n\n//     // function for retriving report\n\n//     function getReport(uint256 _index)\n//         public\n//         view\n//         onlyViewer\n//         returns (record memory)\n//     {\n//         return (details[_index]);\n//     }\n// }\n\n// // TODO: Connection of doctor to patient is left for adding record\n// contract Doctor {\n//     string public name;\n//     string kyc;\n//     string public mno;\n//     string public id;\n//     address owner;\n\n//     constructor(\n//         string memory _name,\n//         string memory _kyc,\n//         string memory _mno,\n//         address _owner,\n//         string memory _id\n//     ) {\n//         //  Admin admin = Admin(msg.sender);\n//         //  require(msg.sender == admin.contractAddr(),\"Only Admin contract can deploy constructor\");\n\n//         // initializaing value\n//         name = _name;\n//         kyc = _kyc;\n//         mno = _mno;\n//         owner = _owner;\n//         id = _id;\n//     }\n\n//     struct patientRecord {\n//         uint256 date;\n//         address patient;\n//         string detail;\n//         string hash;\n//     }\n\n//     patientRecord[] patients;\n\n//     function recordLen() public view returns (uint256) {\n//         return patients.length;\n//     }\n\n//     function pRecord(uint256 _index)\n//         public\n//         view\n//         returns (patientRecord memory)\n//     {\n//         return patients[_index];\n//     }\n\n//     function addPatientRecord(\n//         string memory _details,\n//         string memory _hash,\n//         address _patient\n//     ) public {\n//         Patient patientContract = Patient(_patient);\n//         patientContract.addReport(_details, _hash);\n\n//         patientRecord memory pR =\n//             patientRecord({\n//                 date: block.timestamp,\n//                 patient: msg.sender,\n//                 detail: _details,\n//                 hash: _hash\n//             });\n//         patients.push(pR);\n//     }\n// }\n\n// contract Admin {\n//     address[] doctorsAddress;\n//     mapping(address => Doctor) doctors;\n//     mapping(address => bool) public exist;\n//     address public owner;\n\n//     // address public contractAddr;\n\n//     // function setContractAddr(address _addr) public {\n//     //     contractAddr = _addr;\n//     // }\n\n//     constructor() {\n//         owner = msg.sender;\n//     }\n\n//     modifier onlyOwner() {\n//         // modifier for only owner\n//         require(msg.sender == owner, \"You are not the Owner \");\n//         _;\n//     }\n\n//     function addDoctor(\n//         string memory _name,\n//         string memory _kyc,\n//         string memory _mno,\n//         address _owner,\n//         string memory _id\n//     ) public onlyOwner returns (address) {\n//         Doctor newDoctor = new Doctor(_name, _kyc, _mno, _owner, _id);\n//         doctorsAddress.push(_owner);\n//         doctors[_owner] = newDoctor;\n//         exist[address(newDoctor)] = true;\n//         return address(newDoctor);\n//     }\n\n//     function addPatient(\n//         string memory _name,\n//         string memory _kyc,\n//         string memory _bg,\n//         string memory _mno,\n//         address _owner\n//     ) public onlyOwner returns (address) {\n//         Patient newPatient =\n//             new Patient(_name, _kyc, _bg, _mno, _owner, address(this));\n//         return address(newPatient);\n//     }\n\n//     function showAddressofDoctors()\n//         external\n//         view\n//         onlyOwner\n//         returns (address[] memory)\n//     {\n//         return doctorsAddress;\n//     }\n\n//     function showDoctors(address _doc) external view returns (Doctor) {\n//         return doctors[_doc];\n//     }\n// }\n\n//SPDX-License-Identifier: GPL-3.0\npragma solidity ^0.7.0;\npragma experimental ABIEncoderV2;\n\ncontract Patient {\n    // Patient basic details\n    string public name;\n    string kyc;\n    string public bg;\n    string public mno;\n    address public owner;\n    Admin admin;\n\n    // mapping for viewers\n    mapping(address => bool) public viewers;\n\n    // mapping for editors\n    mapping(address => bool) public editors;\n\n    // report details\n    struct record {\n        uint256 date;\n        address doctor;\n        string detail;\n        string hash;\n    }\n\n    // array to store record\n    record[] details;\n\n    constructor(\n        string memory _name,\n        string memory _kyc,\n        string memory _bg,\n        string memory _mno,\n        address _owner,\n        address _admin\n    ) {\n        // initializaing value\n        admin = Admin(_admin);\n        name = _name;\n        kyc = _kyc;\n        bg = _bg;\n        mno = _mno;\n        owner = _owner;\n        viewers[owner] = true;\n    }\n\n    // only owner modifier\n    modifier onlyOwner() {\n        // modifier for only owner\n        require(msg.sender == owner, \"You are not the Owner \");\n        _;\n    }\n\n    // only viewers modifiers\n    modifier onlyViewer() {\n        // modifier for only owner\n        require(viewers[msg.sender], \"You don't have viewing rights\");\n        _;\n    }\n\n    // only editors modifiers\n    modifier onlyEditor() {\n        // modifier for only owner\n        require(editors[msg.sender], \"You dont have editing rights\");\n        _;\n    }\n\n    // setter for mobile number , as all the other details will never change ,so ony thing owner can change is mno\n\n    function setMno(string memory _mno) public onlyOwner {\n        // checking if the stake holder is eligible of not\n        mno = _mno;\n    }\n\n    // getter for basic details\n\n    function getPatientDetails()\n        public\n        view\n        onlyViewer\n        returns (\n            string memory,\n            string memory,\n            string memory,\n            string memory,\n            address\n        )\n    {\n        return (name, kyc, bg, mno, owner);\n    }\n\n    //set permissions for viewers\n    function addViewer(address _addr) public onlyOwner {\n        viewers[_addr] = true;\n    }\n\n    //set permissions for editors\n    function addEditor(address _addr) public onlyOwner {\n        editors[_addr] = true;\n    }\n\n    //revoke viewing rights\n    function removeViewer(address _addr) public onlyOwner {\n        viewers[_addr] = false;\n    }\n\n    //remove permissions for editors\n    function removeEditor(address _addr) public onlyOwner {\n        editors[_addr] = false;\n    }\n\n    // function for addinng details and report\n\n    function addReport(string memory _detail, string memory _hash)\n        public\n        onlyEditor\n    {\n        require(admin.existDA(msg.sender), \"You are not a registered Doctor\");\n\n        record memory newRecord =\n            record({\n                date: block.timestamp,\n                doctor: msg.sender,\n                detail: _detail,\n                hash: _hash\n            });\n        editors[msg.sender] = false;\n        viewers[msg.sender] = false;\n        details.push(newRecord);\n    }\n\n    // function array length\n\n    function getLength() public view onlyViewer returns (uint256) {\n        return (details.length);\n    }\n\n    // function for retriving report\n\n    function getReport(uint256 _index)\n        public\n        view\n        onlyViewer\n        returns (record memory)\n    {\n        return (details[_index]);\n    }\n}\n\n// TODO: Connection of doctor to patient is left for adding record\ncontract Doctor {\n    string public name;\n    string kyc;\n    string public mno;\n    string public id;\n    address public owner;\n\n    constructor(\n        string memory _name,\n        string memory _kyc,\n        string memory _mno,\n        address _owner,\n        string memory _id\n    ) {\n        //  Admin admin = Admin(msg.sender);\n        //  require(msg.sender == admin.contractAddr(),\"Only Admin contract can deploy constructor\");\n\n        // initializaing value\n        name = _name;\n        kyc = _kyc;\n        mno = _mno;\n        owner = _owner;\n        id = _id;\n    }\n\n    struct patientRecord {\n        uint256 date;\n        address patient;\n        string detail;\n        string hash;\n    }\n\n    patientRecord[] patients;\n\n    function recordLen() public view returns (uint256) {\n        return patients.length;\n    }\n\n    function pRecord(uint256 _index)\n        public\n        view\n        returns (patientRecord memory)\n    {\n        return patients[_index];\n    }\n\n    function addPatientRecord(\n        string memory _details,\n        string memory _hash,\n        address _patient\n    ) public {\n        Patient patientContract = Patient(_patient);\n        patientContract.addReport(_details, _hash);\n\n        patientRecord memory precord =\n            patientRecord({\n                date: block.timestamp,\n                patient: _patient,\n                detail: _details,\n                hash: _hash\n            });\n        patients.push(precord);\n    }\n}\n\ncontract Admin {\n    address[] public doctorsAddress;\n    mapping(address => address) public doctors;\n    mapping(address => address) public patients;\n    mapping(address => bool) public existD;\n    mapping(address => bool) public existDA;\n    mapping(address => bool) public existP;\n    address public owner;\n\n    // address public contractAddr;\n\n    // function setContractAddr(address _addr) public {\n    //     contractAddr = _addr;\n    // }\n\n    constructor() {\n        owner = msg.sender;\n    }\n\n    modifier onlyOwner() {\n        // modifier for only owner\n        require(msg.sender == owner, \"You are not the Owner \");\n        _;\n    }\n\n    function addDoctor(\n        string memory _name,\n        string memory _kyc,\n        string memory _mno,\n        address _owner,\n        string memory _id\n    ) public onlyOwner {\n        require(!existD[_owner], \"Account Already Exixt\");\n        Doctor newDoctor = new Doctor(_name, _kyc, _mno, _owner, _id);\n        doctorsAddress.push(_owner);\n        doctors[_owner] = address(newDoctor);\n        existD[_owner] = true;\n        existDA[address(newDoctor)] = true;\n    }\n\n    function addPatient(\n        string memory _name,\n        string memory _kyc,\n        string memory _bg,\n        string memory _mno,\n        address _owner\n    ) public onlyOwner {\n        require(!existP[_owner], \"Account Already Exixt\");\n        Patient newPatient =\n            new Patient(_name, _kyc, _bg, _mno, _owner, address(this));\n        patients[_owner] = address(newPatient);\n        existP[_owner] = true;\n    }\n}\n",
  "sourcePath": "/home/sourav/Documents/Programming/Blockchain-in-healthcare/contracts/Medical.sol",
  "compiler": {
    "name": "solc",
    "version": "0.7.0+commit.9e61f92b.Emscripten.clang"
  },
  "schemaVersion": "3.3.4",
  "updatedAt": "2021-05-02T03:50:03.885Z",
  "devdoc": {
    "kind": "dev",
    "methods": {},
    "version": 1
  },
  "userdoc": {
    "kind": "user",
    "methods": {},
    "version": 1
  }
}