{
  "contractName": "Doctor",
  "abi": [
    {
      "inputs": [
        {
          "internalType": "string",
          "name": "_name",
          "type": "string"
        },
        {
          "internalType": "string",
          "name": "_kyc",
          "type": "string"
        },
        {
          "internalType": "string",
          "name": "_mno",
          "type": "string"
        },
        {
          "internalType": "address",
          "name": "_owner",
          "type": "address"
        },
        {
          "internalType": "string",
          "name": "_id",
          "type": "string"
        }
      ],
      "stateMutability": "nonpayable",
      "type": "constructor"
    },
    {
      "inputs": [],
      "name": "id",
      "outputs": [
        {
          "internalType": "string",
          "name": "",
          "type": "string"
        }
      ],
      "stateMutability": "view",
      "type": "function"
    },
    {
      "inputs": [],
      "name": "mno",
      "outputs": [
        {
          "internalType": "string",
          "name": "",
          "type": "string"
        }
      ],
      "stateMutability": "view",
      "type": "function"
    },
    {
      "inputs": [],
      "name": "name",
      "outputs": [
        {
          "internalType": "string",
          "name": "",
          "type": "string"
        }
      ],
      "stateMutability": "view",
      "type": "function"
    },
    {
      "inputs": [],
      "name": "recordLen",
      "outputs": [
        {
          "internalType": "uint256",
          "name": "",
          "type": "uint256"
        }
      ],
      "stateMutability": "view",
      "type": "function"
    },
    {
      "inputs": [
        {
          "internalType": "uint256",
          "name": "_index",
          "type": "uint256"
        }
      ],
      "name": "pRecord",
      "outputs": [
        {
          "components": [
            {
              "internalType": "uint256",
              "name": "date",
              "type": "uint256"
            },
            {
              "internalType": "address",
              "name": "patient",
              "type": "address"
            },
            {
              "internalType": "string",
              "name": "detail",
              "type": "string"
            },
            {
              "internalType": "string",
              "name": "hash",
              "type": "string"
            }
          ],
          "internalType": "struct Doctor.patientRecord",
          "name": "",
          "type": "tuple"
        }
      ],
      "stateMutability": "view",
      "type": "function"
    },
    {
      "inputs": [
        {
          "internalType": "string",
          "name": "_details",
          "type": "string"
        },
        {
          "internalType": "string",
          "name": "_hash",
          "type": "string"
        },
        {
          "internalType": "address",
          "name": "_patient",
          "type": "address"
        }
      ],
      "name": "addPatientRecord",
      "outputs": [],
      "stateMutability": "nonpayable",
      "type": "function"
    }
  ],
  "bytecode": "0x60806040523480156200001157600080fd5b5060405162000f4c38038062000f4c833981810160405281019062000037919062000200565b84600090805190602001906200004f929190620000e7565b50836001908051906020019062000068929190620000e7565b50826002908051906020019062000081929190620000e7565b5081600460006101000a81548173ffffffffffffffffffffffffffffffffffffffff021916908373ffffffffffffffffffffffffffffffffffffffff1602179055508060039080519060200190620000db929190620000e7565b505050505050620003c5565b828054600181600116156101000203166002900490600052602060002090601f016020900481019282601f106200012a57805160ff19168380011785556200015b565b828001600101855582156200015b579182015b828111156200015a5782518255916020019190600101906200013d565b5b5090506200016a91906200016e565b5090565b5b80821115620001895760008160009055506001016200016f565b5090565b6000815190506200019e81620003ab565b92915050565b600082601f830112620001b657600080fd5b8151620001cd620001c78262000314565b620002e6565b91508082526020830160208301858383011115620001ea57600080fd5b620001f783828462000375565b50505092915050565b600080600080600060a086880312156200021957600080fd5b600086015167ffffffffffffffff8111156200023457600080fd5b6200024288828901620001a4565b955050602086015167ffffffffffffffff8111156200026057600080fd5b6200026e88828901620001a4565b945050604086015167ffffffffffffffff8111156200028c57600080fd5b6200029a88828901620001a4565b9350506060620002ad888289016200018d565b925050608086015167ffffffffffffffff811115620002cb57600080fd5b620002d988828901620001a4565b9150509295509295909350565b6000604051905081810181811067ffffffffffffffff821117156200030a57600080fd5b8060405250919050565b600067ffffffffffffffff8211156200032c57600080fd5b601f19601f8301169050602081019050919050565b60006200034e8262000355565b9050919050565b600073ffffffffffffffffffffffffffffffffffffffff82169050919050565b60005b838110156200039557808201518184015260208101905062000378565b83811115620003a5576000848401525b50505050565b620003b68162000341565b8114620003c257600080fd5b50565b610b7780620003d56000396000f3fe608060405234801561001057600080fd5b50600436106100625760003560e01c80630231192f1461006757806306fdde0314610085578063994e659c146100a35780639ea1f811146100d3578063af640d0f146100ef578063e45ab9c41461010d575b600080fd5b61006f61012b565b60405161007c91906109e3565b60405180910390f35b61008d610138565b60405161009a9190610968565b60405180910390f35b6100bd60048036038101906100b89190610836565b6101d6565b6040516100ca91906109c1565b60405180910390f35b6100ed60048036038101906100e891906107b7565b6103af565b005b6100f7610522565b6040516101049190610968565b60405180910390f35b6101156105c0565b6040516101229190610968565b60405180910390f35b6000600580549050905090565b60008054600181600116156101000203166002900480601f0160208091040260200160405190810160405280929190818152602001828054600181600116156101000203166002900480156101ce5780601f106101a3576101008083540402835291602001916101ce565b820191906000526020600020905b8154815290600101906020018083116101b157829003601f168201915b505050505081565b6101de61065e565b600582815481106101eb57fe5b9060005260206000209060040201604051806080016040529081600082015481526020016001820160009054906101000a900473ffffffffffffffffffffffffffffffffffffffff1673ffffffffffffffffffffffffffffffffffffffff1673ffffffffffffffffffffffffffffffffffffffff168152602001600282018054600181600116156101000203166002900480601f0160208091040260200160405190810160405280929190818152602001828054600181600116156101000203166002900480156102fd5780601f106102d2576101008083540402835291602001916102fd565b820191906000526020600020905b8154815290600101906020018083116102e057829003601f168201915b50505050508152602001600382018054600181600116156101000203166002900480601f01602080910402602001604051908101604052809291908181526020018280546001816001161561010002031660029004801561039f5780601f106103745761010080835404028352916020019161039f565b820191906000526020600020905b81548152906001019060200180831161038257829003601f168201915b5050505050815250509050919050565b60008190508073ffffffffffffffffffffffffffffffffffffffff16637a3e006685856040518363ffffffff1660e01b81526004016103ef92919061098a565b600060405180830381600087803b15801561040957600080fd5b505af115801561041d573d6000803e3d6000fd5b5050505061042961065e565b60405180608001604052804281526020013373ffffffffffffffffffffffffffffffffffffffff16815260200186815260200185815250905060058190806001815401808255809150506001900390600052602060002090600402016000909190919091506000820151816000015560208201518160010160006101000a81548173ffffffffffffffffffffffffffffffffffffffff021916908373ffffffffffffffffffffffffffffffffffffffff16021790555060408201518160020190805190602001906104fb92919061069c565b50606082015181600301908051906020019061051892919061069c565b5050505050505050565b60038054600181600116156101000203166002900480601f0160208091040260200160405190810160405280929190818152602001828054600181600116156101000203166002900480156105b85780601f1061058d576101008083540402835291602001916105b8565b820191906000526020600020905b81548152906001019060200180831161059b57829003601f168201915b505050505081565b60028054600181600116156101000203166002900480601f0160208091040260200160405190810160405280929190818152602001828054600181600116156101000203166002900480156106565780601f1061062b57610100808354040283529160200191610656565b820191906000526020600020905b81548152906001019060200180831161063957829003601f168201915b505050505081565b604051806080016040528060008152602001600073ffffffffffffffffffffffffffffffffffffffff16815260200160608152602001606081525090565b828054600181600116156101000203166002900490600052602060002090601f016020900481019282601f106106dd57805160ff191683800117855561070b565b8280016001018555821561070b579182015b8281111561070a5782518255916020019190600101906106ef565b5b509050610718919061071c565b5090565b5b8082111561073557600081600090555060010161071d565b5090565b60008135905061074881610b13565b92915050565b600082601f83011261075f57600080fd5b813561077261076d82610a2b565b6109fe565b9150808252602083016020830185838301111561078e57600080fd5b610799838284610ac0565b50505092915050565b6000813590506107b181610b2a565b92915050565b6000806000606084860312156107cc57600080fd5b600084013567ffffffffffffffff8111156107e657600080fd5b6107f28682870161074e565b935050602084013567ffffffffffffffff81111561080f57600080fd5b61081b8682870161074e565b925050604061082c86828701610739565b9150509250925092565b60006020828403121561084857600080fd5b6000610856848285016107a2565b91505092915050565b61086881610a84565b82525050565b600061087982610a57565b6108838185610a62565b9350610893818560208601610acf565b61089c81610b02565b840191505092915050565b60006108b282610a57565b6108bc8185610a73565b93506108cc818560208601610acf565b6108d581610b02565b840191505092915050565b60006080830160008301516108f8600086018261094a565b50602083015161090b602086018261085f565b5060408301518482036040860152610923828261086e565b9150506060830151848203606086015261093d828261086e565b9150508091505092915050565b61095381610ab6565b82525050565b61096281610ab6565b82525050565b6000602082019050818103600083015261098281846108a7565b905092915050565b600060408201905081810360008301526109a481856108a7565b905081810360208301526109b881846108a7565b90509392505050565b600060208201905081810360008301526109db81846108e0565b905092915050565b60006020820190506109f86000830184610959565b92915050565b6000604051905081810181811067ffffffffffffffff82111715610a2157600080fd5b8060405250919050565b600067ffffffffffffffff821115610a4257600080fd5b601f19601f8301169050602081019050919050565b600081519050919050565b600082825260208201905092915050565b600082825260208201905092915050565b6000610a8f82610a96565b9050919050565b600073ffffffffffffffffffffffffffffffffffffffff82169050919050565b6000819050919050565b82818337600083830152505050565b60005b83811015610aed578082015181840152602081019050610ad2565b83811115610afc576000848401525b50505050565b6000601f19601f8301169050919050565b610b1c81610a84565b8114610b2757600080fd5b50565b610b3381610ab6565b8114610b3e57600080fd5b5056fea26469706673582212206017ae06eede23ddc880d0f28db1862b4d3ae492b867c26665af9906971d593e64736f6c63430007000033",
  "immutableReferences": {},
  "source": "// // SPDX-License-Identifier: GPL-3.0\n\n// pragma solidity ^0.7.0;\n// pragma experimental ABIEncoderV2;\n\n// contract Patient {\n//     // Patient basic details\n//     string public name;\n//     string kyc;\n//     string bg;\n//     string mno;\n//     address public owner;\n//     Admin admin;\n\n//     // mapping for viewers\n//     mapping(address => bool) public viewers;\n\n//     // mapping for editors\n//     mapping(address => bool) public editors;\n\n//     // report details\n//     struct record {\n//         uint256 date;\n//         address doctor;\n//         string detail;\n//         string hash;\n//     }\n\n//     // array to store record\n//     record[] details;\n\n//     constructor(\n//         string memory _name,\n//         string memory _kyc,\n//         string memory _bg,\n//         string memory _mno,\n//         address _owner,\n//         address _admin\n//     ) {\n//         // initializaing value\n//         admin = Admin(_admin);\n//         name = _name;\n//         kyc = _kyc;\n//         bg = _bg;\n//         mno = _mno;\n//         owner = _owner;\n//         viewers[owner] = true;\n//     }\n\n//     // only owner modifier\n//     modifier onlyOwner() {\n//         // modifier for only owner\n//         require(msg.sender == owner, \"You are not the Owner \");\n//         _;\n//     }\n\n//     // only viewers modifiers\n//     modifier onlyViewer() {\n//         // modifier for only owner\n//         require(viewers[msg.sender], \"You don't have viewing rights\");\n//         _;\n//     }\n\n//     // only editors modifiers\n//     modifier onlyEditor() {\n//         // modifier for only owner\n//         require(editors[msg.sender], \"You dont have editing rights\");\n//         _;\n//     }\n\n//     // setter for mobile number , as all the other details will never change ,so ony thing owner can change is mno\n\n//     function setMno(string memory _mno) public onlyOwner {\n//         // checking if the stake holder is eligible of not\n//         mno = _mno;\n//     }\n\n//     // getter for basic details\n\n//     function getPatientDetails()\n//         public\n//         view\n//         onlyViewer\n//         returns (\n//             string memory,\n//             string memory,\n//             string memory,\n//             string memory,\n//             address\n//         )\n//     {\n//         return (name, kyc, bg, mno, owner);\n//     }\n\n//     //set permissions for viewers\n//     function addViewer(address _addr) public onlyOwner {\n//         viewers[_addr] = true;\n//     }\n\n//     //set permissions for editors\n//     function addEditor(address _addr) public onlyOwner {\n//         editors[_addr] = true;\n//         viewers[_addr] = true;\n//     }\n\n//     //revoke viewing rights\n//     function removeViewer(address _addr) public onlyOwner {\n//         viewers[_addr] = false;\n//     }\n\n//     //remove permissions for editors\n//     function removeEditor(address _addr) public onlyOwner {\n//         editors[_addr] = false;\n//         viewers[_addr] = false;\n//     }\n\n//     // function for addinng details and report\n\n//     function addReport(string memory _detail, string memory _hash)\n//         public\n//         onlyEditor\n//     {\n//         require(admin.exist(msg.sender), \"You are not a registered Doctor\");\n\n//         record memory newRecord =\n//             record({\n//                 date: block.timestamp,\n//                 doctor: msg.sender,\n//                 detail: _detail,\n//                 hash: _hash\n//             });\n//         editors[msg.sender] = false;\n//         viewers[msg.sender] = false;\n//         details.push(newRecord);\n//     }\n\n//     // function array length\n\n//     function getLength() public view onlyViewer returns (uint256) {\n//         return (details.length);\n//     }\n\n//     // function for retriving report\n\n//     function getReport(uint256 _index)\n//         public\n//         view\n//         onlyViewer\n//         returns (record memory)\n//     {\n//         return (details[_index]);\n//     }\n// }\n\n// // TODO: Connection of doctor to patient is left for adding record\n// contract Doctor {\n//     string public name;\n//     string kyc;\n//     string public mno;\n//     string public id;\n//     address owner;\n\n//     constructor(\n//         string memory _name,\n//         string memory _kyc,\n//         string memory _mno,\n//         address _owner,\n//         string memory _id\n//     ) {\n//         //  Admin admin = Admin(msg.sender);\n//         //  require(msg.sender == admin.contractAddr(),\"Only Admin contract can deploy constructor\");\n\n//         // initializaing value\n//         name = _name;\n//         kyc = _kyc;\n//         mno = _mno;\n//         owner = _owner;\n//         id = _id;\n//     }\n\n//     struct patientRecord {\n//         uint256 date;\n//         address patient;\n//         string detail;\n//         string hash;\n//     }\n\n//     patientRecord[] patients;\n\n//     function recordLen() public view returns (uint256) {\n//         return patients.length;\n//     }\n\n//     function pRecord(uint256 _index)\n//         public\n//         view\n//         returns (patientRecord memory)\n//     {\n//         return patients[_index];\n//     }\n\n//     function addPatientRecord(\n//         string memory _details,\n//         string memory _hash,\n//         address _patient\n//     ) public {\n//         Patient patientContract = Patient(_patient);\n//         patientContract.addReport(_details, _hash);\n\n//         patientRecord memory pR =\n//             patientRecord({\n//                 date: block.timestamp,\n//                 patient: msg.sender,\n//                 detail: _details,\n//                 hash: _hash\n//             });\n//         patients.push(pR);\n//     }\n// }\n\n// contract Admin {\n//     address[] doctorsAddress;\n//     mapping(address => Doctor) doctors;\n//     mapping(address => bool) public exist;\n//     address public owner;\n\n//     // address public contractAddr;\n\n//     // function setContractAddr(address _addr) public {\n//     //     contractAddr = _addr;\n//     // }\n\n//     constructor() {\n//         owner = msg.sender;\n//     }\n\n//     modifier onlyOwner() {\n//         // modifier for only owner\n//         require(msg.sender == owner, \"You are not the Owner \");\n//         _;\n//     }\n\n//     function addDoctor(\n//         string memory _name,\n//         string memory _kyc,\n//         string memory _mno,\n//         address _owner,\n//         string memory _id\n//     ) public onlyOwner returns (address) {\n//         Doctor newDoctor = new Doctor(_name, _kyc, _mno, _owner, _id);\n//         doctorsAddress.push(_owner);\n//         doctors[_owner] = newDoctor;\n//         exist[address(newDoctor)] = true;\n//         return address(newDoctor);\n//     }\n\n//     function addPatient(\n//         string memory _name,\n//         string memory _kyc,\n//         string memory _bg,\n//         string memory _mno,\n//         address _owner\n//     ) public onlyOwner returns (address) {\n//         Patient newPatient =\n//             new Patient(_name, _kyc, _bg, _mno, _owner, address(this));\n//         return address(newPatient);\n//     }\n\n//     function showAddressofDoctors()\n//         external\n//         view\n//         onlyOwner\n//         returns (address[] memory)\n//     {\n//         return doctorsAddress;\n//     }\n\n//     function showDoctors(address _doc) external view returns (Doctor) {\n//         return doctors[_doc];\n//     }\n// }\n\n// SPDX-License-Identifier: GPL-3.0\n\n// SPDX-License-Identifier: GPL-3.0\n\npragma solidity ^0.7.0;\npragma experimental ABIEncoderV2;\n\ncontract Patient {\n    // Patient basic details\n    string public name;\n    string kyc;\n    string public bg;\n    string public mno;\n    address public owner;\n    Admin admin;\n\n    // mapping for viewers\n    mapping(address => bool) public viewers;\n\n    // mapping for editors\n    mapping(address => bool) public editors;\n\n    // report details\n    struct record {\n        uint256 date;\n        address doctor;\n        string detail;\n        string hash;\n    }\n\n    // array to store record\n    record[] details;\n\n    constructor(\n        string memory _name,\n        string memory _kyc,\n        string memory _bg,\n        string memory _mno,\n        address _owner,\n        address _admin\n    ) {\n        // initializaing value\n        admin = Admin(_admin);\n        name = _name;\n        kyc = _kyc;\n        bg = _bg;\n        mno = _mno;\n        owner = _owner;\n        viewers[owner] = true;\n    }\n\n    // only owner modifier\n    modifier onlyOwner() {\n        // modifier for only owner\n        require(msg.sender == owner, \"You are not the Owner \");\n        _;\n    }\n\n    // only viewers modifiers\n    modifier onlyViewer() {\n        // modifier for only owner\n        require(viewers[msg.sender], \"You don't have viewing rights\");\n        _;\n    }\n\n    // only editors modifiers\n    modifier onlyEditor() {\n        // modifier for only owner\n        require(editors[msg.sender], \"You dont have editing rights\");\n        _;\n    }\n\n    // setter for mobile number , as all the other details will never change ,so ony thing owner can change is mno\n\n    function setMno(string memory _mno) public onlyOwner {\n        // checking if the stake holder is eligible of not\n        mno = _mno;\n    }\n\n    // getter for basic details\n\n    function getPatientDetails()\n        public\n        view\n        onlyViewer\n        returns (\n            string memory,\n            string memory,\n            string memory,\n            string memory,\n            address\n        )\n    {\n        return (name, kyc, bg, mno, owner);\n    }\n\n    //set permissions for viewers\n    function addViewer(address _addr) public onlyOwner {\n        viewers[_addr] = true;\n    }\n\n    //set permissions for editors\n    function addEditor(address _addr) public onlyOwner {\n        editors[_addr] = true;\n        viewers[_addr] = true;\n    }\n\n    //revoke viewing rights\n    function removeViewer(address _addr) public onlyOwner {\n        viewers[_addr] = false;\n    }\n\n    //remove permissions for editors\n    function removeEditor(address _addr) public onlyOwner {\n        editors[_addr] = false;\n        viewers[_addr] = false;\n    }\n\n    // function for addinng details and report\n\n    function addReport(string memory _detail, string memory _hash)\n        public\n        onlyEditor\n    {\n        require(admin.existD(msg.sender), \"You are not a registered Doctor\");\n\n        record memory newRecord =\n            record({\n                date: block.timestamp,\n                doctor: msg.sender,\n                detail: _detail,\n                hash: _hash\n            });\n        editors[msg.sender] = false;\n        viewers[msg.sender] = false;\n        details.push(newRecord);\n    }\n\n    // function array length\n\n    function getLength() public view onlyViewer returns (uint256) {\n        return (details.length);\n    }\n\n    // function for retriving report\n\n    function getReport(uint256 _index)\n        public\n        view\n        onlyViewer\n        returns (record memory)\n    {\n        return (details[_index]);\n    }\n}\n\n// TODO: Connection of doctor to patient is left for adding record\ncontract Doctor {\n    string public name;\n    string kyc;\n    string public mno;\n    string public id;\n    address owner;\n\n    constructor(\n        string memory _name,\n        string memory _kyc,\n        string memory _mno,\n        address _owner,\n        string memory _id\n    ) {\n        //  Admin admin = Admin(msg.sender);\n        //  require(msg.sender == admin.contractAddr(),\"Only Admin contract can deploy constructor\");\n\n        // initializaing value\n        name = _name;\n        kyc = _kyc;\n        mno = _mno;\n        owner = _owner;\n        id = _id;\n    }\n\n    struct patientRecord {\n        uint256 date;\n        address patient;\n        string detail;\n        string hash;\n    }\n\n    patientRecord[] patients;\n\n    function recordLen() public view returns (uint256) {\n        return patients.length;\n    }\n\n    function pRecord(uint256 _index)\n        public\n        view\n        returns (patientRecord memory)\n    {\n        return patients[_index];\n    }\n\n    function addPatientRecord(\n        string memory _details,\n        string memory _hash,\n        address _patient\n    ) public {\n        Patient patientContract = Patient(_patient);\n        patientContract.addReport(_details, _hash);\n\n        patientRecord memory precord =\n            patientRecord({\n                date: block.timestamp,\n                patient: msg.sender,\n                detail: _details,\n                hash: _hash\n            });\n        patients.push(precord);\n    }\n}\n\ncontract Admin {\n    address[] public doctorsAddress;\n    mapping(address => address) public doctors;\n    mapping(address => address) public patients;\n    mapping(address => bool) public existD;\n    mapping(address => bool) public existP;\n    address public owner;\n\n    // address public contractAddr;\n\n    // function setContractAddr(address _addr) public {\n    //     contractAddr = _addr;\n    // }\n\n    constructor() {\n        owner = msg.sender;\n    }\n\n    modifier onlyOwner() {\n        // modifier for only owner\n        require(msg.sender == owner, \"You are not the Owner \");\n        _;\n    }\n\n    function addDoctor(\n        string memory _name,\n        string memory _kyc,\n        string memory _mno,\n        address _owner,\n        string memory _id\n    ) public onlyOwner {\n        require(!existD[_owner], \"Account Already Exixt\");\n        Doctor newDoctor = new Doctor(_name, _kyc, _mno, _owner, _id);\n        doctorsAddress.push(_owner);\n        doctors[_owner] = address(newDoctor);\n        existD[_owner] = true;\n    }\n\n    function addPatient(\n        string memory _name,\n        string memory _kyc,\n        string memory _bg,\n        string memory _mno,\n        address _owner\n    ) public onlyOwner {\n        require(!existP[_owner], \"Account Already Exixt\");\n        Patient newPatient =\n            new Patient(_name, _kyc, _bg, _mno, _owner, address(this));\n        patients[_owner] = address(newPatient);\n        existP[_owner] = true;\n    }\n}\n",
  "sourcePath": "/home/sourav/Documents/Programming/Blockchain-in-healthcare/contracts/Medical.sol",
  "compiler": {
    "name": "solc",
    "version": "0.7.0+commit.9e61f92b.Emscripten.clang"
  },
  "schemaVersion": "3.3.4",
  "updatedAt": "2021-04-30T16:10:01.040Z",
  "devdoc": {
    "kind": "dev",
    "methods": {},
    "version": 1
  },
  "userdoc": {
    "kind": "user",
    "methods": {},
    "version": 1
  }
}