{
  "contractName": "Patient",
  "abi": [
    {
      "inputs": [
        {
          "internalType": "string",
          "name": "_name",
          "type": "string"
        },
        {
          "internalType": "string",
          "name": "_kyc",
          "type": "string"
        },
        {
          "internalType": "string",
          "name": "_bg",
          "type": "string"
        },
        {
          "internalType": "string",
          "name": "_mno",
          "type": "string"
        },
        {
          "internalType": "address",
          "name": "_owner",
          "type": "address"
        },
        {
          "internalType": "address",
          "name": "_admin",
          "type": "address"
        }
      ],
      "stateMutability": "nonpayable",
      "type": "constructor"
    },
    {
      "inputs": [
        {
          "internalType": "address",
          "name": "",
          "type": "address"
        }
      ],
      "name": "editors",
      "outputs": [
        {
          "internalType": "bool",
          "name": "",
          "type": "bool"
        }
      ],
      "stateMutability": "view",
      "type": "function"
    },
    {
      "inputs": [],
      "name": "name",
      "outputs": [
        {
          "internalType": "string",
          "name": "",
          "type": "string"
        }
      ],
      "stateMutability": "view",
      "type": "function"
    },
    {
      "inputs": [],
      "name": "owner",
      "outputs": [
        {
          "internalType": "address",
          "name": "",
          "type": "address"
        }
      ],
      "stateMutability": "view",
      "type": "function"
    },
    {
      "inputs": [
        {
          "internalType": "address",
          "name": "",
          "type": "address"
        }
      ],
      "name": "viewers",
      "outputs": [
        {
          "internalType": "bool",
          "name": "",
          "type": "bool"
        }
      ],
      "stateMutability": "view",
      "type": "function"
    },
    {
      "inputs": [
        {
          "internalType": "string",
          "name": "_mno",
          "type": "string"
        }
      ],
      "name": "setMno",
      "outputs": [],
      "stateMutability": "nonpayable",
      "type": "function"
    },
    {
      "inputs": [],
      "name": "getPatientDetails",
      "outputs": [
        {
          "internalType": "string",
          "name": "",
          "type": "string"
        },
        {
          "internalType": "string",
          "name": "",
          "type": "string"
        },
        {
          "internalType": "string",
          "name": "",
          "type": "string"
        },
        {
          "internalType": "string",
          "name": "",
          "type": "string"
        },
        {
          "internalType": "address",
          "name": "",
          "type": "address"
        }
      ],
      "stateMutability": "view",
      "type": "function"
    },
    {
      "inputs": [
        {
          "internalType": "address",
          "name": "_addr",
          "type": "address"
        }
      ],
      "name": "addViewer",
      "outputs": [],
      "stateMutability": "nonpayable",
      "type": "function"
    },
    {
      "inputs": [
        {
          "internalType": "address",
          "name": "_addr",
          "type": "address"
        }
      ],
      "name": "addEditor",
      "outputs": [],
      "stateMutability": "nonpayable",
      "type": "function"
    },
    {
      "inputs": [
        {
          "internalType": "address",
          "name": "_addr",
          "type": "address"
        }
      ],
      "name": "removeViewer",
      "outputs": [],
      "stateMutability": "nonpayable",
      "type": "function"
    },
    {
      "inputs": [
        {
          "internalType": "address",
          "name": "_addr",
          "type": "address"
        }
      ],
      "name": "removeEditor",
      "outputs": [],
      "stateMutability": "nonpayable",
      "type": "function"
    },
    {
      "inputs": [
        {
          "internalType": "string",
          "name": "_detail",
          "type": "string"
        },
        {
          "internalType": "string",
          "name": "_hash",
          "type": "string"
        }
      ],
      "name": "addReport",
      "outputs": [],
      "stateMutability": "nonpayable",
      "type": "function"
    },
    {
      "inputs": [],
      "name": "getLength",
      "outputs": [
        {
          "internalType": "uint256",
          "name": "",
          "type": "uint256"
        }
      ],
      "stateMutability": "view",
      "type": "function"
    },
    {
      "inputs": [
        {
          "internalType": "uint256",
          "name": "_index",
          "type": "uint256"
        }
      ],
      "name": "getReport",
      "outputs": [
        {
          "components": [
            {
              "internalType": "uint256",
              "name": "date",
              "type": "uint256"
            },
            {
              "internalType": "address",
              "name": "doctor",
              "type": "address"
            },
            {
              "internalType": "string",
              "name": "detail",
              "type": "string"
            },
            {
              "internalType": "string",
              "name": "hash",
              "type": "string"
            }
          ],
          "internalType": "struct Patient.record",
          "name": "",
          "type": "tuple"
        }
      ],
      "stateMutability": "view",
      "type": "function"
    }
  ],
  "bytecode": "0x60806040523480156200001157600080fd5b5060405162001ed738038062001ed78339818101604052810190620000379190620002bc565b80600560006101000a81548173ffffffffffffffffffffffffffffffffffffffff021916908373ffffffffffffffffffffffffffffffffffffffff160217905550856000908051906020019062000090929190620001a3565b508460019080519060200190620000a9929190620001a3565b508360029080519060200190620000c2929190620001a3565b508260039080519060200190620000db929190620001a3565b5081600460006101000a81548173ffffffffffffffffffffffffffffffffffffffff021916908373ffffffffffffffffffffffffffffffffffffffff160217905550600160066000600460009054906101000a900473ffffffffffffffffffffffffffffffffffffffff1673ffffffffffffffffffffffffffffffffffffffff1673ffffffffffffffffffffffffffffffffffffffff16815260200190815260200160002060006101000a81548160ff02191690831515021790555050505050505062000495565b828054600181600116156101000203166002900490600052602060002090601f016020900481019282601f10620001e657805160ff191683800117855562000217565b8280016001018555821562000217579182015b8281111562000216578251825591602001919060010190620001f9565b5b5090506200022691906200022a565b5090565b5b80821115620002455760008160009055506001016200022b565b5090565b6000815190506200025a816200047b565b92915050565b600082601f8301126200027257600080fd5b8151620002896200028382620003e4565b620003b6565b91508082526020830160208301858383011115620002a657600080fd5b620002b383828462000445565b50505092915050565b60008060008060008060c08789031215620002d657600080fd5b600087015167ffffffffffffffff811115620002f157600080fd5b620002ff89828a0162000260565b965050602087015167ffffffffffffffff8111156200031d57600080fd5b6200032b89828a0162000260565b955050604087015167ffffffffffffffff8111156200034957600080fd5b6200035789828a0162000260565b945050606087015167ffffffffffffffff8111156200037557600080fd5b6200038389828a0162000260565b93505060806200039689828a0162000249565b92505060a0620003a989828a0162000249565b9150509295509295509295565b6000604051905081810181811067ffffffffffffffff82111715620003da57600080fd5b8060405250919050565b600067ffffffffffffffff821115620003fc57600080fd5b601f19601f8301169050602081019050919050565b60006200041e8262000425565b9050919050565b600073ffffffffffffffffffffffffffffffffffffffff82169050919050565b60005b838110156200046557808201518184015260208101905062000448565b8381111562000475576000848401525b50505050565b620004868162000411565b81146200049257600080fd5b50565b611a3280620004a56000396000f3fe608060405234801561001057600080fd5b50600436106100cf5760003560e01c80638da5cb5b1161008c578063cd52844d11610066578063cd52844d146101fe578063d1d989141461022e578063e5975bdc1461024a578063f2f4adae14610266576100cf565b80638da5cb5b14610192578063a69439aa146101b0578063be1c766b146101e0576100cf565b806306fdde03146100d457806308e381cf146100f25780632d55feaf1461010e5780634e7f9b191461012a578063601f8cf51461015a5780637a3e006614610176575b600080fd5b6100dc610288565b6040516100e99190611712565b60405180910390f35b61010c600480360381019061010791906113b5565b610326565b005b61012860048036038101906101239190611363565b6103d0565b005b610144600480360381019061013f9190611462565b610513565b6040516101519190611823565b60405180910390f35b610174600480360381019061016f9190611363565b610778565b005b610190600480360381019061018b91906113f6565b610863565b005b61019a610b88565b6040516101a791906116c1565b60405180910390f35b6101ca60048036038101906101c59190611363565b610bae565b6040516101d791906116f7565b60405180910390f35b6101e8610bce565b6040516101f59190611845565b60405180910390f35b61021860048036038101906102139190611363565b610c67565b60405161022591906116f7565b60405180910390f35b61024860048036038101906102439190611363565b610c87565b005b610264600480360381019061025f9190611363565b610d72565b005b61026e610eb5565b60405161027f959493929190611734565b60405180910390f35b60008054600181600116156101000203166002900480601f01602080910402602001604051908101604052809291908181526020018280546001816001161561010002031660029004801561031e5780601f106102f35761010080835404028352916020019161031e565b820191906000526020600020905b81548152906001019060200180831161030157829003601f168201915b505050505081565b600460009054906101000a900473ffffffffffffffffffffffffffffffffffffffff1673ffffffffffffffffffffffffffffffffffffffff163373ffffffffffffffffffffffffffffffffffffffff16146103b6576040517f08c379a00000000000000000000000000000000000000000000000000000000081526004016103ad90611803565b60405180910390fd5b80600390805190602001906103cc9291906111f5565b5050565b600460009054906101000a900473ffffffffffffffffffffffffffffffffffffffff1673ffffffffffffffffffffffffffffffffffffffff163373ffffffffffffffffffffffffffffffffffffffff1614610460576040517f08c379a000000000000000000000000000000000000000000000000000000000815260040161045790611803565b60405180910390fd5b6000600760008373ffffffffffffffffffffffffffffffffffffffff1673ffffffffffffffffffffffffffffffffffffffff16815260200190815260200160002060006101000a81548160ff0219169083151502179055506000600660008373ffffffffffffffffffffffffffffffffffffffff1673ffffffffffffffffffffffffffffffffffffffff16815260200190815260200160002060006101000a81548160ff02191690831515021790555050565b61051b611275565b600660003373ffffffffffffffffffffffffffffffffffffffff1673ffffffffffffffffffffffffffffffffffffffff16815260200190815260200160002060009054906101000a900460ff166105a7576040517f08c379a000000000000000000000000000000000000000000000000000000000815260040161059e906117e3565b60405180910390fd5b600882815481106105b457fe5b9060005260206000209060040201604051806080016040529081600082015481526020016001820160009054906101000a900473ffffffffffffffffffffffffffffffffffffffff1673ffffffffffffffffffffffffffffffffffffffff1673ffffffffffffffffffffffffffffffffffffffff168152602001600282018054600181600116156101000203166002900480601f0160208091040260200160405190810160405280929190818152602001828054600181600116156101000203166002900480156106c65780601f1061069b576101008083540402835291602001916106c6565b820191906000526020600020905b8154815290600101906020018083116106a957829003601f168201915b50505050508152602001600382018054600181600116156101000203166002900480601f0160208091040260200160405190810160405280929190818152602001828054600181600116156101000203166002900480156107685780601f1061073d57610100808354040283529160200191610768565b820191906000526020600020905b81548152906001019060200180831161074b57829003601f168201915b5050505050815250509050919050565b600460009054906101000a900473ffffffffffffffffffffffffffffffffffffffff1673ffffffffffffffffffffffffffffffffffffffff163373ffffffffffffffffffffffffffffffffffffffff1614610808576040517f08c379a00000000000000000000000000000000000000000000000000000000081526004016107ff90611803565b60405180910390fd5b6001600660008373ffffffffffffffffffffffffffffffffffffffff1673ffffffffffffffffffffffffffffffffffffffff16815260200190815260200160002060006101000a81548160ff02191690831515021790555050565b600760003373ffffffffffffffffffffffffffffffffffffffff1673ffffffffffffffffffffffffffffffffffffffff16815260200190815260200160002060009054906101000a900460ff166108ef576040517f08c379a00000000000000000000000000000000000000000000000000000000081526004016108e6906117a3565b60405180910390fd5b600560009054906101000a900473ffffffffffffffffffffffffffffffffffffffff1673ffffffffffffffffffffffffffffffffffffffff16634dfefc4b336040518263ffffffff1660e01b815260040161094a91906116dc565b60206040518083038186803b15801561096257600080fd5b505afa158015610976573d6000803e3d6000fd5b505050506040513d601f19601f8201168201806040525081019061099a919061138c565b6109d9576040517f08c379a00000000000000000000000000000000000000000000000000000000081526004016109d0906117c3565b60405180910390fd5b6109e1611275565b60405180608001604052804281526020013373ffffffffffffffffffffffffffffffffffffffff1681526020018481526020018381525090506000600760003373ffffffffffffffffffffffffffffffffffffffff1673ffffffffffffffffffffffffffffffffffffffff16815260200190815260200160002060006101000a81548160ff0219169083151502179055506000600660003373ffffffffffffffffffffffffffffffffffffffff1673ffffffffffffffffffffffffffffffffffffffff16815260200190815260200160002060006101000a81548160ff02191690831515021790555060088190806001815401808255809150506001900390600052602060002090600402016000909190919091506000820151816000015560208201518160010160006101000a81548173ffffffffffffffffffffffffffffffffffffffff021916908373ffffffffffffffffffffffffffffffffffffffff1602179055506040820151816002019080519060200190610b639291906111f5565b506060820151816003019080519060200190610b809291906111f5565b505050505050565b600460009054906101000a900473ffffffffffffffffffffffffffffffffffffffff1681565b60066020528060005260406000206000915054906101000a900460ff1681565b6000600660003373ffffffffffffffffffffffffffffffffffffffff1673ffffffffffffffffffffffffffffffffffffffff16815260200190815260200160002060009054906101000a900460ff16610c5c576040517f08c379a0000000000000000000000000000000000000000000000000000000008152600401610c53906117e3565b60405180910390fd5b600880549050905090565b60076020528060005260406000206000915054906101000a900460ff1681565b600460009054906101000a900473ffffffffffffffffffffffffffffffffffffffff1673ffffffffffffffffffffffffffffffffffffffff163373ffffffffffffffffffffffffffffffffffffffff1614610d17576040517f08c379a0000000000000000000000000000000000000000000000000000000008152600401610d0e90611803565b60405180910390fd5b6000600660008373ffffffffffffffffffffffffffffffffffffffff1673ffffffffffffffffffffffffffffffffffffffff16815260200190815260200160002060006101000a81548160ff02191690831515021790555050565b600460009054906101000a900473ffffffffffffffffffffffffffffffffffffffff1673ffffffffffffffffffffffffffffffffffffffff163373ffffffffffffffffffffffffffffffffffffffff1614610e02576040517f08c379a0000000000000000000000000000000000000000000000000000000008152600401610df990611803565b60405180910390fd5b6001600760008373ffffffffffffffffffffffffffffffffffffffff1673ffffffffffffffffffffffffffffffffffffffff16815260200190815260200160002060006101000a81548160ff0219169083151502179055506001600660008373ffffffffffffffffffffffffffffffffffffffff1673ffffffffffffffffffffffffffffffffffffffff16815260200190815260200160002060006101000a81548160ff02191690831515021790555050565b6060806060806000600660003373ffffffffffffffffffffffffffffffffffffffff1673ffffffffffffffffffffffffffffffffffffffff16815260200190815260200160002060009054906101000a900460ff16610f49576040517f08c379a0000000000000000000000000000000000000000000000000000000008152600401610f40906117e3565b60405180910390fd5b6000600160026003600460009054906101000a900473ffffffffffffffffffffffffffffffffffffffff16848054600181600116156101000203166002900480601f0160208091040260200160405190810160405280929190818152602001828054600181600116156101000203166002900480156110095780601f10610fde57610100808354040283529160200191611009565b820191906000526020600020905b815481529060010190602001808311610fec57829003601f168201915b50505050509450838054600181600116156101000203166002900480601f0160208091040260200160405190810160405280929190818152602001828054600181600116156101000203166002900480156110a55780601f1061107a576101008083540402835291602001916110a5565b820191906000526020600020905b81548152906001019060200180831161108857829003601f168201915b50505050509350828054600181600116156101000203166002900480601f0160208091040260200160405190810160405280929190818152602001828054600181600116156101000203166002900480156111415780601f1061111657610100808354040283529160200191611141565b820191906000526020600020905b81548152906001019060200180831161112457829003601f168201915b50505050509250818054600181600116156101000203166002900480601f0160208091040260200160405190810160405280929190818152602001828054600181600116156101000203166002900480156111dd5780601f106111b2576101008083540402835291602001916111dd565b820191906000526020600020905b8154815290600101906020018083116111c057829003601f168201915b50505050509150945094509450945094509091929394565b828054600181600116156101000203166002900490600052602060002090601f016020900481019282601f1061123657805160ff1916838001178555611264565b82800160010185558215611264579182015b82811115611263578251825591602001919060010190611248565b5b50905061127191906112b3565b5090565b604051806080016040528060008152602001600073ffffffffffffffffffffffffffffffffffffffff16815260200160608152602001606081525090565b5b808211156112cc5760008160009055506001016112b4565b5090565b6000813590506112df816119b7565b92915050565b6000815190506112f4816119ce565b92915050565b600082601f83011261130b57600080fd5b813561131e6113198261188d565b611860565b9150808252602083016020830185838301111561133a57600080fd5b611345838284611964565b50505092915050565b60008135905061135d816119e5565b92915050565b60006020828403121561137557600080fd5b6000611383848285016112d0565b91505092915050565b60006020828403121561139e57600080fd5b60006113ac848285016112e5565b91505092915050565b6000602082840312156113c757600080fd5b600082013567ffffffffffffffff8111156113e157600080fd5b6113ed848285016112fa565b91505092915050565b6000806040838503121561140957600080fd5b600083013567ffffffffffffffff81111561142357600080fd5b61142f858286016112fa565b925050602083013567ffffffffffffffff81111561144c57600080fd5b611458858286016112fa565b9150509250929050565b60006020828403121561147457600080fd5b60006114828482850161134e565b91505092915050565b6114948161192e565b82525050565b6114a3816118e6565b82525050565b6114b2816118e6565b82525050565b6114c1816118f8565b82525050565b60006114d2826118b9565b6114dc81856118c4565b93506114ec818560208601611973565b6114f5816119a6565b840191505092915050565b600061150b826118b9565b61151581856118d5565b9350611525818560208601611973565b61152e816119a6565b840191505092915050565b6000611546601c836118d5565b91507f596f7520646f6e7420686176652065646974696e6720726967687473000000006000830152602082019050919050565b6000611586601f836118d5565b91507f596f7520617265206e6f742061207265676973746572656420446f63746f72006000830152602082019050919050565b60006115c6601d836118d5565b91507f596f7520646f6e277420686176652076696577696e67207269676874730000006000830152602082019050919050565b60006116066016836118d5565b91507f596f7520617265206e6f7420746865204f776e657220000000000000000000006000830152602082019050919050565b600060808301600083015161165160008601826116a3565b506020830151611664602086018261149a565b506040830151848203604086015261167c82826114c7565b9150506060830151848203606086015261169682826114c7565b9150508091505092915050565b6116ac81611924565b82525050565b6116bb81611924565b82525050565b60006020820190506116d660008301846114a9565b92915050565b60006020820190506116f1600083018461148b565b92915050565b600060208201905061170c60008301846114b8565b92915050565b6000602082019050818103600083015261172c8184611500565b905092915050565b600060a082019050818103600083015261174e8188611500565b905081810360208301526117628187611500565b905081810360408301526117768186611500565b9050818103606083015261178a8185611500565b905061179960808301846114a9565b9695505050505050565b600060208201905081810360008301526117bc81611539565b9050919050565b600060208201905081810360008301526117dc81611579565b9050919050565b600060208201905081810360008301526117fc816115b9565b9050919050565b6000602082019050818103600083015261181c816115f9565b9050919050565b6000602082019050818103600083015261183d8184611639565b905092915050565b600060208201905061185a60008301846116b2565b92915050565b6000604051905081810181811067ffffffffffffffff8211171561188357600080fd5b8060405250919050565b600067ffffffffffffffff8211156118a457600080fd5b601f19601f8301169050602081019050919050565b600081519050919050565b600082825260208201905092915050565b600082825260208201905092915050565b60006118f182611904565b9050919050565b60008115159050919050565b600073ffffffffffffffffffffffffffffffffffffffff82169050919050565b6000819050919050565b600061193982611940565b9050919050565b600061194b82611952565b9050919050565b600061195d82611904565b9050919050565b82818337600083830152505050565b60005b83811015611991578082015181840152602081019050611976565b838111156119a0576000848401525b50505050565b6000601f19601f8301169050919050565b6119c0816118e6565b81146119cb57600080fd5b50565b6119d7816118f8565b81146119e257600080fd5b50565b6119ee81611924565b81146119f957600080fd5b5056fea26469706673582212204f3d653435df9bda21b8fe314173ddd43954d0a36999fe9734e8d8c60553c25f64736f6c63430007000033",
  "immutableReferences": {},
  "source": "// SPDX-License-Identifier: GPL-3.0\n\npragma solidity ^0.7.0;\npragma experimental ABIEncoderV2;\n\ncontract Patient {\n    // Patient basic details\n    string public name;\n    string kyc;\n    string bg;\n    string mno;\n    address public owner;\n    Admin admin;\n\n    // mapping for viewers\n    mapping(address => bool) public viewers;\n\n    // mapping for editors\n    mapping(address => bool) public editors;\n\n    // report details\n    struct record {\n        uint256 date;\n        address doctor;\n        string detail;\n        string hash;\n    }\n\n    // array to store record\n    record[] details;\n\n    constructor(\n        string memory _name,\n        string memory _kyc,\n        string memory _bg,\n        string memory _mno,\n        address _owner,\n        address _admin\n    ) {\n        // initializaing value\n        admin = Admin(_admin);\n        name = _name;\n        kyc = _kyc;\n        bg = _bg;\n        mno = _mno;\n        owner = _owner;\n        viewers[owner] = true;\n    }\n\n    // only owner modifier\n    modifier onlyOwner() {\n        // modifier for only owner\n        require(msg.sender == owner, \"You are not the Owner \");\n        _;\n    }\n\n    // only viewers modifiers\n    modifier onlyViewer() {\n        // modifier for only owner\n        require(viewers[msg.sender], \"You don't have viewing rights\");\n        _;\n    }\n\n    // only editors modifiers\n    modifier onlyEditor() {\n        // modifier for only owner\n        require(editors[msg.sender], \"You dont have editing rights\");\n        _;\n    }\n\n    // setter for mobile number , as all the other details will never change ,so ony thing owner can change is mno\n\n    function setMno(string memory _mno) public onlyOwner {\n        // checking if the stake holder is eligible of not\n        mno = _mno;\n    }\n\n    // getter for basic details\n\n    function getPatientDetails()\n        public\n        view\n        onlyViewer\n        returns (\n            string memory,\n            string memory,\n            string memory,\n            string memory,\n            address\n        )\n    {\n        return (name, kyc, bg, mno, owner);\n    }\n\n    //set permissions for viewers\n    function addViewer(address _addr) public onlyOwner {\n        viewers[_addr] = true;\n    }\n\n    //set permissions for editors\n    function addEditor(address _addr) public onlyOwner {\n        editors[_addr] = true;\n        viewers[_addr] = true;\n    }\n\n    //revoke viewing rights\n    function removeViewer(address _addr) public onlyOwner {\n        viewers[_addr] = false;\n    }\n\n    //remove permissions for editors\n    function removeEditor(address _addr) public onlyOwner {\n        editors[_addr] = false;\n        viewers[_addr] = false;\n    }\n\n    // function for addinng details and report\n\n    function addReport(string memory _detail, string memory _hash)\n        public\n        onlyEditor\n    {\n        require(admin.exist(msg.sender), \"You are not a registered Doctor\");\n\n        record memory newRecord =\n            record({\n                date: block.timestamp,\n                doctor: msg.sender,\n                detail: _detail,\n                hash: _hash\n            });\n        editors[msg.sender] = false;\n        viewers[msg.sender] = false;\n        details.push(newRecord);\n    }\n\n    // function array length\n\n    function getLength() public view onlyViewer returns (uint256) {\n        return (details.length);\n    }\n\n    // function for retriving report\n\n    function getReport(uint256 _index)\n        public\n        view\n        onlyViewer\n        returns (record memory)\n    {\n        return (details[_index]);\n    }\n}\n\n// TODO: Connection of doctor to patient is left for adding record\ncontract Doctor {\n    string public name;\n    string kyc;\n    string mno;\n    string public id;\n    address owner;\n\n    constructor(\n        string memory _name,\n        string memory _kyc,\n        string memory _mno,\n        address _owner,\n        string memory _id\n    ) {\n        //  Admin admin = Admin(msg.sender);\n        //  require(msg.sender == admin.contractAddr(),\"Only Admin contract can deploy constructor\");\n\n        // initializaing value\n        name = _name;\n        kyc = _kyc;\n        mno = _mno;\n        owner = _owner;\n        id = _id;\n    }\n\n    struct patientRecord {\n        uint256 date;\n        address patient;\n        string detail;\n        string hash;\n    }\n\n    patientRecord[] patients;\n\n    function recordLen() public view returns (uint256) {\n        return patients.length;\n    }\n\n    function pRecord(uint256 _index)\n        public\n        view\n        returns (patientRecord memory)\n    {\n        return patients[_index];\n    }\n\n    function addPatientRecord(\n        string memory _details,\n        string memory _hash,\n        address _patient\n    ) public {\n        Patient patientContract = Patient(_patient);\n        patientContract.addReport(_details, _hash);\n\n        patientRecord memory pR =\n            patientRecord({\n                date: block.timestamp,\n                patient: msg.sender,\n                detail: _details,\n                hash: _hash\n            });\n        patients.push(pR);\n    }\n}\n\ncontract Admin {\n    address[] doctorsAddress;\n    mapping(address => Doctor) doctors;\n    mapping(address => bool) public exist;\n    address public owner;\n\n    // address public contractAddr;\n\n    // function setContractAddr(address _addr) public {\n    //     contractAddr = _addr;\n    // }\n\n    constructor() {\n        owner = msg.sender;\n    }\n\n    modifier onlyOwner() {\n        // modifier for only owner\n        require(msg.sender == owner, \"You are not the Owner \");\n        _;\n    }\n\n    function addDoctor(\n        string memory _name,\n        string memory _kyc,\n        string memory _mno,\n        address _owner,\n        string memory _id\n    ) public onlyOwner returns (Doctor) {\n        Doctor newDoctor = new Doctor(_name, _kyc, _mno, _owner, _id);\n        doctorsAddress.push(_owner);\n        doctors[_owner] = newDoctor;\n        exist[address(newDoctor)] = true;\n        return newDoctor;\n    }\n\n    function addPatient(\n        string memory _name,\n        string memory _kyc,\n        string memory _bg,\n        string memory _mno,\n        address _owner\n    ) public onlyOwner returns (Patient) {\n        Patient newPatient =\n            new Patient(_name, _kyc, _bg, _mno, _owner, address(this));\n        return newPatient;\n    }\n\n    function showAddressofDoctors()\n        external\n        view\n        onlyOwner\n        returns (address[] memory)\n    {\n        return doctorsAddress;\n    }\n\n    function showDoctors(address _doc) external view returns (Doctor) {\n        return doctors[_doc];\n    }\n}\n",
  "sourcePath": "/home/sourav/Documents/Programming/Blockchain-in-healthcare/contracts/Medical.sol",
  "compiler": {
    "name": "solc",
    "version": "0.7.0+commit.9e61f92b.Emscripten.clang"
  },
  "schemaVersion": "3.3.4",
  "updatedAt": "2021-04-24T17:24:05.361Z",
  "devdoc": {
    "kind": "dev",
    "methods": {},
    "version": 1
  },
  "userdoc": {
    "kind": "user",
    "methods": {},
    "version": 1
  }
}