{
  "contractName": "Patient",
  "abi": [
    {
      "inputs": [
        {
          "internalType": "string",
          "name": "_name",
          "type": "string"
        },
        {
          "internalType": "string",
          "name": "_age",
          "type": "string"
        },
        {
          "internalType": "string",
          "name": "_kyc",
          "type": "string"
        },
        {
          "internalType": "string",
          "name": "_bg",
          "type": "string"
        },
        {
          "internalType": "string",
          "name": "_mno",
          "type": "string"
        },
        {
          "internalType": "address",
          "name": "_owner",
          "type": "address"
        },
        {
          "internalType": "address",
          "name": "_admin",
          "type": "address"
        }
      ],
      "stateMutability": "nonpayable",
      "type": "constructor"
    },
    {
      "inputs": [],
      "name": "age",
      "outputs": [
        {
          "internalType": "string",
          "name": "",
          "type": "string"
        }
      ],
      "stateMutability": "view",
      "type": "function"
    },
    {
      "inputs": [],
      "name": "bg",
      "outputs": [
        {
          "internalType": "string",
          "name": "",
          "type": "string"
        }
      ],
      "stateMutability": "view",
      "type": "function"
    },
    {
      "inputs": [
        {
          "internalType": "address",
          "name": "",
          "type": "address"
        }
      ],
      "name": "editors",
      "outputs": [
        {
          "internalType": "bool",
          "name": "",
          "type": "bool"
        }
      ],
      "stateMutability": "view",
      "type": "function"
    },
    {
      "inputs": [],
      "name": "mno",
      "outputs": [
        {
          "internalType": "string",
          "name": "",
          "type": "string"
        }
      ],
      "stateMutability": "view",
      "type": "function"
    },
    {
      "inputs": [],
      "name": "name",
      "outputs": [
        {
          "internalType": "string",
          "name": "",
          "type": "string"
        }
      ],
      "stateMutability": "view",
      "type": "function"
    },
    {
      "inputs": [],
      "name": "owner",
      "outputs": [
        {
          "internalType": "address",
          "name": "",
          "type": "address"
        }
      ],
      "stateMutability": "view",
      "type": "function"
    },
    {
      "inputs": [
        {
          "internalType": "address",
          "name": "",
          "type": "address"
        }
      ],
      "name": "viewers",
      "outputs": [
        {
          "internalType": "bool",
          "name": "",
          "type": "bool"
        }
      ],
      "stateMutability": "view",
      "type": "function"
    },
    {
      "inputs": [
        {
          "internalType": "string",
          "name": "_mno",
          "type": "string"
        }
      ],
      "name": "setMno",
      "outputs": [],
      "stateMutability": "nonpayable",
      "type": "function"
    },
    {
      "inputs": [],
      "name": "getPatientDetails",
      "outputs": [
        {
          "internalType": "string",
          "name": "",
          "type": "string"
        },
        {
          "internalType": "string",
          "name": "",
          "type": "string"
        },
        {
          "internalType": "string",
          "name": "",
          "type": "string"
        },
        {
          "internalType": "string",
          "name": "",
          "type": "string"
        },
        {
          "internalType": "address",
          "name": "",
          "type": "address"
        }
      ],
      "stateMutability": "view",
      "type": "function"
    },
    {
      "inputs": [
        {
          "internalType": "address",
          "name": "_addr",
          "type": "address"
        }
      ],
      "name": "addViewer",
      "outputs": [],
      "stateMutability": "nonpayable",
      "type": "function"
    },
    {
      "inputs": [
        {
          "internalType": "address",
          "name": "_addr",
          "type": "address"
        }
      ],
      "name": "addEditor",
      "outputs": [],
      "stateMutability": "nonpayable",
      "type": "function"
    },
    {
      "inputs": [
        {
          "internalType": "address",
          "name": "_addr",
          "type": "address"
        }
      ],
      "name": "removeViewer",
      "outputs": [],
      "stateMutability": "nonpayable",
      "type": "function"
    },
    {
      "inputs": [
        {
          "internalType": "address",
          "name": "_addr",
          "type": "address"
        }
      ],
      "name": "removeEditor",
      "outputs": [],
      "stateMutability": "nonpayable",
      "type": "function"
    },
    {
      "inputs": [
        {
          "internalType": "string",
          "name": "_detail",
          "type": "string"
        },
        {
          "internalType": "string",
          "name": "_hash",
          "type": "string"
        }
      ],
      "name": "addReport",
      "outputs": [],
      "stateMutability": "nonpayable",
      "type": "function"
    },
    {
      "inputs": [],
      "name": "getLength",
      "outputs": [
        {
          "internalType": "uint256",
          "name": "",
          "type": "uint256"
        }
      ],
      "stateMutability": "view",
      "type": "function"
    },
    {
      "inputs": [
        {
          "internalType": "uint256",
          "name": "_index",
          "type": "uint256"
        }
      ],
      "name": "getReport",
      "outputs": [
        {
          "components": [
            {
              "internalType": "uint256",
              "name": "date",
              "type": "uint256"
            },
            {
              "internalType": "address",
              "name": "doctor",
              "type": "address"
            },
            {
              "internalType": "string",
              "name": "detail",
              "type": "string"
            },
            {
              "internalType": "string",
              "name": "hash",
              "type": "string"
            }
          ],
          "internalType": "struct Patient.record",
          "name": "",
          "type": "tuple"
        }
      ],
      "stateMutability": "view",
      "type": "function"
    }
  ],
  "bytecode": "0x60806040523480156200001157600080fd5b50604051620020d6380380620020d68339818101604052810190620000379190620002d6565b80600660006101000a81548173ffffffffffffffffffffffffffffffffffffffff021916908373ffffffffffffffffffffffffffffffffffffffff160217905550866000908051906020019062000090929190620001bd565b508460029080519060200190620000a9929190620001bd565b508360039080519060200190620000c2929190620001bd565b508260049080519060200190620000db929190620001bd565b5081600560006101000a81548173ffffffffffffffffffffffffffffffffffffffff021916908373ffffffffffffffffffffffffffffffffffffffff160217905550856001908051906020019062000135929190620001bd565b50600160076000600560009054906101000a900473ffffffffffffffffffffffffffffffffffffffff1673ffffffffffffffffffffffffffffffffffffffff1673ffffffffffffffffffffffffffffffffffffffff16815260200190815260200160002060006101000a81548160ff02191690831515021790555050505050505050620004df565b828054600181600116156101000203166002900490600052602060002090601f016020900481019282601f106200020057805160ff191683800117855562000231565b8280016001018555821562000231579182015b828111156200023057825182559160200191906001019062000213565b5b50905062000240919062000244565b5090565b5b808211156200025f57600081600090555060010162000245565b5090565b6000815190506200027481620004c5565b92915050565b600082601f8301126200028c57600080fd5b8151620002a36200029d826200042e565b62000400565b91508082526020830160208301858383011115620002c057600080fd5b620002cd8382846200048f565b50505092915050565b600080600080600080600060e0888a031215620002f257600080fd5b600088015167ffffffffffffffff8111156200030d57600080fd5b6200031b8a828b016200027a565b975050602088015167ffffffffffffffff8111156200033957600080fd5b620003478a828b016200027a565b965050604088015167ffffffffffffffff8111156200036557600080fd5b620003738a828b016200027a565b955050606088015167ffffffffffffffff8111156200039157600080fd5b6200039f8a828b016200027a565b945050608088015167ffffffffffffffff811115620003bd57600080fd5b620003cb8a828b016200027a565b93505060a0620003de8a828b0162000263565b92505060c0620003f18a828b0162000263565b91505092959891949750929550565b6000604051905081810181811067ffffffffffffffff821117156200042457600080fd5b8060405250919050565b600067ffffffffffffffff8211156200044657600080fd5b601f19601f8301169050602081019050919050565b600062000468826200046f565b9050919050565b600073ffffffffffffffffffffffffffffffffffffffff82169050919050565b60005b83811015620004af57808201518184015260208101905062000492565b83811115620004bf576000848401525b50505050565b620004d0816200045b565b8114620004dc57600080fd5b50565b611be780620004ef6000396000f3fe608060405234801561001057600080fd5b50600436106101005760003560e01c8063a69439aa11610097578063d1d9891411610066578063d1d989141461029b578063e45ab9c4146102b7578063e5975bdc146102d5578063f2f4adae146102f157610100565b8063a69439aa146101ff578063b08bc8a51461022f578063be1c766b1461024d578063cd52844d1461026b57610100565b80634e7f9b19116100d35780634e7f9b1914610179578063601f8cf5146101a95780637a3e0066146101c55780638da5cb5b146101e157610100565b806306fdde031461010557806308e381cf14610123578063262a9dff1461013f5780632d55feaf1461015d575b600080fd5b61010d610313565b60405161011a91906118c7565b60405180910390f35b61013d6004803603810190610138919061156a565b6103b1565b005b61014761045b565b60405161015491906118c7565b60405180910390f35b61017760048036038101906101729190611518565b6104f9565b005b610193600480360381019061018e9190611617565b6105e4565b6040516101a091906119d8565b60405180910390f35b6101c360048036038101906101be9190611518565b610849565b005b6101df60048036038101906101da91906115ab565b610934565b005b6101e9610c59565b6040516101f69190611876565b60405180910390f35b61021960048036038101906102149190611518565b610c7f565b60405161022691906118ac565b60405180910390f35b610237610c9f565b60405161024491906118c7565b60405180910390f35b610255610d3d565b60405161026291906119fa565b60405180910390f35b61028560048036038101906102809190611518565b610dd6565b60405161029291906118ac565b60405180910390f35b6102b560048036038101906102b09190611518565b610df6565b005b6102bf610ee1565b6040516102cc91906118c7565b60405180910390f35b6102ef60048036038101906102ea9190611518565b610f7f565b005b6102f961106a565b60405161030a9594939291906118e9565b60405180910390f35b60008054600181600116156101000203166002900480601f0160208091040260200160405190810160405280929190818152602001828054600181600116156101000203166002900480156103a95780601f1061037e576101008083540402835291602001916103a9565b820191906000526020600020905b81548152906001019060200180831161038c57829003601f168201915b505050505081565b600560009054906101000a900473ffffffffffffffffffffffffffffffffffffffff1673ffffffffffffffffffffffffffffffffffffffff163373ffffffffffffffffffffffffffffffffffffffff1614610441576040517f08c379a0000000000000000000000000000000000000000000000000000000008152600401610438906119b8565b60405180910390fd5b80600490805190602001906104579291906113aa565b5050565b60018054600181600116156101000203166002900480601f0160208091040260200160405190810160405280929190818152602001828054600181600116156101000203166002900480156104f15780601f106104c6576101008083540402835291602001916104f1565b820191906000526020600020905b8154815290600101906020018083116104d457829003601f168201915b505050505081565b600560009054906101000a900473ffffffffffffffffffffffffffffffffffffffff1673ffffffffffffffffffffffffffffffffffffffff163373ffffffffffffffffffffffffffffffffffffffff1614610589576040517f08c379a0000000000000000000000000000000000000000000000000000000008152600401610580906119b8565b60405180910390fd5b6000600860008373ffffffffffffffffffffffffffffffffffffffff1673ffffffffffffffffffffffffffffffffffffffff16815260200190815260200160002060006101000a81548160ff02191690831515021790555050565b6105ec61142a565b600760003373ffffffffffffffffffffffffffffffffffffffff1673ffffffffffffffffffffffffffffffffffffffff16815260200190815260200160002060009054906101000a900460ff16610678576040517f08c379a000000000000000000000000000000000000000000000000000000000815260040161066f90611998565b60405180910390fd5b6009828154811061068557fe5b9060005260206000209060040201604051806080016040529081600082015481526020016001820160009054906101000a900473ffffffffffffffffffffffffffffffffffffffff1673ffffffffffffffffffffffffffffffffffffffff1673ffffffffffffffffffffffffffffffffffffffff168152602001600282018054600181600116156101000203166002900480601f0160208091040260200160405190810160405280929190818152602001828054600181600116156101000203166002900480156107975780601f1061076c57610100808354040283529160200191610797565b820191906000526020600020905b81548152906001019060200180831161077a57829003601f168201915b50505050508152602001600382018054600181600116156101000203166002900480601f0160208091040260200160405190810160405280929190818152602001828054600181600116156101000203166002900480156108395780601f1061080e57610100808354040283529160200191610839565b820191906000526020600020905b81548152906001019060200180831161081c57829003601f168201915b5050505050815250509050919050565b600560009054906101000a900473ffffffffffffffffffffffffffffffffffffffff1673ffffffffffffffffffffffffffffffffffffffff163373ffffffffffffffffffffffffffffffffffffffff16146108d9576040517f08c379a00000000000000000000000000000000000000000000000000000000081526004016108d0906119b8565b60405180910390fd5b6001600760008373ffffffffffffffffffffffffffffffffffffffff1673ffffffffffffffffffffffffffffffffffffffff16815260200190815260200160002060006101000a81548160ff02191690831515021790555050565b600860003373ffffffffffffffffffffffffffffffffffffffff1673ffffffffffffffffffffffffffffffffffffffff16815260200190815260200160002060009054906101000a900460ff166109c0576040517f08c379a00000000000000000000000000000000000000000000000000000000081526004016109b790611958565b60405180910390fd5b600660009054906101000a900473ffffffffffffffffffffffffffffffffffffffff1673ffffffffffffffffffffffffffffffffffffffff16630bb8e74d336040518263ffffffff1660e01b8152600401610a1b9190611891565b60206040518083038186803b158015610a3357600080fd5b505afa158015610a47573d6000803e3d6000fd5b505050506040513d601f19601f82011682018060405250810190610a6b9190611541565b610aaa576040517f08c379a0000000000000000000000000000000000000000000000000000000008152600401610aa190611978565b60405180910390fd5b610ab261142a565b60405180608001604052804281526020013373ffffffffffffffffffffffffffffffffffffffff1681526020018481526020018381525090506000600860003373ffffffffffffffffffffffffffffffffffffffff1673ffffffffffffffffffffffffffffffffffffffff16815260200190815260200160002060006101000a81548160ff0219169083151502179055506000600760003373ffffffffffffffffffffffffffffffffffffffff1673ffffffffffffffffffffffffffffffffffffffff16815260200190815260200160002060006101000a81548160ff02191690831515021790555060098190806001815401808255809150506001900390600052602060002090600402016000909190919091506000820151816000015560208201518160010160006101000a81548173ffffffffffffffffffffffffffffffffffffffff021916908373ffffffffffffffffffffffffffffffffffffffff1602179055506040820151816002019080519060200190610c349291906113aa565b506060820151816003019080519060200190610c519291906113aa565b505050505050565b600560009054906101000a900473ffffffffffffffffffffffffffffffffffffffff1681565b60076020528060005260406000206000915054906101000a900460ff1681565b60038054600181600116156101000203166002900480601f016020809104026020016040519081016040528092919081815260200182805460018160011615610100020316600290048015610d355780601f10610d0a57610100808354040283529160200191610d35565b820191906000526020600020905b815481529060010190602001808311610d1857829003601f168201915b505050505081565b6000600760003373ffffffffffffffffffffffffffffffffffffffff1673ffffffffffffffffffffffffffffffffffffffff16815260200190815260200160002060009054906101000a900460ff16610dcb576040517f08c379a0000000000000000000000000000000000000000000000000000000008152600401610dc290611998565b60405180910390fd5b600980549050905090565b60086020528060005260406000206000915054906101000a900460ff1681565b600560009054906101000a900473ffffffffffffffffffffffffffffffffffffffff1673ffffffffffffffffffffffffffffffffffffffff163373ffffffffffffffffffffffffffffffffffffffff1614610e86576040517f08c379a0000000000000000000000000000000000000000000000000000000008152600401610e7d906119b8565b60405180910390fd5b6000600760008373ffffffffffffffffffffffffffffffffffffffff1673ffffffffffffffffffffffffffffffffffffffff16815260200190815260200160002060006101000a81548160ff02191690831515021790555050565b60048054600181600116156101000203166002900480601f016020809104026020016040519081016040528092919081815260200182805460018160011615610100020316600290048015610f775780601f10610f4c57610100808354040283529160200191610f77565b820191906000526020600020905b815481529060010190602001808311610f5a57829003601f168201915b505050505081565b600560009054906101000a900473ffffffffffffffffffffffffffffffffffffffff1673ffffffffffffffffffffffffffffffffffffffff163373ffffffffffffffffffffffffffffffffffffffff161461100f576040517f08c379a0000000000000000000000000000000000000000000000000000000008152600401611006906119b8565b60405180910390fd5b6001600860008373ffffffffffffffffffffffffffffffffffffffff1673ffffffffffffffffffffffffffffffffffffffff16815260200190815260200160002060006101000a81548160ff02191690831515021790555050565b6060806060806000600760003373ffffffffffffffffffffffffffffffffffffffff1673ffffffffffffffffffffffffffffffffffffffff16815260200190815260200160002060009054906101000a900460ff166110fe576040517f08c379a00000000000000000000000000000000000000000000000000000000081526004016110f590611998565b60405180910390fd5b6000600260036004600560009054906101000a900473ffffffffffffffffffffffffffffffffffffffff16848054600181600116156101000203166002900480601f0160208091040260200160405190810160405280929190818152602001828054600181600116156101000203166002900480156111be5780601f10611193576101008083540402835291602001916111be565b820191906000526020600020905b8154815290600101906020018083116111a157829003601f168201915b50505050509450838054600181600116156101000203166002900480601f01602080910402602001604051908101604052809291908181526020018280546001816001161561010002031660029004801561125a5780601f1061122f5761010080835404028352916020019161125a565b820191906000526020600020905b81548152906001019060200180831161123d57829003601f168201915b50505050509350828054600181600116156101000203166002900480601f0160208091040260200160405190810160405280929190818152602001828054600181600116156101000203166002900480156112f65780601f106112cb576101008083540402835291602001916112f6565b820191906000526020600020905b8154815290600101906020018083116112d957829003601f168201915b50505050509250818054600181600116156101000203166002900480601f0160208091040260200160405190810160405280929190818152602001828054600181600116156101000203166002900480156113925780601f1061136757610100808354040283529160200191611392565b820191906000526020600020905b81548152906001019060200180831161137557829003601f168201915b50505050509150945094509450945094509091929394565b828054600181600116156101000203166002900490600052602060002090601f016020900481019282601f106113eb57805160ff1916838001178555611419565b82800160010185558215611419579182015b828111156114185782518255916020019190600101906113fd565b5b5090506114269190611468565b5090565b604051806080016040528060008152602001600073ffffffffffffffffffffffffffffffffffffffff16815260200160608152602001606081525090565b5b80821115611481576000816000905550600101611469565b5090565b60008135905061149481611b6c565b92915050565b6000815190506114a981611b83565b92915050565b600082601f8301126114c057600080fd5b81356114d36114ce82611a42565b611a15565b915080825260208301602083018583830111156114ef57600080fd5b6114fa838284611b19565b50505092915050565b60008135905061151281611b9a565b92915050565b60006020828403121561152a57600080fd5b600061153884828501611485565b91505092915050565b60006020828403121561155357600080fd5b60006115618482850161149a565b91505092915050565b60006020828403121561157c57600080fd5b600082013567ffffffffffffffff81111561159657600080fd5b6115a2848285016114af565b91505092915050565b600080604083850312156115be57600080fd5b600083013567ffffffffffffffff8111156115d857600080fd5b6115e4858286016114af565b925050602083013567ffffffffffffffff81111561160157600080fd5b61160d858286016114af565b9150509250929050565b60006020828403121561162957600080fd5b600061163784828501611503565b91505092915050565b61164981611ae3565b82525050565b61165881611a9b565b82525050565b61166781611a9b565b82525050565b61167681611aad565b82525050565b600061168782611a6e565b6116918185611a79565b93506116a1818560208601611b28565b6116aa81611b5b565b840191505092915050565b60006116c082611a6e565b6116ca8185611a8a565b93506116da818560208601611b28565b6116e381611b5b565b840191505092915050565b60006116fb601c83611a8a565b91507f596f7520646f6e7420686176652065646974696e6720726967687473000000006000830152602082019050919050565b600061173b601f83611a8a565b91507f596f7520617265206e6f742061207265676973746572656420446f63746f72006000830152602082019050919050565b600061177b601d83611a8a565b91507f596f7520646f6e277420686176652076696577696e67207269676874730000006000830152602082019050919050565b60006117bb601683611a8a565b91507f596f7520617265206e6f7420746865204f776e657220000000000000000000006000830152602082019050919050565b60006080830160008301516118066000860182611858565b506020830151611819602086018261164f565b5060408301518482036040860152611831828261167c565b9150506060830151848203606086015261184b828261167c565b9150508091505092915050565b61186181611ad9565b82525050565b61187081611ad9565b82525050565b600060208201905061188b600083018461165e565b92915050565b60006020820190506118a66000830184611640565b92915050565b60006020820190506118c1600083018461166d565b92915050565b600060208201905081810360008301526118e181846116b5565b905092915050565b600060a082019050818103600083015261190381886116b5565b9050818103602083015261191781876116b5565b9050818103604083015261192b81866116b5565b9050818103606083015261193f81856116b5565b905061194e608083018461165e565b9695505050505050565b60006020820190508181036000830152611971816116ee565b9050919050565b600060208201905081810360008301526119918161172e565b9050919050565b600060208201905081810360008301526119b18161176e565b9050919050565b600060208201905081810360008301526119d1816117ae565b9050919050565b600060208201905081810360008301526119f281846117ee565b905092915050565b6000602082019050611a0f6000830184611867565b92915050565b6000604051905081810181811067ffffffffffffffff82111715611a3857600080fd5b8060405250919050565b600067ffffffffffffffff821115611a5957600080fd5b601f19601f8301169050602081019050919050565b600081519050919050565b600082825260208201905092915050565b600082825260208201905092915050565b6000611aa682611ab9565b9050919050565b60008115159050919050565b600073ffffffffffffffffffffffffffffffffffffffff82169050919050565b6000819050919050565b6000611aee82611af5565b9050919050565b6000611b0082611b07565b9050919050565b6000611b1282611ab9565b9050919050565b82818337600083830152505050565b60005b83811015611b46578082015181840152602081019050611b2b565b83811115611b55576000848401525b50505050565b6000601f19601f8301169050919050565b611b7581611a9b565b8114611b8057600080fd5b50565b611b8c81611aad565b8114611b9757600080fd5b50565b611ba381611ad9565b8114611bae57600080fd5b5056fea26469706673582212209743f1e5f8486d3b8229671f5a95cde8e77ec633bba59280382ddbef8bdb346664736f6c63430007000033",
  "immutableReferences": {},
  "source": "// // SPDX-License-Identifier: GPL-3.0\n\n// pragma solidity ^0.7.0;\n// pragma experimental ABIEncoderV2;\n\n// contract Patient {\n//     // Patient basic details\n//     string public name;\n//     string kyc;\n//     string bg;\n//     string mno;\n//     address public owner;\n//     Admin admin;\n\n//     // mapping for viewers\n//     mapping(address => bool) public viewers;\n\n//     // mapping for editors\n//     mapping(address => bool) public editors;\n\n//     // report details\n//     struct record {\n//         uint256 date;\n//         address doctor;\n//         string detail;\n//         string hash;\n//     }\n\n//     // array to store record\n//     record[] details;\n\n//     constructor(\n//         string memory _name,\n//         string memory _kyc,\n//         string memory _bg,\n//         string memory _mno,\n//         address _owner,\n//         address _admin\n//     ) {\n//         // initializaing value\n//         admin = Admin(_admin);\n//         name = _name;\n//         kyc = _kyc;\n//         bg = _bg;\n//         mno = _mno;\n//         owner = _owner;\n//         viewers[owner] = true;\n//     }\n\n//     // only owner modifier\n//     modifier onlyOwner() {\n//         // modifier for only owner\n//         require(msg.sender == owner, \"You are not the Owner \");\n//         _;\n//     }\n\n//     // only viewers modifiers\n//     modifier onlyViewer() {\n//         // modifier for only owner\n//         require(viewers[msg.sender], \"You don't have viewing rights\");\n//         _;\n//     }\n\n//     // only editors modifiers\n//     modifier onlyEditor() {\n//         // modifier for only owner\n//         require(editors[msg.sender], \"You dont have editing rights\");\n//         _;\n//     }\n\n//     // setter for mobile number , as all the other details will never change ,so ony thing owner can change is mno\n\n//     function setMno(string memory _mno) public onlyOwner {\n//         // checking if the stake holder is eligible of not\n//         mno = _mno;\n//     }\n\n//     // getter for basic details\n\n//     function getPatientDetails()\n//         public\n//         view\n//         onlyViewer\n//         returns (\n//             string memory,\n//             string memory,\n//             string memory,\n//             string memory,\n//             address\n//         )\n//     {\n//         return (name, kyc, bg, mno, owner);\n//     }\n\n//     //set permissions for viewers\n//     function addViewer(address _addr) public onlyOwner {\n//         viewers[_addr] = true;\n//     }\n\n//     //set permissions for editors\n//     function addEditor(address _addr) public onlyOwner {\n//         editors[_addr] = true;\n//         viewers[_addr] = true;\n//     }\n\n//     //revoke viewing rights\n//     function removeViewer(address _addr) public onlyOwner {\n//         viewers[_addr] = false;\n//     }\n\n//     //remove permissions for editors\n//     function removeEditor(address _addr) public onlyOwner {\n//         editors[_addr] = false;\n//         viewers[_addr] = false;\n//     }\n\n//     // function for addinng details and report\n\n//     function addReport(string memory _detail, string memory _hash)\n//         public\n//         onlyEditor\n//     {\n//         require(admin.exist(msg.sender), \"You are not a registered Doctor\");\n\n//         record memory newRecord =\n//             record({\n//                 date: block.timestamp,\n//                 doctor: msg.sender,\n//                 detail: _detail,\n//                 hash: _hash\n//             });\n//         editors[msg.sender] = false;\n//         viewers[msg.sender] = false;\n//         details.push(newRecord);\n//     }\n\n//     // function array length\n\n//     function getLength() public view onlyViewer returns (uint256) {\n//         return (details.length);\n//     }\n\n//     // function for retriving report\n\n//     function getReport(uint256 _index)\n//         public\n//         view\n//         onlyViewer\n//         returns (record memory)\n//     {\n//         return (details[_index]);\n//     }\n// }\n\n// // TODO: Connection of doctor to patient is left for adding record\n// contract Doctor {\n//     string public name;\n//     string kyc;\n//     string public mno;\n//     string public id;\n//     address owner;\n\n//     constructor(\n//         string memory _name,\n//         string memory _kyc,\n//         string memory _mno,\n//         address _owner,\n//         string memory _id\n//     ) {\n//         //  Admin admin = Admin(msg.sender);\n//         //  require(msg.sender == admin.contractAddr(),\"Only Admin contract can deploy constructor\");\n\n//         // initializaing value\n//         name = _name;\n//         kyc = _kyc;\n//         mno = _mno;\n//         owner = _owner;\n//         id = _id;\n//     }\n\n//     struct patientRecord {\n//         uint256 date;\n//         address patient;\n//         string detail;\n//         string hash;\n//     }\n\n//     patientRecord[] patients;\n\n//     function recordLen() public view returns (uint256) {\n//         return patients.length;\n//     }\n\n//     function pRecord(uint256 _index)\n//         public\n//         view\n//         returns (patientRecord memory)\n//     {\n//         return patients[_index];\n//     }\n\n//     function addPatientRecord(\n//         string memory _details,\n//         string memory _hash,\n//         address _patient\n//     ) public {\n//         Patient patientContract = Patient(_patient);\n//         patientContract.addReport(_details, _hash);\n\n//         patientRecord memory pR =\n//             patientRecord({\n//                 date: block.timestamp,\n//                 patient: msg.sender,\n//                 detail: _details,\n//                 hash: _hash\n//             });\n//         patients.push(pR);\n//     }\n// }\n\n// contract Admin {\n//     address[] doctorsAddress;\n//     mapping(address => Doctor) doctors;\n//     mapping(address => bool) public exist;\n//     address public owner;\n\n//     // address public contractAddr;\n\n//     // function setContractAddr(address _addr) public {\n//     //     contractAddr = _addr;\n//     // }\n\n//     constructor() {\n//         owner = msg.sender;\n//     }\n\n//     modifier onlyOwner() {\n//         // modifier for only owner\n//         require(msg.sender == owner, \"You are not the Owner \");\n//         _;\n//     }\n\n//     function addDoctor(\n//         string memory _name,\n//         string memory _kyc,\n//         string memory _mno,\n//         address _owner,\n//         string memory _id\n//     ) public onlyOwner returns (address) {\n//         Doctor newDoctor = new Doctor(_name, _kyc, _mno, _owner, _id);\n//         doctorsAddress.push(_owner);\n//         doctors[_owner] = newDoctor;\n//         exist[address(newDoctor)] = true;\n//         return address(newDoctor);\n//     }\n\n//     function addPatient(\n//         string memory _name,\n//         string memory _kyc,\n//         string memory _bg,\n//         string memory _mno,\n//         address _owner\n//     ) public onlyOwner returns (address) {\n//         Patient newPatient =\n//             new Patient(_name, _kyc, _bg, _mno, _owner, address(this));\n//         return address(newPatient);\n//     }\n\n//     function showAddressofDoctors()\n//         external\n//         view\n//         onlyOwner\n//         returns (address[] memory)\n//     {\n//         return doctorsAddress;\n//     }\n\n//     function showDoctors(address _doc) external view returns (Doctor) {\n//         return doctors[_doc];\n//     }\n// }\n\n//SPDX-License-Identifier: GPL-3.0\npragma solidity ^0.7.0;\npragma experimental ABIEncoderV2;\n\ncontract Patient {\n    // Patient basic details\n    string public name;\n    string public age;\n    string kyc;\n    string public bg;\n    string public mno;\n    address public owner;\n    Admin admin;\n\n    // mapping for viewers\n    mapping(address => bool) public viewers;\n\n    // mapping for editors\n    mapping(address => bool) public editors;\n\n    // report details\n    struct record {\n        uint256 date;\n        address doctor;\n        string detail;\n        string hash;\n    }\n\n    // array to store record\n    record[] details;\n\n    constructor(\n        string memory _name,\n        string memory _age,\n        string memory _kyc,\n        string memory _bg,\n        string memory _mno,\n        address _owner,\n        address _admin\n    ) {\n        // initializaing value\n        admin = Admin(_admin);\n        name = _name;\n        kyc = _kyc;\n        bg = _bg;\n        mno = _mno;\n        owner = _owner;\n        age = _age;\n        viewers[owner] = true;\n    }\n\n    // only owner modifier\n    modifier onlyOwner() {\n        // modifier for only owner\n        require(msg.sender == owner, \"You are not the Owner \");\n        _;\n    }\n\n    // only viewers modifiers\n    modifier onlyViewer() {\n        // modifier for only owner\n        require(viewers[msg.sender], \"You don't have viewing rights\");\n        _;\n    }\n\n    // only editors modifiers\n    modifier onlyEditor() {\n        // modifier for only owner\n        require(editors[msg.sender], \"You dont have editing rights\");\n        _;\n    }\n\n    // setter for mobile number , as all the other details will never change ,so ony thing owner can change is mno\n\n    function setMno(string memory _mno) public onlyOwner {\n        // checking if the stake holder is eligible of not\n        mno = _mno;\n    }\n\n    // getter for basic details\n\n    function getPatientDetails()\n        public\n        view\n        onlyViewer\n        returns (\n            string memory,\n            string memory,\n            string memory,\n            string memory,\n            address\n        )\n    {\n        return (name, kyc, bg, mno, owner);\n    }\n\n    //set permissions for viewers\n    function addViewer(address _addr) public onlyOwner {\n        viewers[_addr] = true;\n    }\n\n    //set permissions for editors\n    function addEditor(address _addr) public onlyOwner {\n        editors[_addr] = true;\n    }\n\n    //revoke viewing rights\n    function removeViewer(address _addr) public onlyOwner {\n        viewers[_addr] = false;\n    }\n\n    //remove permissions for editors\n    function removeEditor(address _addr) public onlyOwner {\n        editors[_addr] = false;\n    }\n\n    // function for addinng details and report\n\n    function addReport(string memory _detail, string memory _hash)\n        public\n        onlyEditor\n    {\n        require(admin.existDA(msg.sender), \"You are not a registered Doctor\");\n\n        record memory newRecord = record({\n            date: block.timestamp,\n            doctor: msg.sender,\n            detail: _detail,\n            hash: _hash\n        });\n        editors[msg.sender] = false;\n        viewers[msg.sender] = false;\n        details.push(newRecord);\n    }\n\n    // function array length\n\n    function getLength() public view onlyViewer returns (uint256) {\n        return (details.length);\n    }\n\n    // function for retriving report\n\n    function getReport(uint256 _index)\n        public\n        view\n        onlyViewer\n        returns (record memory)\n    {\n        return (details[_index]);\n    }\n}\n\n// TODO: Connection of doctor to patient is left for adding record\ncontract Doctor {\n    string public name;\n    string kyc;\n    string public mno;\n    string public id;\n    address public owner;\n\n    constructor(\n        string memory _name,\n        string memory _kyc,\n        string memory _mno,\n        address _owner,\n        string memory _id\n    ) {\n        //  Admin admin = Admin(msg.sender);\n        //  require(msg.sender == admin.contractAddr(),\"Only Admin contract can deploy constructor\");\n\n        // initializaing value\n        name = _name;\n        kyc = _kyc;\n        mno = _mno;\n        owner = _owner;\n        id = _id;\n    }\n\n    struct patientRecord {\n        uint256 date;\n        address patient;\n        string detail;\n        string hash;\n    }\n\n    patientRecord[] patients;\n\n    function recordLen() public view returns (uint256) {\n        return patients.length;\n    }\n\n    function pRecord(uint256 _index)\n        public\n        view\n        returns (\n            patientRecord memory //ToDo : only doctor should access\n        )\n    {\n        return patients[_index];\n    }\n\n    function addPatientRecord(\n        string memory _details,\n        string memory _hash,\n        address _patient\n    ) public {\n        Patient patientContract = Patient(_patient);\n        patientContract.addReport(_details, _hash);\n\n        patientRecord memory precord = patientRecord({\n            date: block.timestamp,\n            patient: _patient,\n            detail: _details,\n            hash: _hash\n        });\n        patients.push(precord);\n    }\n}\n\ncontract Admin {\n    address[] public doctorsAddress;\n    mapping(address => address) public doctors;\n    mapping(address => address) public patients;\n    mapping(address => bool) public existD;\n    mapping(address => bool) public existDA;\n    mapping(address => bool) public existP;\n    address public owner;\n\n    // address public contractAddr;\n\n    // function setContractAddr(address _addr) public {\n    //     contractAddr = _addr;\n    // }\n\n    constructor() {\n        owner = msg.sender;\n    }\n\n    modifier onlyOwner() {\n        // modifier for only owner\n        require(msg.sender == owner, \"You are not the Owner \");\n        _;\n    }\n\n    function addDoctor(\n        string memory _name,\n        string memory _kyc,\n        string memory _mno,\n        address _owner,\n        string memory _id\n    ) public onlyOwner {\n        require(!existD[_owner], \"Account Already Exixt\");\n        Doctor newDoctor = new Doctor(_name, _kyc, _mno, _owner, _id);\n        doctorsAddress.push(_owner);\n        doctors[_owner] = address(newDoctor);\n        existD[_owner] = true;\n        existDA[address(newDoctor)] = true;\n    }\n\n    function addPatient(\n        string memory _name,\n        string memory _age,\n        string memory _kyc,\n        string memory _bg,\n        string memory _mno,\n        address _owner\n    ) public onlyOwner {\n        require(!existP[_owner], \"Account Already Exixt\");\n        Patient newPatient = new Patient(\n            _name,\n            _age,\n            _kyc,\n            _bg,\n            _mno,\n            _owner,\n            address(this)\n        );\n        patients[_owner] = address(newPatient);\n        existP[_owner] = true;\n    }\n}\n",
  "sourcePath": "/home/sourav/Documents/Programming/Blockchain-in-healthcare/contracts/Medical.sol",
  "compiler": {
    "name": "solc",
    "version": "0.7.0+commit.9e61f92b.Emscripten.clang"
  },
  "schemaVersion": "3.3.4",
  "updatedAt": "2021-06-27T14:39:09.641Z",
  "devdoc": {
    "kind": "dev",
    "methods": {},
    "version": 1
  },
  "userdoc": {
    "kind": "user",
    "methods": {},
    "version": 1
  }
}