{
  "contractName": "Patient",
  "abi": [
    {
      "inputs": [
        {
          "internalType": "string",
          "name": "_name",
          "type": "string"
        },
        {
          "internalType": "string",
          "name": "_kyc",
          "type": "string"
        },
        {
          "internalType": "string",
          "name": "_bg",
          "type": "string"
        },
        {
          "internalType": "string",
          "name": "_mno",
          "type": "string"
        },
        {
          "internalType": "address",
          "name": "_owner",
          "type": "address"
        },
        {
          "internalType": "address",
          "name": "_admin",
          "type": "address"
        }
      ],
      "stateMutability": "nonpayable",
      "type": "constructor"
    },
    {
      "inputs": [],
      "name": "bg",
      "outputs": [
        {
          "internalType": "string",
          "name": "",
          "type": "string"
        }
      ],
      "stateMutability": "view",
      "type": "function"
    },
    {
      "inputs": [
        {
          "internalType": "address",
          "name": "",
          "type": "address"
        }
      ],
      "name": "editors",
      "outputs": [
        {
          "internalType": "bool",
          "name": "",
          "type": "bool"
        }
      ],
      "stateMutability": "view",
      "type": "function"
    },
    {
      "inputs": [],
      "name": "mno",
      "outputs": [
        {
          "internalType": "string",
          "name": "",
          "type": "string"
        }
      ],
      "stateMutability": "view",
      "type": "function"
    },
    {
      "inputs": [],
      "name": "name",
      "outputs": [
        {
          "internalType": "string",
          "name": "",
          "type": "string"
        }
      ],
      "stateMutability": "view",
      "type": "function"
    },
    {
      "inputs": [],
      "name": "owner",
      "outputs": [
        {
          "internalType": "address",
          "name": "",
          "type": "address"
        }
      ],
      "stateMutability": "view",
      "type": "function"
    },
    {
      "inputs": [
        {
          "internalType": "address",
          "name": "",
          "type": "address"
        }
      ],
      "name": "viewers",
      "outputs": [
        {
          "internalType": "bool",
          "name": "",
          "type": "bool"
        }
      ],
      "stateMutability": "view",
      "type": "function"
    },
    {
      "inputs": [
        {
          "internalType": "string",
          "name": "_mno",
          "type": "string"
        }
      ],
      "name": "setMno",
      "outputs": [],
      "stateMutability": "nonpayable",
      "type": "function"
    },
    {
      "inputs": [],
      "name": "getPatientDetails",
      "outputs": [
        {
          "internalType": "string",
          "name": "",
          "type": "string"
        },
        {
          "internalType": "string",
          "name": "",
          "type": "string"
        },
        {
          "internalType": "string",
          "name": "",
          "type": "string"
        },
        {
          "internalType": "string",
          "name": "",
          "type": "string"
        },
        {
          "internalType": "address",
          "name": "",
          "type": "address"
        }
      ],
      "stateMutability": "view",
      "type": "function"
    },
    {
      "inputs": [
        {
          "internalType": "address",
          "name": "_addr",
          "type": "address"
        }
      ],
      "name": "addViewer",
      "outputs": [],
      "stateMutability": "nonpayable",
      "type": "function"
    },
    {
      "inputs": [
        {
          "internalType": "address",
          "name": "_addr",
          "type": "address"
        }
      ],
      "name": "addEditor",
      "outputs": [],
      "stateMutability": "nonpayable",
      "type": "function"
    },
    {
      "inputs": [
        {
          "internalType": "address",
          "name": "_addr",
          "type": "address"
        }
      ],
      "name": "removeViewer",
      "outputs": [],
      "stateMutability": "nonpayable",
      "type": "function"
    },
    {
      "inputs": [
        {
          "internalType": "address",
          "name": "_addr",
          "type": "address"
        }
      ],
      "name": "removeEditor",
      "outputs": [],
      "stateMutability": "nonpayable",
      "type": "function"
    },
    {
      "inputs": [
        {
          "internalType": "string",
          "name": "_detail",
          "type": "string"
        },
        {
          "internalType": "string",
          "name": "_hash",
          "type": "string"
        }
      ],
      "name": "addReport",
      "outputs": [],
      "stateMutability": "nonpayable",
      "type": "function"
    },
    {
      "inputs": [],
      "name": "getLength",
      "outputs": [
        {
          "internalType": "uint256",
          "name": "",
          "type": "uint256"
        }
      ],
      "stateMutability": "view",
      "type": "function"
    },
    {
      "inputs": [
        {
          "internalType": "uint256",
          "name": "_index",
          "type": "uint256"
        }
      ],
      "name": "getReport",
      "outputs": [
        {
          "components": [
            {
              "internalType": "uint256",
              "name": "date",
              "type": "uint256"
            },
            {
              "internalType": "address",
              "name": "doctor",
              "type": "address"
            },
            {
              "internalType": "string",
              "name": "detail",
              "type": "string"
            },
            {
              "internalType": "string",
              "name": "hash",
              "type": "string"
            }
          ],
          "internalType": "struct Patient.record",
          "name": "",
          "type": "tuple"
        }
      ],
      "stateMutability": "view",
      "type": "function"
    }
  ],
  "bytecode": "0x60806040523480156200001157600080fd5b5060405162002075380380620020758339818101604052810190620000379190620002bc565b80600560006101000a81548173ffffffffffffffffffffffffffffffffffffffff021916908373ffffffffffffffffffffffffffffffffffffffff160217905550856000908051906020019062000090929190620001a3565b508460019080519060200190620000a9929190620001a3565b508360029080519060200190620000c2929190620001a3565b508260039080519060200190620000db929190620001a3565b5081600460006101000a81548173ffffffffffffffffffffffffffffffffffffffff021916908373ffffffffffffffffffffffffffffffffffffffff160217905550600160066000600460009054906101000a900473ffffffffffffffffffffffffffffffffffffffff1673ffffffffffffffffffffffffffffffffffffffff1673ffffffffffffffffffffffffffffffffffffffff16815260200190815260200160002060006101000a81548160ff02191690831515021790555050505050505062000495565b828054600181600116156101000203166002900490600052602060002090601f016020900481019282601f10620001e657805160ff191683800117855562000217565b8280016001018555821562000217579182015b8281111562000216578251825591602001919060010190620001f9565b5b5090506200022691906200022a565b5090565b5b80821115620002455760008160009055506001016200022b565b5090565b6000815190506200025a816200047b565b92915050565b600082601f8301126200027257600080fd5b8151620002896200028382620003e4565b620003b6565b91508082526020830160208301858383011115620002a657600080fd5b620002b383828462000445565b50505092915050565b60008060008060008060c08789031215620002d657600080fd5b600087015167ffffffffffffffff811115620002f157600080fd5b620002ff89828a0162000260565b965050602087015167ffffffffffffffff8111156200031d57600080fd5b6200032b89828a0162000260565b955050604087015167ffffffffffffffff8111156200034957600080fd5b6200035789828a0162000260565b945050606087015167ffffffffffffffff8111156200037557600080fd5b6200038389828a0162000260565b93505060806200039689828a0162000249565b92505060a0620003a989828a0162000249565b9150509295509295509295565b6000604051905081810181811067ffffffffffffffff82111715620003da57600080fd5b8060405250919050565b600067ffffffffffffffff821115620003fc57600080fd5b601f19601f8301169050602081019050919050565b60006200041e8262000425565b9050919050565b600073ffffffffffffffffffffffffffffffffffffffff82169050919050565b60005b838110156200046557808201518184015260208101905062000448565b8381111562000475576000848401525b50505050565b620004868162000411565b81146200049257600080fd5b50565b611bd080620004a56000396000f3fe608060405234801561001057600080fd5b50600436106100f55760003560e01c8063a69439aa11610097578063d1d9891411610066578063d1d9891414610272578063e45ab9c41461028e578063e5975bdc146102ac578063f2f4adae146102c8576100f5565b8063a69439aa146101d6578063b08bc8a514610206578063be1c766b14610224578063cd52844d14610242576100f5565b80634e7f9b19116100d35780634e7f9b1914610150578063601f8cf5146101805780637a3e00661461019c5780638da5cb5b146101b8576100f5565b806306fdde03146100fa57806308e381cf146101185780632d55feaf14610134575b600080fd5b6101026102ea565b60405161010f91906118b0565b60405180910390f35b610132600480360381019061012d9190611553565b610388565b005b61014e60048036038101906101499190611501565b610432565b005b61016a60048036038101906101659190611600565b610575565b60405161017791906119c1565b60405180910390f35b61019a60048036038101906101959190611501565b6107da565b005b6101b660048036038101906101b19190611594565b6108c5565b005b6101c0610bea565b6040516101cd919061185f565b60405180910390f35b6101f060048036038101906101eb9190611501565b610c10565b6040516101fd9190611895565b60405180910390f35b61020e610c30565b60405161021b91906118b0565b60405180910390f35b61022c610cce565b60405161023991906119e3565b60405180910390f35b61025c60048036038101906102579190611501565b610d67565b6040516102699190611895565b60405180910390f35b61028c60048036038101906102879190611501565b610d87565b005b610296610e72565b6040516102a391906118b0565b60405180910390f35b6102c660048036038101906102c19190611501565b610f10565b005b6102d0611053565b6040516102e19594939291906118d2565b60405180910390f35b60008054600181600116156101000203166002900480601f0160208091040260200160405190810160405280929190818152602001828054600181600116156101000203166002900480156103805780601f1061035557610100808354040283529160200191610380565b820191906000526020600020905b81548152906001019060200180831161036357829003601f168201915b505050505081565b600460009054906101000a900473ffffffffffffffffffffffffffffffffffffffff1673ffffffffffffffffffffffffffffffffffffffff163373ffffffffffffffffffffffffffffffffffffffff1614610418576040517f08c379a000000000000000000000000000000000000000000000000000000000815260040161040f906119a1565b60405180910390fd5b806003908051906020019061042e929190611393565b5050565b600460009054906101000a900473ffffffffffffffffffffffffffffffffffffffff1673ffffffffffffffffffffffffffffffffffffffff163373ffffffffffffffffffffffffffffffffffffffff16146104c2576040517f08c379a00000000000000000000000000000000000000000000000000000000081526004016104b9906119a1565b60405180910390fd5b6000600760008373ffffffffffffffffffffffffffffffffffffffff1673ffffffffffffffffffffffffffffffffffffffff16815260200190815260200160002060006101000a81548160ff0219169083151502179055506000600660008373ffffffffffffffffffffffffffffffffffffffff1673ffffffffffffffffffffffffffffffffffffffff16815260200190815260200160002060006101000a81548160ff02191690831515021790555050565b61057d611413565b600660003373ffffffffffffffffffffffffffffffffffffffff1673ffffffffffffffffffffffffffffffffffffffff16815260200190815260200160002060009054906101000a900460ff16610609576040517f08c379a000000000000000000000000000000000000000000000000000000000815260040161060090611981565b60405180910390fd5b6008828154811061061657fe5b9060005260206000209060040201604051806080016040529081600082015481526020016001820160009054906101000a900473ffffffffffffffffffffffffffffffffffffffff1673ffffffffffffffffffffffffffffffffffffffff1673ffffffffffffffffffffffffffffffffffffffff168152602001600282018054600181600116156101000203166002900480601f0160208091040260200160405190810160405280929190818152602001828054600181600116156101000203166002900480156107285780601f106106fd57610100808354040283529160200191610728565b820191906000526020600020905b81548152906001019060200180831161070b57829003601f168201915b50505050508152602001600382018054600181600116156101000203166002900480601f0160208091040260200160405190810160405280929190818152602001828054600181600116156101000203166002900480156107ca5780601f1061079f576101008083540402835291602001916107ca565b820191906000526020600020905b8154815290600101906020018083116107ad57829003601f168201915b5050505050815250509050919050565b600460009054906101000a900473ffffffffffffffffffffffffffffffffffffffff1673ffffffffffffffffffffffffffffffffffffffff163373ffffffffffffffffffffffffffffffffffffffff161461086a576040517f08c379a0000000000000000000000000000000000000000000000000000000008152600401610861906119a1565b60405180910390fd5b6001600660008373ffffffffffffffffffffffffffffffffffffffff1673ffffffffffffffffffffffffffffffffffffffff16815260200190815260200160002060006101000a81548160ff02191690831515021790555050565b600760003373ffffffffffffffffffffffffffffffffffffffff1673ffffffffffffffffffffffffffffffffffffffff16815260200190815260200160002060009054906101000a900460ff16610951576040517f08c379a000000000000000000000000000000000000000000000000000000000815260040161094890611941565b60405180910390fd5b600560009054906101000a900473ffffffffffffffffffffffffffffffffffffffff1673ffffffffffffffffffffffffffffffffffffffff16630d43c16f336040518263ffffffff1660e01b81526004016109ac919061187a565b60206040518083038186803b1580156109c457600080fd5b505afa1580156109d8573d6000803e3d6000fd5b505050506040513d601f19601f820116820180604052508101906109fc919061152a565b610a3b576040517f08c379a0000000000000000000000000000000000000000000000000000000008152600401610a3290611961565b60405180910390fd5b610a43611413565b60405180608001604052804281526020013373ffffffffffffffffffffffffffffffffffffffff1681526020018481526020018381525090506000600760003373ffffffffffffffffffffffffffffffffffffffff1673ffffffffffffffffffffffffffffffffffffffff16815260200190815260200160002060006101000a81548160ff0219169083151502179055506000600660003373ffffffffffffffffffffffffffffffffffffffff1673ffffffffffffffffffffffffffffffffffffffff16815260200190815260200160002060006101000a81548160ff02191690831515021790555060088190806001815401808255809150506001900390600052602060002090600402016000909190919091506000820151816000015560208201518160010160006101000a81548173ffffffffffffffffffffffffffffffffffffffff021916908373ffffffffffffffffffffffffffffffffffffffff1602179055506040820151816002019080519060200190610bc5929190611393565b506060820151816003019080519060200190610be2929190611393565b505050505050565b600460009054906101000a900473ffffffffffffffffffffffffffffffffffffffff1681565b60066020528060005260406000206000915054906101000a900460ff1681565b60028054600181600116156101000203166002900480601f016020809104026020016040519081016040528092919081815260200182805460018160011615610100020316600290048015610cc65780601f10610c9b57610100808354040283529160200191610cc6565b820191906000526020600020905b815481529060010190602001808311610ca957829003601f168201915b505050505081565b6000600660003373ffffffffffffffffffffffffffffffffffffffff1673ffffffffffffffffffffffffffffffffffffffff16815260200190815260200160002060009054906101000a900460ff16610d5c576040517f08c379a0000000000000000000000000000000000000000000000000000000008152600401610d5390611981565b60405180910390fd5b600880549050905090565b60076020528060005260406000206000915054906101000a900460ff1681565b600460009054906101000a900473ffffffffffffffffffffffffffffffffffffffff1673ffffffffffffffffffffffffffffffffffffffff163373ffffffffffffffffffffffffffffffffffffffff1614610e17576040517f08c379a0000000000000000000000000000000000000000000000000000000008152600401610e0e906119a1565b60405180910390fd5b6000600660008373ffffffffffffffffffffffffffffffffffffffff1673ffffffffffffffffffffffffffffffffffffffff16815260200190815260200160002060006101000a81548160ff02191690831515021790555050565b60038054600181600116156101000203166002900480601f016020809104026020016040519081016040528092919081815260200182805460018160011615610100020316600290048015610f085780601f10610edd57610100808354040283529160200191610f08565b820191906000526020600020905b815481529060010190602001808311610eeb57829003601f168201915b505050505081565b600460009054906101000a900473ffffffffffffffffffffffffffffffffffffffff1673ffffffffffffffffffffffffffffffffffffffff163373ffffffffffffffffffffffffffffffffffffffff1614610fa0576040517f08c379a0000000000000000000000000000000000000000000000000000000008152600401610f97906119a1565b60405180910390fd5b6001600760008373ffffffffffffffffffffffffffffffffffffffff1673ffffffffffffffffffffffffffffffffffffffff16815260200190815260200160002060006101000a81548160ff0219169083151502179055506001600660008373ffffffffffffffffffffffffffffffffffffffff1673ffffffffffffffffffffffffffffffffffffffff16815260200190815260200160002060006101000a81548160ff02191690831515021790555050565b6060806060806000600660003373ffffffffffffffffffffffffffffffffffffffff1673ffffffffffffffffffffffffffffffffffffffff16815260200190815260200160002060009054906101000a900460ff166110e7576040517f08c379a00000000000000000000000000000000000000000000000000000000081526004016110de90611981565b60405180910390fd5b6000600160026003600460009054906101000a900473ffffffffffffffffffffffffffffffffffffffff16848054600181600116156101000203166002900480601f0160208091040260200160405190810160405280929190818152602001828054600181600116156101000203166002900480156111a75780601f1061117c576101008083540402835291602001916111a7565b820191906000526020600020905b81548152906001019060200180831161118a57829003601f168201915b50505050509450838054600181600116156101000203166002900480601f0160208091040260200160405190810160405280929190818152602001828054600181600116156101000203166002900480156112435780601f1061121857610100808354040283529160200191611243565b820191906000526020600020905b81548152906001019060200180831161122657829003601f168201915b50505050509350828054600181600116156101000203166002900480601f0160208091040260200160405190810160405280929190818152602001828054600181600116156101000203166002900480156112df5780601f106112b4576101008083540402835291602001916112df565b820191906000526020600020905b8154815290600101906020018083116112c257829003601f168201915b50505050509250818054600181600116156101000203166002900480601f01602080910402602001604051908101604052809291908181526020018280546001816001161561010002031660029004801561137b5780601f106113505761010080835404028352916020019161137b565b820191906000526020600020905b81548152906001019060200180831161135e57829003601f168201915b50505050509150945094509450945094509091929394565b828054600181600116156101000203166002900490600052602060002090601f016020900481019282601f106113d457805160ff1916838001178555611402565b82800160010185558215611402579182015b828111156114015782518255916020019190600101906113e6565b5b50905061140f9190611451565b5090565b604051806080016040528060008152602001600073ffffffffffffffffffffffffffffffffffffffff16815260200160608152602001606081525090565b5b8082111561146a576000816000905550600101611452565b5090565b60008135905061147d81611b55565b92915050565b60008151905061149281611b6c565b92915050565b600082601f8301126114a957600080fd5b81356114bc6114b782611a2b565b6119fe565b915080825260208301602083018583830111156114d857600080fd5b6114e3838284611b02565b50505092915050565b6000813590506114fb81611b83565b92915050565b60006020828403121561151357600080fd5b60006115218482850161146e565b91505092915050565b60006020828403121561153c57600080fd5b600061154a84828501611483565b91505092915050565b60006020828403121561156557600080fd5b600082013567ffffffffffffffff81111561157f57600080fd5b61158b84828501611498565b91505092915050565b600080604083850312156115a757600080fd5b600083013567ffffffffffffffff8111156115c157600080fd5b6115cd85828601611498565b925050602083013567ffffffffffffffff8111156115ea57600080fd5b6115f685828601611498565b9150509250929050565b60006020828403121561161257600080fd5b6000611620848285016114ec565b91505092915050565b61163281611acc565b82525050565b61164181611a84565b82525050565b61165081611a84565b82525050565b61165f81611a96565b82525050565b600061167082611a57565b61167a8185611a62565b935061168a818560208601611b11565b61169381611b44565b840191505092915050565b60006116a982611a57565b6116b38185611a73565b93506116c3818560208601611b11565b6116cc81611b44565b840191505092915050565b60006116e4601c83611a73565b91507f596f7520646f6e7420686176652065646974696e6720726967687473000000006000830152602082019050919050565b6000611724601f83611a73565b91507f596f7520617265206e6f742061207265676973746572656420446f63746f72006000830152602082019050919050565b6000611764601d83611a73565b91507f596f7520646f6e277420686176652076696577696e67207269676874730000006000830152602082019050919050565b60006117a4601683611a73565b91507f596f7520617265206e6f7420746865204f776e657220000000000000000000006000830152602082019050919050565b60006080830160008301516117ef6000860182611841565b5060208301516118026020860182611638565b506040830151848203604086015261181a8282611665565b915050606083015184820360608601526118348282611665565b9150508091505092915050565b61184a81611ac2565b82525050565b61185981611ac2565b82525050565b60006020820190506118746000830184611647565b92915050565b600060208201905061188f6000830184611629565b92915050565b60006020820190506118aa6000830184611656565b92915050565b600060208201905081810360008301526118ca818461169e565b905092915050565b600060a08201905081810360008301526118ec818861169e565b90508181036020830152611900818761169e565b90508181036040830152611914818661169e565b90508181036060830152611928818561169e565b90506119376080830184611647565b9695505050505050565b6000602082019050818103600083015261195a816116d7565b9050919050565b6000602082019050818103600083015261197a81611717565b9050919050565b6000602082019050818103600083015261199a81611757565b9050919050565b600060208201905081810360008301526119ba81611797565b9050919050565b600060208201905081810360008301526119db81846117d7565b905092915050565b60006020820190506119f86000830184611850565b92915050565b6000604051905081810181811067ffffffffffffffff82111715611a2157600080fd5b8060405250919050565b600067ffffffffffffffff821115611a4257600080fd5b601f19601f8301169050602081019050919050565b600081519050919050565b600082825260208201905092915050565b600082825260208201905092915050565b6000611a8f82611aa2565b9050919050565b60008115159050919050565b600073ffffffffffffffffffffffffffffffffffffffff82169050919050565b6000819050919050565b6000611ad782611ade565b9050919050565b6000611ae982611af0565b9050919050565b6000611afb82611aa2565b9050919050565b82818337600083830152505050565b60005b83811015611b2f578082015181840152602081019050611b14565b83811115611b3e576000848401525b50505050565b6000601f19601f8301169050919050565b611b5e81611a84565b8114611b6957600080fd5b50565b611b7581611a96565b8114611b8057600080fd5b50565b611b8c81611ac2565b8114611b9757600080fd5b5056fea2646970667358221220f104b4f8afbe3ca52c34fe23f3b9ca17486f19976961b50f315504bee6127a3164736f6c63430007000033",
  "immutableReferences": {},
  "source": "// // SPDX-License-Identifier: GPL-3.0\n\n// pragma solidity ^0.7.0;\n// pragma experimental ABIEncoderV2;\n\n// contract Patient {\n//     // Patient basic details\n//     string public name;\n//     string kyc;\n//     string bg;\n//     string mno;\n//     address public owner;\n//     Admin admin;\n\n//     // mapping for viewers\n//     mapping(address => bool) public viewers;\n\n//     // mapping for editors\n//     mapping(address => bool) public editors;\n\n//     // report details\n//     struct record {\n//         uint256 date;\n//         address doctor;\n//         string detail;\n//         string hash;\n//     }\n\n//     // array to store record\n//     record[] details;\n\n//     constructor(\n//         string memory _name,\n//         string memory _kyc,\n//         string memory _bg,\n//         string memory _mno,\n//         address _owner,\n//         address _admin\n//     ) {\n//         // initializaing value\n//         admin = Admin(_admin);\n//         name = _name;\n//         kyc = _kyc;\n//         bg = _bg;\n//         mno = _mno;\n//         owner = _owner;\n//         viewers[owner] = true;\n//     }\n\n//     // only owner modifier\n//     modifier onlyOwner() {\n//         // modifier for only owner\n//         require(msg.sender == owner, \"You are not the Owner \");\n//         _;\n//     }\n\n//     // only viewers modifiers\n//     modifier onlyViewer() {\n//         // modifier for only owner\n//         require(viewers[msg.sender], \"You don't have viewing rights\");\n//         _;\n//     }\n\n//     // only editors modifiers\n//     modifier onlyEditor() {\n//         // modifier for only owner\n//         require(editors[msg.sender], \"You dont have editing rights\");\n//         _;\n//     }\n\n//     // setter for mobile number , as all the other details will never change ,so ony thing owner can change is mno\n\n//     function setMno(string memory _mno) public onlyOwner {\n//         // checking if the stake holder is eligible of not\n//         mno = _mno;\n//     }\n\n//     // getter for basic details\n\n//     function getPatientDetails()\n//         public\n//         view\n//         onlyViewer\n//         returns (\n//             string memory,\n//             string memory,\n//             string memory,\n//             string memory,\n//             address\n//         )\n//     {\n//         return (name, kyc, bg, mno, owner);\n//     }\n\n//     //set permissions for viewers\n//     function addViewer(address _addr) public onlyOwner {\n//         viewers[_addr] = true;\n//     }\n\n//     //set permissions for editors\n//     function addEditor(address _addr) public onlyOwner {\n//         editors[_addr] = true;\n//         viewers[_addr] = true;\n//     }\n\n//     //revoke viewing rights\n//     function removeViewer(address _addr) public onlyOwner {\n//         viewers[_addr] = false;\n//     }\n\n//     //remove permissions for editors\n//     function removeEditor(address _addr) public onlyOwner {\n//         editors[_addr] = false;\n//         viewers[_addr] = false;\n//     }\n\n//     // function for addinng details and report\n\n//     function addReport(string memory _detail, string memory _hash)\n//         public\n//         onlyEditor\n//     {\n//         require(admin.exist(msg.sender), \"You are not a registered Doctor\");\n\n//         record memory newRecord =\n//             record({\n//                 date: block.timestamp,\n//                 doctor: msg.sender,\n//                 detail: _detail,\n//                 hash: _hash\n//             });\n//         editors[msg.sender] = false;\n//         viewers[msg.sender] = false;\n//         details.push(newRecord);\n//     }\n\n//     // function array length\n\n//     function getLength() public view onlyViewer returns (uint256) {\n//         return (details.length);\n//     }\n\n//     // function for retriving report\n\n//     function getReport(uint256 _index)\n//         public\n//         view\n//         onlyViewer\n//         returns (record memory)\n//     {\n//         return (details[_index]);\n//     }\n// }\n\n// // TODO: Connection of doctor to patient is left for adding record\n// contract Doctor {\n//     string public name;\n//     string kyc;\n//     string public mno;\n//     string public id;\n//     address owner;\n\n//     constructor(\n//         string memory _name,\n//         string memory _kyc,\n//         string memory _mno,\n//         address _owner,\n//         string memory _id\n//     ) {\n//         //  Admin admin = Admin(msg.sender);\n//         //  require(msg.sender == admin.contractAddr(),\"Only Admin contract can deploy constructor\");\n\n//         // initializaing value\n//         name = _name;\n//         kyc = _kyc;\n//         mno = _mno;\n//         owner = _owner;\n//         id = _id;\n//     }\n\n//     struct patientRecord {\n//         uint256 date;\n//         address patient;\n//         string detail;\n//         string hash;\n//     }\n\n//     patientRecord[] patients;\n\n//     function recordLen() public view returns (uint256) {\n//         return patients.length;\n//     }\n\n//     function pRecord(uint256 _index)\n//         public\n//         view\n//         returns (patientRecord memory)\n//     {\n//         return patients[_index];\n//     }\n\n//     function addPatientRecord(\n//         string memory _details,\n//         string memory _hash,\n//         address _patient\n//     ) public {\n//         Patient patientContract = Patient(_patient);\n//         patientContract.addReport(_details, _hash);\n\n//         patientRecord memory pR =\n//             patientRecord({\n//                 date: block.timestamp,\n//                 patient: msg.sender,\n//                 detail: _details,\n//                 hash: _hash\n//             });\n//         patients.push(pR);\n//     }\n// }\n\n// contract Admin {\n//     address[] doctorsAddress;\n//     mapping(address => Doctor) doctors;\n//     mapping(address => bool) public exist;\n//     address public owner;\n\n//     // address public contractAddr;\n\n//     // function setContractAddr(address _addr) public {\n//     //     contractAddr = _addr;\n//     // }\n\n//     constructor() {\n//         owner = msg.sender;\n//     }\n\n//     modifier onlyOwner() {\n//         // modifier for only owner\n//         require(msg.sender == owner, \"You are not the Owner \");\n//         _;\n//     }\n\n//     function addDoctor(\n//         string memory _name,\n//         string memory _kyc,\n//         string memory _mno,\n//         address _owner,\n//         string memory _id\n//     ) public onlyOwner returns (address) {\n//         Doctor newDoctor = new Doctor(_name, _kyc, _mno, _owner, _id);\n//         doctorsAddress.push(_owner);\n//         doctors[_owner] = newDoctor;\n//         exist[address(newDoctor)] = true;\n//         return address(newDoctor);\n//     }\n\n//     function addPatient(\n//         string memory _name,\n//         string memory _kyc,\n//         string memory _bg,\n//         string memory _mno,\n//         address _owner\n//     ) public onlyOwner returns (address) {\n//         Patient newPatient =\n//             new Patient(_name, _kyc, _bg, _mno, _owner, address(this));\n//         return address(newPatient);\n//     }\n\n//     function showAddressofDoctors()\n//         external\n//         view\n//         onlyOwner\n//         returns (address[] memory)\n//     {\n//         return doctorsAddress;\n//     }\n\n//     function showDoctors(address _doc) external view returns (Doctor) {\n//         return doctors[_doc];\n//     }\n// }\n\n// SPDX-License-Identifier: GPL-3.0\n\n// SPDX-License-Identifier: GPL-3.0\n\npragma solidity ^0.7.0;\npragma experimental ABIEncoderV2;\n\ncontract Patient {\n    // Patient basic details\n    string public name;\n    string kyc;\n    string public bg;\n    string public mno;\n    address public owner;\n    Admin admin;\n\n    // mapping for viewers\n    mapping(address => bool) public viewers;\n\n    // mapping for editors\n    mapping(address => bool) public editors;\n\n    // report details\n    struct record {\n        uint256 date;\n        address doctor;\n        string detail;\n        string hash;\n    }\n\n    // array to store record\n    record[] details;\n\n    constructor(\n        string memory _name,\n        string memory _kyc,\n        string memory _bg,\n        string memory _mno,\n        address _owner,\n        address _admin\n    ) {\n        // initializaing value\n        admin = Admin(_admin);\n        name = _name;\n        kyc = _kyc;\n        bg = _bg;\n        mno = _mno;\n        owner = _owner;\n        viewers[owner] = true;\n    }\n\n    // only owner modifier\n    modifier onlyOwner() {\n        // modifier for only owner\n        require(msg.sender == owner, \"You are not the Owner \");\n        _;\n    }\n\n    // only viewers modifiers\n    modifier onlyViewer() {\n        // modifier for only owner\n        require(viewers[msg.sender], \"You don't have viewing rights\");\n        _;\n    }\n\n    // only editors modifiers\n    modifier onlyEditor() {\n        // modifier for only owner\n        require(editors[msg.sender], \"You dont have editing rights\");\n        _;\n    }\n\n    // setter for mobile number , as all the other details will never change ,so ony thing owner can change is mno\n\n    function setMno(string memory _mno) public onlyOwner {\n        // checking if the stake holder is eligible of not\n        mno = _mno;\n    }\n\n    // getter for basic details\n\n    function getPatientDetails()\n        public\n        view\n        onlyViewer\n        returns (\n            string memory,\n            string memory,\n            string memory,\n            string memory,\n            address\n        )\n    {\n        return (name, kyc, bg, mno, owner);\n    }\n\n    //set permissions for viewers\n    function addViewer(address _addr) public onlyOwner {\n        viewers[_addr] = true;\n    }\n\n    //set permissions for editors\n    function addEditor(address _addr) public onlyOwner {\n        editors[_addr] = true;\n        viewers[_addr] = true;\n    }\n\n    //revoke viewing rights\n    function removeViewer(address _addr) public onlyOwner {\n        viewers[_addr] = false;\n    }\n\n    //remove permissions for editors\n    function removeEditor(address _addr) public onlyOwner {\n        editors[_addr] = false;\n        viewers[_addr] = false;\n    }\n\n    // function for addinng details and report\n\n    function addReport(string memory _detail, string memory _hash)\n        public\n        onlyEditor\n    {\n        require(admin.existD(msg.sender), \"You are not a registered Doctor\");\n\n        record memory newRecord =\n            record({\n                date: block.timestamp,\n                doctor: msg.sender,\n                detail: _detail,\n                hash: _hash\n            });\n        editors[msg.sender] = false;\n        viewers[msg.sender] = false;\n        details.push(newRecord);\n    }\n\n    // function array length\n\n    function getLength() public view onlyViewer returns (uint256) {\n        return (details.length);\n    }\n\n    // function for retriving report\n\n    function getReport(uint256 _index)\n        public\n        view\n        onlyViewer\n        returns (record memory)\n    {\n        return (details[_index]);\n    }\n}\n\n// TODO: Connection of doctor to patient is left for adding record\ncontract Doctor {\n    string public name;\n    string kyc;\n    string public mno;\n    string public id;\n    address owner;\n\n    constructor(\n        string memory _name,\n        string memory _kyc,\n        string memory _mno,\n        address _owner,\n        string memory _id\n    ) {\n        //  Admin admin = Admin(msg.sender);\n        //  require(msg.sender == admin.contractAddr(),\"Only Admin contract can deploy constructor\");\n\n        // initializaing value\n        name = _name;\n        kyc = _kyc;\n        mno = _mno;\n        owner = _owner;\n        id = _id;\n    }\n\n    struct patientRecord {\n        uint256 date;\n        address patient;\n        string detail;\n        string hash;\n    }\n\n    patientRecord[] patients;\n\n    function recordLen() public view returns (uint256) {\n        return patients.length;\n    }\n\n    function pRecord(uint256 _index)\n        public\n        view\n        returns (patientRecord memory)\n    {\n        return patients[_index];\n    }\n\n    function addPatientRecord(\n        string memory _details,\n        string memory _hash,\n        address _patient\n    ) public {\n        Patient patientContract = Patient(_patient);\n        patientContract.addReport(_details, _hash);\n\n        patientRecord memory precord =\n            patientRecord({\n                date: block.timestamp,\n                patient: msg.sender,\n                detail: _details,\n                hash: _hash\n            });\n        patients.push(precord);\n    }\n}\n\ncontract Admin {\n    address[] public doctorsAddress;\n    mapping(address => address) public doctors;\n    mapping(address => address) public patients;\n    mapping(address => bool) public existD;\n    mapping(address => bool) public existP;\n    address public owner;\n\n    // address public contractAddr;\n\n    // function setContractAddr(address _addr) public {\n    //     contractAddr = _addr;\n    // }\n\n    constructor() {\n        owner = msg.sender;\n    }\n\n    modifier onlyOwner() {\n        // modifier for only owner\n        require(msg.sender == owner, \"You are not the Owner \");\n        _;\n    }\n\n    function addDoctor(\n        string memory _name,\n        string memory _kyc,\n        string memory _mno,\n        address _owner,\n        string memory _id\n    ) public onlyOwner {\n        require(!existD[_owner], \"Account Already Exixt\");\n        Doctor newDoctor = new Doctor(_name, _kyc, _mno, _owner, _id);\n        doctorsAddress.push(_owner);\n        doctors[_owner] = address(newDoctor);\n        existD[_owner] = true;\n    }\n\n    function addPatient(\n        string memory _name,\n        string memory _kyc,\n        string memory _bg,\n        string memory _mno,\n        address _owner\n    ) public onlyOwner {\n        require(!existP[_owner], \"Account Already Exixt\");\n        Patient newPatient =\n            new Patient(_name, _kyc, _bg, _mno, _owner, address(this));\n        patients[_owner] = address(newPatient);\n        existP[_owner] = true;\n    }\n}\n",
  "sourcePath": "/home/sourav/Documents/Programming/Blockchain-in-healthcare/contracts/Medical.sol",
  "compiler": {
    "name": "solc",
    "version": "0.7.0+commit.9e61f92b.Emscripten.clang"
  },
  "schemaVersion": "3.3.4",
  "updatedAt": "2021-04-30T16:10:01.054Z",
  "devdoc": {
    "kind": "dev",
    "methods": {},
    "version": 1
  },
  "userdoc": {
    "kind": "user",
    "methods": {},
    "version": 1
  }
}